{"contracts/SoybeanSupplyChain.sol":{"SoybeanSupplyChain":{"abi":[{"inputs":[],"stateMutability":"nonpayable","type":"constructor"},{"anonymous":false,"inputs":[{"indexed":true,"internalType":"address","name":"distributor","type":"address"},{"indexed":false,"internalType":"uint256","name":"soybeanId","type":"uint256"}],"name":"ForSale","type":"event"},{"anonymous":false,"inputs":[{"indexed":true,"internalType":"address","name":"farmer","type":"address"},{"indexed":false,"internalType":"uint256","name":"soybeanId","type":"uint256"}],"name":"Harvesting","type":"event"},{"anonymous":false,"inputs":[{"indexed":true,"internalType":"address","name":"processor","type":"address"},{"indexed":false,"internalType":"uint256","name":"soybeanId","type":"uint256"}],"name":"Packing","type":"event"},{"anonymous":false,"inputs":[{"indexed":true,"internalType":"address","name":"farmer","type":"address"},{"indexed":false,"internalType":"uint256","name":"soybeanId","type":"uint256"}],"name":"Planting","type":"event"},{"anonymous":false,"inputs":[{"indexed":true,"internalType":"address","name":"processor","type":"address"},{"indexed":false,"internalType":"uint256","name":"soybeanId","type":"uint256"}],"name":"Processing","type":"event"},{"anonymous":false,"inputs":[{"indexed":true,"internalType":"address","name":"retailer","type":"address"},{"indexed":true,"internalType":"address","name":"consumer","type":"address"},{"indexed":false,"internalType":"uint256","name":"soybeanId","type":"uint256"}],"name":"Sold","type":"event"},{"inputs":[{"internalType":"address","name":"_address","type":"address"}],"name":"addAddress","outputs":[],"stateMutability":"nonpayable","type":"function"},{"inputs":[],"name":"admin","outputs":[{"internalType":"address","name":"","type":"address"}],"stateMutability":"view","type":"function"},{"inputs":[{"internalType":"address","name":"_address","type":"address"},{"internalType":"string","name":"_role","type":"string"},{"internalType":"string","name":"_name","type":"string"}],"name":"assignRole","outputs":[],"stateMutability":"nonpayable","type":"function"},{"inputs":[{"internalType":"uint256","name":"_soybeanId","type":"uint256"}],"name":"buySoybeans","outputs":[],"stateMutability":"payable","type":"function"},{"inputs":[{"internalType":"uint256","name":"index","type":"uint256"}],"name":"getAddress","outputs":[{"internalType":"address","name":"","type":"address"}],"stateMutability":"view","type":"function"},{"inputs":[],"name":"getAllAddresses","outputs":[{"internalType":"address[]","name":"","type":"address[]"}],"stateMutability":"view","type":"function"},{"inputs":[],"name":"getAllSoybeans","outputs":[{"components":[{"internalType":"uint256","name":"id","type":"uint256"},{"internalType":"address payable","name":"farmer","type":"address"},{"internalType":"address payable","name":"processor","type":"address"},{"internalType":"address payable","name":"distributor","type":"address"},{"internalType":"address","name":"retailer","type":"address"},{"internalType":"address","name":"consumer","type":"address"},{"internalType":"uint256","name":"quantity","type":"uint256"},{"internalType":"uint256[3]","name":"prices","type":"uint256[3]"},{"internalType":"string","name":"product","type":"string"},{"internalType":"enum SoybeanSupplyChain.State","name":"state","type":"uint8"},{"internalType":"uint256[6]","name":"timestamps","type":"uint256[6]"}],"internalType":"struct SoybeanSupplyChain.Soybean[]","name":"","type":"tuple[]"}],"stateMutability":"view","type":"function"},{"inputs":[{"internalType":"address","name":"_addr","type":"address"}],"name":"getName","outputs":[{"internalType":"string","name":"","type":"string"}],"stateMutability":"view","type":"function"},{"inputs":[{"internalType":"address","name":"_addr","type":"address"}],"name":"getRole","outputs":[{"internalType":"string","name":"","type":"string"}],"stateMutability":"view","type":"function"},{"inputs":[{"internalType":"uint256","name":"_soybeanId","type":"uint256"},{"internalType":"uint256","name":"_price","type":"uint256"}],"name":"harvestSoybeans","outputs":[],"stateMutability":"payable","type":"function"},{"inputs":[{"internalType":"address","name":"","type":"address"}],"name":"names","outputs":[{"internalType":"string","name":"","type":"string"}],"stateMutability":"view","type":"function"},{"inputs":[{"internalType":"uint256","name":"_soybeanId","type":"uint256"},{"internalType":"uint256","name":"_price","type":"uint256"}],"name":"packSoybeans","outputs":[],"stateMutability":"payable","type":"function"},{"inputs":[{"internalType":"uint256","name":"_quantity","type":"uint256"}],"name":"plantSoybeans","outputs":[],"stateMutability":"nonpayable","type":"function"},{"inputs":[{"internalType":"uint256","name":"_soybeanId","type":"uint256"},{"internalType":"address payable","name":"_processor","type":"address"},{"internalType":"string","name":"_product","type":"string"}],"name":"processSoybeans","outputs":[],"stateMutability":"payable","type":"function"},{"inputs":[{"internalType":"address","name":"","type":"address"}],"name":"roles","outputs":[{"internalType":"string","name":"","type":"string"}],"stateMutability":"view","type":"function"},{"inputs":[{"internalType":"uint256","name":"_soybeanId","type":"uint256"},{"internalType":"uint256","name":"_price","type":"uint256"}],"name":"sellSoybeans","outputs":[],"stateMutability":"payable","type":"function"},{"inputs":[],"name":"soybeanCounter","outputs":[{"internalType":"uint256","name":"","type":"uint256"}],"stateMutability":"view","type":"function"},{"inputs":[{"internalType":"uint256","name":"","type":"uint256"}],"name":"soybeans","outputs":[{"internalType":"uint256","name":"id","type":"uint256"},{"internalType":"address payable","name":"farmer","type":"address"},{"internalType":"address payable","name":"processor","type":"address"},{"internalType":"address payable","name":"distributor","type":"address"},{"internalType":"address","name":"retailer","type":"address"},{"internalType":"address","name":"consumer","type":"address"},{"internalType":"uint256","name":"quantity","type":"uint256"},{"internalType":"string","name":"product","type":"string"},{"internalType":"enum SoybeanSupplyChain.State","name":"state","type":"uint8"}],"stateMutability":"view","type":"function"}],"evm":{"bytecode":{"linkReferences":{},"object":"60806040523480156200001157600080fd5b506200002e67e9a0b053c97c502160c01b6200003460201b60201c565b62000037565b50565b6144f180620000476000396000f3fe6080604052600436106101095760003560e01c80639937464211610095578063b93f9b0a11610064578063b93f9b0a1461035f578063bed85ead1461039c578063d3a2ab10146103b8578063eef142ac146103e1578063f851a4401461040c57610109565b8063993746421461029857806399930620146102d55780639c1e501c146102fe5780639fdde2301461034357610109565b80634770d7af116100dc5780634770d7af146101ac5780635cf3d346146101d75780635fd4b08a14610214578063888b626d146102515780639516a1041461026d57610109565b806305a76a551461010e57806315ba42ca1461012a57806338eada1c14610146578063442767331461016f575b600080fd5b61012860048036038101906101239190612fa9565b610437565b005b610144600480360381019061013f9190612fa9565b6108f0565b005b34801561015257600080fd5b5061016d60048036038101906101689190613047565b610c9b565b005b34801561017b57600080fd5b5061019660048036038101906101919190613047565b610d3d565b6040516101a39190613104565b60405180910390f35b3480156101b857600080fd5b506101c1610e4a565b6040516101ce9190613135565b60405180910390f35b3480156101e357600080fd5b506101fe60048036038101906101f99190613047565b610e50565b60405161020b9190613104565b60405180910390f35b34801561022057600080fd5b5061023b60048036038101906102369190613047565b610ef0565b6040516102489190613104565b60405180910390f35b61026b600480360381019061026691906132c3565b610ffd565b005b34801561027957600080fd5b506102826114ab565b60405161028f91906133f0565b60405180910390f35b3480156102a457600080fd5b506102bf60048036038101906102ba9190613047565b611575565b6040516102cc9190613104565b60405180910390f35b3480156102e157600080fd5b506102fc60048036038101906102f79190613412565b611615565b005b34801561030a57600080fd5b5061032560048036038101906103209190613412565b611b85565b60405161033a999897969594939291906134d4565b60405180910390f35b61035d60048036038101906103589190612fa9565b611d08565b005b34801561036b57600080fd5b5061038660048036038101906103819190613412565b6120b3565b6040516103939190613568565b60405180910390f35b6103b660048036038101906103b19190613412565b6121ce565b005b3480156103c457600080fd5b506103df60048036038101906103da9190613583565b612782565b005b3480156103ed57600080fd5b506103f66128e8565b6040516104039190613956565b60405180910390f35b34801561041857600080fd5b50610421612d71565b60405161042e9190613568565b60405180910390f35b61044b6753422a9181cc20a160c01b612d95565b61045f672517b07a1f673f7660c01b612d95565b61047367d4c1d29a220dc36f60c01b612d95565b6104876754d8535f29023d9a60c01b612d95565b61049b6759ea7c630bd02a8b60c01b612d95565b6040516020016104aa906139cf565b60405160208183030381529060405280519060200120600360003373ffffffffffffffffffffffffffffffffffffffff1673ffffffffffffffffffffffffffffffffffffffff16815260200190815260200160002060405160200161050f9190613adc565b6040516020818303038152906040528051906020012014610565576040517f08c379a000000000000000000000000000000000000000000000000000000000815260040161055c90613b65565b60405180910390fd5b6105796704048231f65e9b2c60c01b612d95565b61058d6755445d503ee50c1b60c01b612d95565b6105a1672b27651bcbeb573860c01b612d95565b6105b5675a90d6344616bebf60c01b612d95565b6105c967f1cd609e4ea68ca960c01b612d95565b6105dd671c6250f7a5b0f5c560c01b612d95565b6105f167cbb94a95802c44d160c01b612d95565b600360058111156106055761060461345d565b5b60026000848152602001908152602001600020600b0160009054906101000a900460ff16600581111561063b5761063a61345d565b5b1461067b576040517f08c379a000000000000000000000000000000000000000000000000000000000815260040161067290613bd1565b60405180910390fd5b61068f67032d24e632e1524260c01b612d95565b6106a3676db50b95fe3851fb60c01b612d95565b336002600084815260200190815260200160002060030160006101000a81548173ffffffffffffffffffffffffffffffffffffffff021916908373ffffffffffffffffffffffffffffffffffffffff16021790555061070c672155553e610a3e3a60c01b612d95565b806002600084815260200190815260200160002060070160026003811061073657610735613bf1565b5b018190555061074f67320ef841e01b692460c01b612d95565b610763679e2dba0f4837a0c160c01b612d95565b6002600083815260200190815260200160002060020160009054906101000a900473ffffffffffffffffffffffffffffffffffffffff1673ffffffffffffffffffffffffffffffffffffffff166108fc349081150290604051600060405180830381858888f193505050501580156107df573d6000803e3d6000fd5b506107f46702df739549fb471d60c01b612d95565b600460026000848152602001908152602001600020600b0160006101000a81548160ff0219169083600581111561082e5761082d61345d565b5b021790555061084767b33fd4c33e72a20660c01b612d95565b4260026000848152602001908152602001600020600c0160046006811061087157610870613bf1565b5b018190555061088a67cb4bb69f7f66eebe60c01b612d95565b61089e67421f14a5d1c2655c60c01b612d95565b3373ffffffffffffffffffffffffffffffffffffffff167fbdeee1f1fbccb405bb11b23aab22fce5084b092d5edb2c16a71dda656df59e87836040516108e49190613135565b60405180910390a25050565b61090467420d0460d6e32ac660c01b612d95565b61091867d3f75c6e0e195d8b60c01b612d95565b61092c676f5162b77689ac8760c01b612d95565b61094067ae01a1a9300f7edd60c01b612d95565b61095467d60cf597e50088c060c01b612d95565b60405160200161096390613c6c565b60405160208183030381529060405280519060200120600360003373ffffffffffffffffffffffffffffffffffffffff1673ffffffffffffffffffffffffffffffffffffffff1681526020019081526020016000206040516020016109c89190613adc565b6040516020818303038152906040528051906020012014610a1e576040517f08c379a0000000000000000000000000000000000000000000000000000000008152600401610a1590613ccd565b60405180910390fd5b610a326721e014a828fb39b860c01b612d95565b610a46676e0e043b0b08fae360c01b612d95565b610a5a671d963723bbfab3d960c01b612d95565b610a6e67f77c34410d77447260c01b612d95565b610a8267ea9371d6b76d6cd960c01b612d95565b610a966727e0dac40b05c4d860c01b612d95565b610aaa67ab467123fa369e4e60c01b612d95565b60006005811115610abe57610abd61345d565b5b60026000848152602001908152602001600020600b0160009054906101000a900460ff166005811115610af457610af361345d565b5b14610b34576040517f08c379a0000000000000000000000000000000000000000000000000000000008152600401610b2b90613d39565b60405180910390fd5b610b48670ec78fecc260b0a360c01b612d95565b610b5c677ee72330ceccab0f60c01b612d95565b600160026000848152602001908152602001600020600b0160006101000a81548160ff02191690836005811115610b9657610b9561345d565b5b0217905550610baf679b47edf1bfd4340c60c01b612d95565b8060026000848152602001908152602001600020600701600060038110610bd957610bd8613bf1565b5b0181905550610bf267bef288bc69c9919060c01b612d95565b4260026000848152602001908152602001600020600c01600160068110610c1c57610c1b613bf1565b5b0181905550610c3567a22e619d88265f2960c01b612d95565b610c49676cc363acb6eb0c5760c01b612d95565b3373ffffffffffffffffffffffffffffffffffffffff167f801ffc6837367a06890ec387f235b8ed31cdc72d39eb94be7424abeac4191bc883604051610c8f9190613135565b60405180910390a25050565b610caf67991074d1342b982060c01b612d95565b610cc3673e7f5d28a9df698960c01b612d95565b610cd7672bc6323ba690d61760c01b612d95565b6005819080600181540180825580915050600190039060005260206000200160009091909190916101000a81548173ffffffffffffffffffffffffffffffffffffffff021916908373ffffffffffffffffffffffffffffffffffffffff16021790555050565b6060610d53670d97f36b482fce7860c01b612d95565b610d6767db0a74ff691589c160c01b612d95565b610d7b672dad4296f045cbc560c01b612d95565b600360008373ffffffffffffffffffffffffffffffffffffffff1673ffffffffffffffffffffffffffffffffffffffff1681526020019081526020016000208054610dc590613a13565b80601f0160208091040260200160405190810160405280929190818152602001828054610df190613a13565b8015610e3e5780601f10610e1357610100808354040283529160200191610e3e565b820191906000526020600020905b815481529060010190602001808311610e2157829003601f168201915b50505050509050919050565b60015481565b60046020528060005260406000206000915090508054610e6f90613a13565b80601f0160208091040260200160405190810160405280929190818152602001828054610e9b90613a13565b8015610ee85780601f10610ebd57610100808354040283529160200191610ee8565b820191906000526020600020905b815481529060010190602001808311610ecb57829003601f168201915b505050505081565b6060610f0667297551a92af9e89d60c01b612d95565b610f1a6759b0909e952511f860c01b612d95565b610f2e67d6143c3192abb76860c01b612d95565b600460008373ffffffffffffffffffffffffffffffffffffffff1673ffffffffffffffffffffffffffffffffffffffff1681526020019081526020016000208054610f7890613a13565b80601f0160208091040260200160405190810160405280929190818152602001828054610fa490613a13565b8015610ff15780601f10610fc657610100808354040283529160200191610ff1565b820191906000526020600020905b815481529060010190602001808311610fd457829003601f168201915b50505050509050919050565b6110116720e20dd2ed149d0e60c01b612d95565b6110256753f2735d6e23a93760c01b612d95565b61103967026742436b5da63660c01b612d95565b61104d679e10b93b9b00a99e60c01b612d95565b61106167b7e202dee4aba48e60c01b612d95565b60405160200161107090613da5565b60405160208183030381529060405280519060200120600360003373ffffffffffffffffffffffffffffffffffffffff1673ffffffffffffffffffffffffffffffffffffffff1681526020019081526020016000206040516020016110d59190613adc565b604051602081830303815290604052805190602001201461112b576040517f08c379a000000000000000000000000000000000000000000000000000000000815260040161112290613e2c565b60405180910390fd5b61113f6721d42a64f025b5d260c01b612d95565b61115367f32d558b33a9096760c01b612d95565b61116767d3a59cd3977852fe60c01b612d95565b61117b67f84a83335134cb2d60c01b612d95565b61118f6722e15575b057a47a60c01b612d95565b6111a367f27713b793fe035e60c01b612d95565b6111b76789ebe50ba621aa2560c01b612d95565b600160058111156111cb576111ca61345d565b5b60026000858152602001908152602001600020600b0160009054906101000a900460ff1660058111156112015761120061345d565b5b14611241576040517f08c379a000000000000000000000000000000000000000000000000000000000815260040161123890613ebe565b60405180910390fd5b611255678085a1c999da047e60c01b612d95565b611269671e06ca3cb3c5909f60c01b612d95565b816002600085815260200190815260200160002060020160006101000a81548173ffffffffffffffffffffffffffffffffffffffff021916908373ffffffffffffffffffffffffffffffffffffffff1602179055506112d2671d72a30c87ced1db60c01b612d95565b6002806000858152602001908152602001600020600b0160006101000a81548160ff0219169083600581111561130b5761130a61345d565b5b02179055506113246743be15cdd1fcb8fd60c01b612d95565b8060026000858152602001908152602001600020600a0190816113479190614075565b5061135c676d81f694556c5de760c01b612d95565b611370677f66a7c051e39a1b60c01b612d95565b6002600084815260200190815260200160002060010160009054906101000a900473ffffffffffffffffffffffffffffffffffffffff1673ffffffffffffffffffffffffffffffffffffffff166108fc349081150290604051600060405180830381858888f193505050501580156113ec573d6000803e3d6000fd5b5061140167b8a3e7755611810260c01b612d95565b4260026000858152602001908152602001600020600c0160026006811061142b5761142a613bf1565b5b018190555061144467d0c835f71378835660c01b612d95565b6114586780328d84c5d9077e60c01b612d95565b8173ffffffffffffffffffffffffffffffffffffffff167f14cc943c2064293b374b4fa45a792ab03feab6d8c06b398296b52a76299166248460405161149e9190613135565b60405180910390a2505050565b60606114c167ff8dc20adf267ae860c01b612d95565b6114d5670586fdaa11afaed860c01b612d95565b6114e967ee99a91363109c3c60c01b612d95565b600580548060200260200160405190810160405280929190818152602001828054801561156b57602002820191906000526020600020905b8160009054906101000a900473ffffffffffffffffffffffffffffffffffffffff1673ffffffffffffffffffffffffffffffffffffffff1681526020019060010190808311611521575b5050505050905090565b6003602052806000526040600020600091509050805461159490613a13565b80601f01602080910402602001604051908101604052809291908181526020018280546115c090613a13565b801561160d5780601f106115e25761010080835404028352916020019161160d565b820191906000526020600020905b8154815290600101906020018083116115f057829003601f168201915b505050505081565b611629677a6373015a9ff47d60c01b612d95565b61163d67d3f75c6e0e195d8b60c01b612d95565b611651676f5162b77689ac8760c01b612d95565b61166567ae01a1a9300f7edd60c01b612d95565b61167967d60cf597e50088c060c01b612d95565b60405160200161168890613c6c565b60405160208183030381529060405280519060200120600360003373ffffffffffffffffffffffffffffffffffffffff1673ffffffffffffffffffffffffffffffffffffffff1681526020019081526020016000206040516020016116ed9190613adc565b6040516020818303038152906040528051906020012014611743576040517f08c379a000000000000000000000000000000000000000000000000000000000815260040161173a90613ccd565b60405180910390fd5b6117576721e014a828fb39b860c01b612d95565b61176b676e0e043b0b08fae360c01b612d95565b61177f670628e9e6ffbadbfb60c01b612d95565b611793675424f418d912a2d460c01b612d95565b6117a76786efc397eddcd44860c01b612d95565b600160008154809291906117ba90614176565b91905055506117d36741f39bb189c145b060c01b612d95565b60405180610160016040528060015481526020013373ffffffffffffffffffffffffffffffffffffffff168152602001600073ffffffffffffffffffffffffffffffffffffffff168152602001600073ffffffffffffffffffffffffffffffffffffffff168152602001600073ffffffffffffffffffffffffffffffffffffffff168152602001600073ffffffffffffffffffffffffffffffffffffffff16815260200182815260200160405180606001604052804281526020016000815260200160008152508152602001604051806020016040528060008152508152602001600060058111156118c8576118c761345d565b5b81526020016040518060c001604052804281526020016000815260200160008152602001600081526020016000815260200160008152508152506002600060015481526020019081526020016000206000820151816000015560208201518160010160006101000a81548173ffffffffffffffffffffffffffffffffffffffff021916908373ffffffffffffffffffffffffffffffffffffffff16021790555060408201518160020160006101000a81548173ffffffffffffffffffffffffffffffffffffffff021916908373ffffffffffffffffffffffffffffffffffffffff16021790555060608201518160030160006101000a81548173ffffffffffffffffffffffffffffffffffffffff021916908373ffffffffffffffffffffffffffffffffffffffff16021790555060808201518160040160006101000a81548173ffffffffffffffffffffffffffffffffffffffff021916908373ffffffffffffffffffffffffffffffffffffffff16021790555060a08201518160050160006101000a81548173ffffffffffffffffffffffffffffffffffffffff021916908373ffffffffffffffffffffffffffffffffffffffff16021790555060c0820151816006015560e082015181600701906003611aa5929190612d98565b5061010082015181600a019081611abc9190614075565b5061012082015181600b0160006101000a81548160ff02191690836005811115611ae957611ae861345d565b5b021790555061014082015181600c01906006611b06929190612dd8565b50905050611b1e673d7ad12283ef461960c01b612d95565b611b3267be5387c12ce844f660c01b612d95565b3373ffffffffffffffffffffffffffffffffffffffff167f586abcf7dbfbb5987208ae52757e459ec686b28c6b758884c4ba3db92ecaa350600154604051611b7a9190613135565b60405180910390a250565b60026020528060005260406000206000915090508060000154908060010160009054906101000a900473ffffffffffffffffffffffffffffffffffffffff16908060020160009054906101000a900473ffffffffffffffffffffffffffffffffffffffff16908060030160009054906101000a900473ffffffffffffffffffffffffffffffffffffffff16908060040160009054906101000a900473ffffffffffffffffffffffffffffffffffffffff16908060050160009054906101000a900473ffffffffffffffffffffffffffffffffffffffff169080600601549080600a018054611c7290613a13565b80601f0160208091040260200160405190810160405280929190818152602001828054611c9e90613a13565b8015611ceb5780601f10611cc057610100808354040283529160200191611ceb565b820191906000526020600020905b815481529060010190602001808311611cce57829003601f168201915b50505050509080600b0160009054906101000a900460ff16905089565b611d1c67d1b40580bf0bee5960c01b612d95565b611d306753f2735d6e23a93760c01b612d95565b611d4467026742436b5da63660c01b612d95565b611d58679e10b93b9b00a99e60c01b612d95565b611d6c67b7e202dee4aba48e60c01b612d95565b604051602001611d7b90613da5565b60405160208183030381529060405280519060200120600360003373ffffffffffffffffffffffffffffffffffffffff1673ffffffffffffffffffffffffffffffffffffffff168152602001908152602001600020604051602001611de09190613adc565b6040516020818303038152906040528051906020012014611e36576040517f08c379a0000000000000000000000000000000000000000000000000000000008152600401611e2d90613e2c565b60405180910390fd5b611e4a6721d42a64f025b5d260c01b612d95565b611e5e67f32d558b33a9096760c01b612d95565b611e72670f09971774d0d92560c01b612d95565b611e8667497c7b8a74a3d93a60c01b612d95565b611e9a67ead455e0c2b07e2760c01b612d95565b611eae671440eae2ebffcc2160c01b612d95565b611ec2673c53f3b63acc223860c01b612d95565b60026005811115611ed657611ed561345d565b5b60026000848152602001908152602001600020600b0160009054906101000a900460ff166005811115611f0c57611f0b61345d565b5b14611f4c576040517f08c379a0000000000000000000000000000000000000000000000000000000008152600401611f4390614230565b60405180910390fd5b611f60670d71170d107c7ac860c01b612d95565b611f7467a4249150961e21f960c01b612d95565b600360026000848152602001908152602001600020600b0160006101000a81548160ff02191690836005811115611fae57611fad61345d565b5b0217905550611fc767fd9e81c3297ecf7160c01b612d95565b8060026000848152602001908152602001600020600701600160038110611ff157611ff0613bf1565b5b018190555061200a67906a9a2151598c0560c01b612d95565b4260026000848152602001908152602001600020600c0160036006811061203457612033613bf1565b5b018190555061204d67934584ab37c59b9260c01b612d95565b612061674818637f352d01a260c01b612d95565b3373ffffffffffffffffffffffffffffffffffffffff167fbe1568abc3183a5a97c7569bcba82cfe15c75fd66c0aa496a9af61d0e3d81050836040516120a79190613135565b60405180910390a25050565b60006120c96794830a13c437d4cc60c01b612d95565b6120dd676f537882220b5f0b60c01b612d95565b6120f16719430eacb5e34efe60c01b612d95565b612105679b55a78aedb4f98760c01b612d95565b600580549050821061214c576040517f08c379a00000000000000000000000000000000000000000000000000000000081526004016121439061429c565b60405180910390fd5b61216067676bd501f99c6d3b60c01b612d95565b612174676bc088a265183ac360c01b612d95565b61218867ad8a393a4bc9ca7c60c01b612d95565b6005828154811061219c5761219b613bf1565b5b9060005260206000200160009054906101000a900473ffffffffffffffffffffffffffffffffffffffff169050919050565b6121e267c9df20fd40ccb19360c01b612d95565b6121f6679100237d386d60d360c01b612d95565b61220a67b2e352d97b1a17d360c01b612d95565b61221e67d0fa717024528e2260c01b612d95565b61223267f2ced0171a119f2560c01b612d95565b60405160200161224190614308565b60405160208183030381529060405280519060200120600360003373ffffffffffffffffffffffffffffffffffffffff1673ffffffffffffffffffffffffffffffffffffffff1681526020019081526020016000206040516020016122a69190613adc565b60405160208183030381529060405280519060200120146122fc576040517f08c379a00000000000000000000000000000000000000000000000000000000081526004016122f39061438f565b60405180910390fd5b6123106744a21808fa999dae60c01b612d95565b6123246751512f8d9fca3acf60c01b612d95565b61233867e80543560db5922e60c01b612d95565b61234c679b9410aac83a31e760c01b612d95565b61236067016d0541ff3dc60060c01b612d95565b61237467dbed367293fe629660c01b612d95565b61238867ece5d2007b6eb09c60c01b612d95565b6004600581111561239c5761239b61345d565b5b60026000838152602001908152602001600020600b0160009054906101000a900460ff1660058111156123d2576123d161345d565b5b14612412576040517f08c379a0000000000000000000000000000000000000000000000000000000008152600401612409906143fb565b60405180910390fd5b61242667d48130598b301b8e60c01b612d95565b61243a677683c4457de932ad60c01b612d95565b61244e67ccfc35c5edb71be360c01b612d95565b6124626745a71afa733e364d60c01b612d95565b6002600082815260200190815260200160002060070160026003811061248b5761248a613bf1565b5b015434146124ce576040517f08c379a00000000000000000000000000000000000000000000000000000000081526004016124c590614467565b60405180910390fd5b6124e2678a51e27a4d0fdecb60c01b612d95565b6124f66758fcf478eb1bd18260c01b612d95565b336002600083815260200190815260200160002060040160006101000a81548173ffffffffffffffffffffffffffffffffffffffff021916908373ffffffffffffffffffffffffffffffffffffffff16021790555061255f679f62eb5d41f8883360c01b612d95565b612573673f4200f1578138fb60c01b612d95565b6002600082815260200190815260200160002060030160009054906101000a900473ffffffffffffffffffffffffffffffffffffffff1673ffffffffffffffffffffffffffffffffffffffff166108fc349081150290604051600060405180830381858888f193505050501580156125ef573d6000803e3d6000fd5b5061260467805dee6bbf7f3db760c01b612d95565b600560026000838152602001908152602001600020600b0160006101000a81548160ff0219169083600581111561263e5761263d61345d565b5b0217905550612657678870785b1feac87160c01b612d95565b4260026000838152602001908152602001600020600c0160056006811061268157612680613bf1565b5b018190555061269a6757fed87d7416c10060c01b612d95565b6126ae67be045055dc0f01fb60c01b612d95565b6002600082815260200190815260200160002060050160009054906101000a900473ffffffffffffffffffffffffffffffffffffffff1673ffffffffffffffffffffffffffffffffffffffff166002600083815260200190815260200160002060040160009054906101000a900473ffffffffffffffffffffffffffffffffffffffff1673ffffffffffffffffffffffffffffffffffffffff167ff3ecb4dab83f41da3035ff9cb3a2ef0c3027ebb89ae4e4b822d7c109e869a2fc836040516127779190613135565b60405180910390a350565b61279667100aa198179791a660c01b612d95565b6127aa67591b6449218ebcbd60c01b612d95565b81600360008573ffffffffffffffffffffffffffffffffffffffff1673ffffffffffffffffffffffffffffffffffffffff16815260200190815260200160002090816127f69190614075565b5061280b67833e79341374c5d460c01b612d95565b80600460008573ffffffffffffffffffffffffffffffffffffffff1673ffffffffffffffffffffffffffffffffffffffff16815260200190815260200160002090816128579190614075565b5061286c676a2d796e8cd7ea0b60c01b612d95565b61288067c69da43fd5b6238f60c01b612d95565b6005839080600181540180825580915050600190039060005260206000200160009091909190916101000a81548173ffffffffffffffffffffffffffffffffffffffff021916908373ffffffffffffffffffffffffffffffffffffffff160217905550505050565b60606128fe6753b2446b1c08da1860c01b612d95565b61291267ccbdb00df31f3eb160c01b612d95565b6129266782622782bde8d78860c01b612d95565b600060015467ffffffffffffffff81111561294457612943613198565b5b60405190808252806020026020018201604052801561297d57816020015b61296a612e18565b8152602001906001900390816129625790505b50905061299467ca05e503344f138260c01b612d95565b6129a867326102e171c7b60a60c01b612d95565b6000600190505b6001548111612d41576129cc67e6327bb83799f15760c01b612d95565b6002600082815260200190815260200160002060405180610160016040529081600082015481526020016001820160009054906101000a900473ffffffffffffffffffffffffffffffffffffffff1673ffffffffffffffffffffffffffffffffffffffff1673ffffffffffffffffffffffffffffffffffffffff1681526020016002820160009054906101000a900473ffffffffffffffffffffffffffffffffffffffff1673ffffffffffffffffffffffffffffffffffffffff1673ffffffffffffffffffffffffffffffffffffffff1681526020016003820160009054906101000a900473ffffffffffffffffffffffffffffffffffffffff1673ffffffffffffffffffffffffffffffffffffffff1673ffffffffffffffffffffffffffffffffffffffff1681526020016004820160009054906101000a900473ffffffffffffffffffffffffffffffffffffffff1673ffffffffffffffffffffffffffffffffffffffff1673ffffffffffffffffffffffffffffffffffffffff1681526020016005820160009054906101000a900473ffffffffffffffffffffffffffffffffffffffff1673ffffffffffffffffffffffffffffffffffffffff1673ffffffffffffffffffffffffffffffffffffffff1681526020016006820154815260200160078201600380602002604051908101604052809291908260038015612be9576020028201915b815481526020019060010190808311612bd5575b50505050508152602001600a82018054612c0290613a13565b80601f0160208091040260200160405190810160405280929190818152602001828054612c2e90613a13565b8015612c7b5780601f10612c5057610100808354040283529160200191612c7b565b820191906000526020600020905b815481529060010190602001808311612c5e57829003601f168201915b50505050508152602001600b820160009054906101000a900460ff166005811115612ca957612ca861345d565b5b6005811115612cbb57612cba61345d565b5b8152602001600c8201600680602002604051908101604052809291908260068015612cfb576020028201915b815481526020019060010190808311612ce7575b50505050508152505082600183612d129190614487565b81518110612d2357612d22613bf1565b5b60200260200101819052508080612d3990614176565b9150506129af565b50612d5667b0d8959f018bb61060c01b612d95565b612d6a67cd446fec1818072b60c01b612d95565b8091505090565b60008054906101000a900473ffffffffffffffffffffffffffffffffffffffff1681565b50565b8260038101928215612dc7579160200282015b82811115612dc6578251825591602001919060010190612dab565b5b509050612dd49190612efe565b5090565b8260068101928215612e07579160200282015b82811115612e06578251825591602001919060010190612deb565b5b509050612e149190612efe565b5090565b60405180610160016040528060008152602001600073ffffffffffffffffffffffffffffffffffffffff168152602001600073ffffffffffffffffffffffffffffffffffffffff168152602001600073ffffffffffffffffffffffffffffffffffffffff168152602001600073ffffffffffffffffffffffffffffffffffffffff168152602001600073ffffffffffffffffffffffffffffffffffffffff16815260200160008152602001612ecb612f1b565b81526020016060815260200160006005811115612eeb57612eea61345d565b5b8152602001612ef8612f3d565b81525090565b5b80821115612f17576000816000905550600101612eff565b5090565b6040518060600160405280600390602082028036833780820191505090505090565b6040518060c00160405280600690602082028036833780820191505090505090565b6000604051905090565b600080fd5b600080fd5b6000819050919050565b612f8681612f73565b8114612f9157600080fd5b50565b600081359050612fa381612f7d565b92915050565b60008060408385031215612fc057612fbf612f69565b5b6000612fce85828601612f94565b9250506020612fdf85828601612f94565b9150509250929050565b600073ffffffffffffffffffffffffffffffffffffffff82169050919050565b600061301482612fe9565b9050919050565b61302481613009565b811461302f57600080fd5b50565b6000813590506130418161301b565b92915050565b60006020828403121561305d5761305c612f69565b5b600061306b84828501613032565b91505092915050565b600081519050919050565b600082825260208201905092915050565b60005b838110156130ae578082015181840152602081019050613093565b60008484015250505050565b6000601f19601f8301169050919050565b60006130d682613074565b6130e0818561307f565b93506130f0818560208601613090565b6130f9816130ba565b840191505092915050565b6000602082019050818103600083015261311e81846130cb565b905092915050565b61312f81612f73565b82525050565b600060208201905061314a6000830184613126565b92915050565b600061315b82612fe9565b9050919050565b61316b81613150565b811461317657600080fd5b50565b60008135905061318881613162565b92915050565b600080fd5b600080fd5b7f4e487b7100000000000000000000000000000000000000000000000000000000600052604160045260246000fd5b6131d0826130ba565b810181811067ffffffffffffffff821117156131ef576131ee613198565b5b80604052505050565b6000613202612f5f565b905061320e82826131c7565b919050565b600067ffffffffffffffff82111561322e5761322d613198565b5b613237826130ba565b9050602081019050919050565b82818337600083830152505050565b600061326661326184613213565b6131f8565b90508281526020810184848401111561328257613281613193565b5b61328d848285613244565b509392505050565b600082601f8301126132aa576132a961318e565b5b81356132ba848260208601613253565b91505092915050565b6000806000606084860312156132dc576132db612f69565b5b60006132ea86828701612f94565b93505060206132fb86828701613179565b925050604084013567ffffffffffffffff81111561331c5761331b612f6e565b5b61332886828701613295565b9150509250925092565b600081519050919050565b600082825260208201905092915050565b6000819050602082019050919050565b61336781613009565b82525050565b6000613379838361335e565b60208301905092915050565b6000602082019050919050565b600061339d82613332565b6133a7818561333d565b93506133b28361334e565b8060005b838110156133e35781516133ca888261336d565b97506133d583613385565b9250506001810190506133b6565b5085935050505092915050565b6000602082019050818103600083015261340a8184613392565b905092915050565b60006020828403121561342857613427612f69565b5b600061343684828501612f94565b91505092915050565b61344881613150565b82525050565b61345781613009565b82525050565b7f4e487b7100000000000000000000000000000000000000000000000000000000600052602160045260246000fd5b6006811061349d5761349c61345d565b5b50565b60008190506134ae8261348c565b919050565b60006134be826134a0565b9050919050565b6134ce816134b3565b82525050565b6000610120820190506134ea600083018c613126565b6134f7602083018b61343f565b613504604083018a61343f565b613511606083018961343f565b61351e608083018861344e565b61352b60a083018761344e565b61353860c0830186613126565b81810360e083015261354a81856130cb565b905061355a6101008301846134c5565b9a9950505050505050505050565b600060208201905061357d600083018461344e565b92915050565b60008060006060848603121561359c5761359b612f69565b5b60006135aa86828701613032565b935050602084013567ffffffffffffffff8111156135cb576135ca612f6e565b5b6135d786828701613295565b925050604084013567ffffffffffffffff8111156135f8576135f7612f6e565b5b61360486828701613295565b9150509250925092565b600081519050919050565b600082825260208201905092915050565b6000819050602082019050919050565b61364381612f73565b82525050565b61365281613150565b82525050565b600060039050919050565b600081905092915050565b6000819050919050565b6000613684838361363a565b60208301905092915050565b6000602082019050919050565b6136a681613658565b6136b08184613663565b92506136bb8261366e565b8060005b838110156136ec5781516136d38782613678565b96506136de83613690565b9250506001810190506136bf565b505050505050565b600082825260208201905092915050565b600061371082613074565b61371a81856136f4565b935061372a818560208601613090565b613733816130ba565b840191505092915050565b613747816134b3565b82525050565b600060069050919050565b600081905092915050565b6000819050919050565b6000602082019050919050565b6137838161374d565b61378d8184613758565b925061379882613763565b8060005b838110156137c95781516137b08782613678565b96506137bb8361376d565b92505060018101905061379c565b505050505050565b6000610240830160008301516137ea600086018261363a565b5060208301516137fd6020860182613649565b5060408301516138106040860182613649565b5060608301516138236060860182613649565b506080830151613836608086018261335e565b5060a083015161384960a086018261335e565b5060c083015161385c60c086018261363a565b5060e083015161386f60e086018261369d565b506101008301518482036101408601526138898282613705565b9150506101208301516138a061016086018261373e565b506101408301516138b561018086018261377a565b508091505092915050565b60006138cc83836137d1565b905092915050565b6000602082019050919050565b60006138ec8261360e565b6138f68185613619565b9350836020820285016139088561362a565b8060005b85811015613944578484038952815161392585826138c0565b9450613930836138d4565b925060208a0199505060018101905061390c565b50829750879550505050505092915050565b6000602082019050818103600083015261397081846138e1565b905092915050565b600081905092915050565b7f4469737472696275746f72000000000000000000000000000000000000000000600082015250565b60006139b9600b83613978565b91506139c482613983565b600b82019050919050565b60006139da826139ac565b9150819050919050565b7f4e487b7100000000000000000000000000000000000000000000000000000000600052602260045260246000fd5b60006002820490506001821680613a2b57607f821691505b602082108103613a3e57613a3d6139e4565b5b50919050565b60008190508160005260206000209050919050565b60008154613a6681613a13565b613a708186613978565b94506001821660008114613a8b5760018114613aa057613ad3565b60ff1983168652811515820286019350613ad3565b613aa985613a44565b60005b83811015613acb57815481890152600182019150602081019050613aac565b838801955050505b50505092915050565b6000613ae88284613a59565b915081905092915050565b7f4f6e6c79206469737472696275746f722063616e2063616c6c2074686973206660008201527f756e6374696f6e2e000000000000000000000000000000000000000000000000602082015250565b6000613b4f60288361307f565b9150613b5a82613af3565b604082019050919050565b60006020820190508181036000830152613b7e81613b42565b9050919050565b7f536f796265616e73206d757374206265207061636b65642066697273742e0000600082015250565b6000613bbb601e8361307f565b9150613bc682613b85565b602082019050919050565b60006020820190508181036000830152613bea81613bae565b9050919050565b7f4e487b7100000000000000000000000000000000000000000000000000000000600052603260045260246000fd5b7f4661726d65720000000000000000000000000000000000000000000000000000600082015250565b6000613c56600683613978565b9150613c6182613c20565b600682019050919050565b6000613c7782613c49565b9150819050919050565b7f4f6e6c79206661726d6572732063616e20706c616e7420736f796265616e2e00600082015250565b6000613cb7601f8361307f565b9150613cc282613c81565b602082019050919050565b60006020820190508181036000830152613ce681613caa565b9050919050565b7f536f796265616e73206d75737420626520706c616e7465642066697273742e00600082015250565b6000613d23601f8361307f565b9150613d2e82613ced565b602082019050919050565b60006020820190508181036000830152613d5281613d16565b9050919050565b7f50726f636573736f720000000000000000000000000000000000000000000000600082015250565b6000613d8f600983613978565b9150613d9a82613d59565b600982019050919050565b6000613db082613d82565b9150819050919050565b7f4f6e6c792070726f636573736f722063616e2063616c6c20746869732066756e60008201527f6374696f6e2e0000000000000000000000000000000000000000000000000000602082015250565b6000613e1660268361307f565b9150613e2182613dba565b604082019050919050565b60006020820190508181036000830152613e4581613e09565b9050919050565b7f536f796265616e73206d7573742062652068617276657374656420666972737460008201527f2e00000000000000000000000000000000000000000000000000000000000000602082015250565b6000613ea860218361307f565b9150613eb382613e4c565b604082019050919050565b60006020820190508181036000830152613ed781613e9b565b9050919050565b60006020601f8301049050919050565b600082821b905092915050565b600060088302613f2b7fffffffffffffffffffffffffffffffffffffffffffffffffffffffffffffffff82613eee565b613f358683613eee565b95508019841693508086168417925050509392505050565b6000819050919050565b6000613f72613f6d613f6884612f73565b613f4d565b612f73565b9050919050565b6000819050919050565b613f8c83613f57565b613fa0613f9882613f79565b848454613efb565b825550505050565b600090565b613fb5613fa8565b613fc0818484613f83565b505050565b5b81811015613fe457613fd9600082613fad565b600181019050613fc6565b5050565b601f82111561402957613ffa81613a44565b61400384613ede565b81016020851015614012578190505b61402661401e85613ede565b830182613fc5565b50505b505050565b600082821c905092915050565b600061404c6000198460080261402e565b1980831691505092915050565b6000614065838361403b565b9150826002028217905092915050565b61407e82613074565b67ffffffffffffffff81111561409757614096613198565b5b6140a18254613a13565b6140ac828285613fe8565b600060209050601f8311600181146140df57600084156140cd578287015190505b6140d78582614059565b86555061413f565b601f1984166140ed86613a44565b60005b82811015614115578489015182556001820191506020850194506020810190506140f0565b86831015614132578489015161412e601f89168261403b565b8355505b6001600288020188555050505b505050505050565b7f4e487b7100000000000000000000000000000000000000000000000000000000600052601160045260246000fd5b600061418182612f73565b91507fffffffffffffffffffffffffffffffffffffffffffffffffffffffffffffffff82036141b3576141b2614147565b5b600182019050919050565b7f536f796265616e73206d7573742062652070726f63657373656420666972737460008201527f2e00000000000000000000000000000000000000000000000000000000000000602082015250565b600061421a60218361307f565b9150614225826141be565b604082019050919050565b600060208201905081810360008301526142498161420d565b9050919050565b7f496e646578206f7574206f662072616e67650000000000000000000000000000600082015250565b600061428660128361307f565b915061429182614250565b602082019050919050565b600060208201905081810360008301526142b581614279565b9050919050565b7f52657461696c6572000000000000000000000000000000000000000000000000600082015250565b60006142f2600883613978565b91506142fd826142bc565b600882019050919050565b6000614313826142e5565b9150819050919050565b7f4f6e6c792072657461696c65722063616e2063616c6c20746869732066756e6360008201527f74696f6e2e000000000000000000000000000000000000000000000000000000602082015250565b600061437960258361307f565b91506143848261431d565b604082019050919050565b600060208201905081810360008301526143a88161436c565b9050919050565b7f536f796265616e73206d75737420626520666f722073616c652066697273742e600082015250565b60006143e560208361307f565b91506143f0826143af565b602082019050919050565b60006020820190508181036000830152614414816143d8565b9050919050565b7f496e636f72726563742070726963652e00000000000000000000000000000000600082015250565b600061445160108361307f565b915061445c8261441b565b602082019050919050565b6000602082019050818103600083015261448081614444565b9050919050565b600061449282612f73565b915061449d83612f73565b92508282039050818111156144b5576144b4614147565b5b9291505056fea2646970667358221220e02b536259d8f5b752a40ba0e929882892eecf80db272de1c1f56fd721e1255764736f6c63430008120033","opcodes":"PUSH1 0x80 PUSH1 0x40 MSTORE CALLVALUE DUP1 ISZERO PUSH3 0x11 JUMPI PUSH1 0x0 DUP1 REVERT JUMPDEST POP PUSH3 0x2E PUSH8 0xE9A0B053C97C5021 PUSH1 0xC0 SHL PUSH3 0x34 PUSH1 0x20 SHL PUSH1 0x20 SHR JUMP JUMPDEST PUSH3 0x37 JUMP JUMPDEST POP JUMP JUMPDEST PUSH2 0x44F1 DUP1 PUSH3 0x47 PUSH1 0x0 CODECOPY PUSH1 0x0 RETURN INVALID PUSH1 0x80 PUSH1 0x40 MSTORE PUSH1 0x4 CALLDATASIZE LT PUSH2 0x109 JUMPI PUSH1 0x0 CALLDATALOAD PUSH1 0xE0 SHR DUP1 PUSH4 0x99374642 GT PUSH2 0x95 JUMPI DUP1 PUSH4 0xB93F9B0A GT PUSH2 0x64 JUMPI DUP1 PUSH4 0xB93F9B0A EQ PUSH2 0x35F JUMPI DUP1 PUSH4 0xBED85EAD EQ PUSH2 0x39C JUMPI DUP1 PUSH4 0xD3A2AB10 EQ PUSH2 0x3B8 JUMPI DUP1 PUSH4 0xEEF142AC EQ PUSH2 0x3E1 JUMPI DUP1 PUSH4 0xF851A440 EQ PUSH2 0x40C JUMPI PUSH2 0x109 JUMP JUMPDEST DUP1 PUSH4 0x99374642 EQ PUSH2 0x298 JUMPI DUP1 PUSH4 0x99930620 EQ PUSH2 0x2D5 JUMPI DUP1 PUSH4 0x9C1E501C EQ PUSH2 0x2FE JUMPI DUP1 PUSH4 0x9FDDE230 EQ PUSH2 0x343 JUMPI PUSH2 0x109 JUMP JUMPDEST DUP1 PUSH4 0x4770D7AF GT PUSH2 0xDC JUMPI DUP1 PUSH4 0x4770D7AF EQ PUSH2 0x1AC JUMPI DUP1 PUSH4 0x5CF3D346 EQ PUSH2 0x1D7 JUMPI DUP1 PUSH4 0x5FD4B08A EQ PUSH2 0x214 JUMPI DUP1 PUSH4 0x888B626D EQ PUSH2 0x251 JUMPI DUP1 PUSH4 0x9516A104 EQ PUSH2 0x26D JUMPI PUSH2 0x109 JUMP JUMPDEST DUP1 PUSH4 0x5A76A55 EQ PUSH2 0x10E JUMPI DUP1 PUSH4 0x15BA42CA EQ PUSH2 0x12A JUMPI DUP1 PUSH4 0x38EADA1C EQ PUSH2 0x146 JUMPI DUP1 PUSH4 0x44276733 EQ PUSH2 0x16F JUMPI JUMPDEST PUSH1 0x0 DUP1 REVERT JUMPDEST PUSH2 0x128 PUSH1 0x4 DUP1 CALLDATASIZE SUB DUP2 ADD SWAP1 PUSH2 0x123 SWAP2 SWAP1 PUSH2 0x2FA9 JUMP JUMPDEST PUSH2 0x437 JUMP JUMPDEST STOP JUMPDEST PUSH2 0x144 PUSH1 0x4 DUP1 CALLDATASIZE SUB DUP2 ADD SWAP1 PUSH2 0x13F SWAP2 SWAP1 PUSH2 0x2FA9 JUMP JUMPDEST PUSH2 0x8F0 JUMP JUMPDEST STOP JUMPDEST CALLVALUE DUP1 ISZERO PUSH2 0x152 JUMPI PUSH1 0x0 DUP1 REVERT JUMPDEST POP PUSH2 0x16D PUSH1 0x4 DUP1 CALLDATASIZE SUB DUP2 ADD SWAP1 PUSH2 0x168 SWAP2 SWAP1 PUSH2 0x3047 JUMP JUMPDEST PUSH2 0xC9B JUMP JUMPDEST STOP JUMPDEST CALLVALUE DUP1 ISZERO PUSH2 0x17B JUMPI PUSH1 0x0 DUP1 REVERT JUMPDEST POP PUSH2 0x196 PUSH1 0x4 DUP1 CALLDATASIZE SUB DUP2 ADD SWAP1 PUSH2 0x191 SWAP2 SWAP1 PUSH2 0x3047 JUMP JUMPDEST PUSH2 0xD3D JUMP JUMPDEST PUSH1 0x40 MLOAD PUSH2 0x1A3 SWAP2 SWAP1 PUSH2 0x3104 JUMP JUMPDEST PUSH1 0x40 MLOAD DUP1 SWAP2 SUB SWAP1 RETURN JUMPDEST CALLVALUE DUP1 ISZERO PUSH2 0x1B8 JUMPI PUSH1 0x0 DUP1 REVERT JUMPDEST POP PUSH2 0x1C1 PUSH2 0xE4A JUMP JUMPDEST PUSH1 0x40 MLOAD PUSH2 0x1CE SWAP2 SWAP1 PUSH2 0x3135 JUMP JUMPDEST PUSH1 0x40 MLOAD DUP1 SWAP2 SUB SWAP1 RETURN JUMPDEST CALLVALUE DUP1 ISZERO PUSH2 0x1E3 JUMPI PUSH1 0x0 DUP1 REVERT JUMPDEST POP PUSH2 0x1FE PUSH1 0x4 DUP1 CALLDATASIZE SUB DUP2 ADD SWAP1 PUSH2 0x1F9 SWAP2 SWAP1 PUSH2 0x3047 JUMP JUMPDEST PUSH2 0xE50 JUMP JUMPDEST PUSH1 0x40 MLOAD PUSH2 0x20B SWAP2 SWAP1 PUSH2 0x3104 JUMP JUMPDEST PUSH1 0x40 MLOAD DUP1 SWAP2 SUB SWAP1 RETURN JUMPDEST CALLVALUE DUP1 ISZERO PUSH2 0x220 JUMPI PUSH1 0x0 DUP1 REVERT JUMPDEST POP PUSH2 0x23B PUSH1 0x4 DUP1 CALLDATASIZE SUB DUP2 ADD SWAP1 PUSH2 0x236 SWAP2 SWAP1 PUSH2 0x3047 JUMP JUMPDEST PUSH2 0xEF0 JUMP JUMPDEST PUSH1 0x40 MLOAD PUSH2 0x248 SWAP2 SWAP1 PUSH2 0x3104 JUMP JUMPDEST PUSH1 0x40 MLOAD DUP1 SWAP2 SUB SWAP1 RETURN JUMPDEST PUSH2 0x26B PUSH1 0x4 DUP1 CALLDATASIZE SUB DUP2 ADD SWAP1 PUSH2 0x266 SWAP2 SWAP1 PUSH2 0x32C3 JUMP JUMPDEST PUSH2 0xFFD JUMP JUMPDEST STOP JUMPDEST CALLVALUE DUP1 ISZERO PUSH2 0x279 JUMPI PUSH1 0x0 DUP1 REVERT JUMPDEST POP PUSH2 0x282 PUSH2 0x14AB JUMP JUMPDEST PUSH1 0x40 MLOAD PUSH2 0x28F SWAP2 SWAP1 PUSH2 0x33F0 JUMP JUMPDEST PUSH1 0x40 MLOAD DUP1 SWAP2 SUB SWAP1 RETURN JUMPDEST CALLVALUE DUP1 ISZERO PUSH2 0x2A4 JUMPI PUSH1 0x0 DUP1 REVERT JUMPDEST POP PUSH2 0x2BF PUSH1 0x4 DUP1 CALLDATASIZE SUB DUP2 ADD SWAP1 PUSH2 0x2BA SWAP2 SWAP1 PUSH2 0x3047 JUMP JUMPDEST PUSH2 0x1575 JUMP JUMPDEST PUSH1 0x40 MLOAD PUSH2 0x2CC SWAP2 SWAP1 PUSH2 0x3104 JUMP JUMPDEST PUSH1 0x40 MLOAD DUP1 SWAP2 SUB SWAP1 RETURN JUMPDEST CALLVALUE DUP1 ISZERO PUSH2 0x2E1 JUMPI PUSH1 0x0 DUP1 REVERT JUMPDEST POP PUSH2 0x2FC PUSH1 0x4 DUP1 CALLDATASIZE SUB DUP2 ADD SWAP1 PUSH2 0x2F7 SWAP2 SWAP1 PUSH2 0x3412 JUMP JUMPDEST PUSH2 0x1615 JUMP JUMPDEST STOP JUMPDEST CALLVALUE DUP1 ISZERO PUSH2 0x30A JUMPI PUSH1 0x0 DUP1 REVERT JUMPDEST POP PUSH2 0x325 PUSH1 0x4 DUP1 CALLDATASIZE SUB DUP2 ADD SWAP1 PUSH2 0x320 SWAP2 SWAP1 PUSH2 0x3412 JUMP JUMPDEST PUSH2 0x1B85 JUMP JUMPDEST PUSH1 0x40 MLOAD PUSH2 0x33A SWAP10 SWAP9 SWAP8 SWAP7 SWAP6 SWAP5 SWAP4 SWAP3 SWAP2 SWAP1 PUSH2 0x34D4 JUMP JUMPDEST PUSH1 0x40 MLOAD DUP1 SWAP2 SUB SWAP1 RETURN JUMPDEST PUSH2 0x35D PUSH1 0x4 DUP1 CALLDATASIZE SUB DUP2 ADD SWAP1 PUSH2 0x358 SWAP2 SWAP1 PUSH2 0x2FA9 JUMP JUMPDEST PUSH2 0x1D08 JUMP JUMPDEST STOP JUMPDEST CALLVALUE DUP1 ISZERO PUSH2 0x36B JUMPI PUSH1 0x0 DUP1 REVERT JUMPDEST POP PUSH2 0x386 PUSH1 0x4 DUP1 CALLDATASIZE SUB DUP2 ADD SWAP1 PUSH2 0x381 SWAP2 SWAP1 PUSH2 0x3412 JUMP JUMPDEST PUSH2 0x20B3 JUMP JUMPDEST PUSH1 0x40 MLOAD PUSH2 0x393 SWAP2 SWAP1 PUSH2 0x3568 JUMP JUMPDEST PUSH1 0x40 MLOAD DUP1 SWAP2 SUB SWAP1 RETURN JUMPDEST PUSH2 0x3B6 PUSH1 0x4 DUP1 CALLDATASIZE SUB DUP2 ADD SWAP1 PUSH2 0x3B1 SWAP2 SWAP1 PUSH2 0x3412 JUMP JUMPDEST PUSH2 0x21CE JUMP JUMPDEST STOP JUMPDEST CALLVALUE DUP1 ISZERO PUSH2 0x3C4 JUMPI PUSH1 0x0 DUP1 REVERT JUMPDEST POP PUSH2 0x3DF PUSH1 0x4 DUP1 CALLDATASIZE SUB DUP2 ADD SWAP1 PUSH2 0x3DA SWAP2 SWAP1 PUSH2 0x3583 JUMP JUMPDEST PUSH2 0x2782 JUMP JUMPDEST STOP JUMPDEST CALLVALUE DUP1 ISZERO PUSH2 0x3ED JUMPI PUSH1 0x0 DUP1 REVERT JUMPDEST POP PUSH2 0x3F6 PUSH2 0x28E8 JUMP JUMPDEST PUSH1 0x40 MLOAD PUSH2 0x403 SWAP2 SWAP1 PUSH2 0x3956 JUMP JUMPDEST PUSH1 0x40 MLOAD DUP1 SWAP2 SUB SWAP1 RETURN JUMPDEST CALLVALUE DUP1 ISZERO PUSH2 0x418 JUMPI PUSH1 0x0 DUP1 REVERT JUMPDEST POP PUSH2 0x421 PUSH2 0x2D71 JUMP JUMPDEST PUSH1 0x40 MLOAD PUSH2 0x42E SWAP2 SWAP1 PUSH2 0x3568 JUMP JUMPDEST PUSH1 0x40 MLOAD DUP1 SWAP2 SUB SWAP1 RETURN JUMPDEST PUSH2 0x44B PUSH8 0x53422A9181CC20A1 PUSH1 0xC0 SHL PUSH2 0x2D95 JUMP JUMPDEST PUSH2 0x45F PUSH8 0x2517B07A1F673F76 PUSH1 0xC0 SHL PUSH2 0x2D95 JUMP JUMPDEST PUSH2 0x473 PUSH8 0xD4C1D29A220DC36F PUSH1 0xC0 SHL PUSH2 0x2D95 JUMP JUMPDEST PUSH2 0x487 PUSH8 0x54D8535F29023D9A PUSH1 0xC0 SHL PUSH2 0x2D95 JUMP JUMPDEST PUSH2 0x49B PUSH8 0x59EA7C630BD02A8B PUSH1 0xC0 SHL PUSH2 0x2D95 JUMP JUMPDEST PUSH1 0x40 MLOAD PUSH1 0x20 ADD PUSH2 0x4AA SWAP1 PUSH2 0x39CF JUMP JUMPDEST PUSH1 0x40 MLOAD PUSH1 0x20 DUP2 DUP4 SUB SUB DUP2 MSTORE SWAP1 PUSH1 0x40 MSTORE DUP1 MLOAD SWAP1 PUSH1 0x20 ADD KECCAK256 PUSH1 0x3 PUSH1 0x0 CALLER PUSH20 0xFFFFFFFFFFFFFFFFFFFFFFFFFFFFFFFFFFFFFFFF AND PUSH20 0xFFFFFFFFFFFFFFFFFFFFFFFFFFFFFFFFFFFFFFFF AND DUP2 MSTORE PUSH1 0x20 ADD SWAP1 DUP2 MSTORE PUSH1 0x20 ADD PUSH1 0x0 KECCAK256 PUSH1 0x40 MLOAD PUSH1 0x20 ADD PUSH2 0x50F SWAP2 SWAP1 PUSH2 0x3ADC JUMP JUMPDEST PUSH1 0x40 MLOAD PUSH1 0x20 DUP2 DUP4 SUB SUB DUP2 MSTORE SWAP1 PUSH1 0x40 MSTORE DUP1 MLOAD SWAP1 PUSH1 0x20 ADD KECCAK256 EQ PUSH2 0x565 JUMPI PUSH1 0x40 MLOAD PUSH32 0x8C379A000000000000000000000000000000000000000000000000000000000 DUP2 MSTORE PUSH1 0x4 ADD PUSH2 0x55C SWAP1 PUSH2 0x3B65 JUMP JUMPDEST PUSH1 0x40 MLOAD DUP1 SWAP2 SUB SWAP1 REVERT JUMPDEST PUSH2 0x579 PUSH8 0x4048231F65E9B2C PUSH1 0xC0 SHL PUSH2 0x2D95 JUMP JUMPDEST PUSH2 0x58D PUSH8 0x55445D503EE50C1B PUSH1 0xC0 SHL PUSH2 0x2D95 JUMP JUMPDEST PUSH2 0x5A1 PUSH8 0x2B27651BCBEB5738 PUSH1 0xC0 SHL PUSH2 0x2D95 JUMP JUMPDEST PUSH2 0x5B5 PUSH8 0x5A90D6344616BEBF PUSH1 0xC0 SHL PUSH2 0x2D95 JUMP JUMPDEST PUSH2 0x5C9 PUSH8 0xF1CD609E4EA68CA9 PUSH1 0xC0 SHL PUSH2 0x2D95 JUMP JUMPDEST PUSH2 0x5DD PUSH8 0x1C6250F7A5B0F5C5 PUSH1 0xC0 SHL PUSH2 0x2D95 JUMP JUMPDEST PUSH2 0x5F1 PUSH8 0xCBB94A95802C44D1 PUSH1 0xC0 SHL PUSH2 0x2D95 JUMP JUMPDEST PUSH1 0x3 PUSH1 0x5 DUP2 GT ISZERO PUSH2 0x605 JUMPI PUSH2 0x604 PUSH2 0x345D JUMP JUMPDEST JUMPDEST PUSH1 0x2 PUSH1 0x0 DUP5 DUP2 MSTORE PUSH1 0x20 ADD SWAP1 DUP2 MSTORE PUSH1 0x20 ADD PUSH1 0x0 KECCAK256 PUSH1 0xB ADD PUSH1 0x0 SWAP1 SLOAD SWAP1 PUSH2 0x100 EXP SWAP1 DIV PUSH1 0xFF AND PUSH1 0x5 DUP2 GT ISZERO PUSH2 0x63B JUMPI PUSH2 0x63A PUSH2 0x345D JUMP JUMPDEST JUMPDEST EQ PUSH2 0x67B JUMPI PUSH1 0x40 MLOAD PUSH32 0x8C379A000000000000000000000000000000000000000000000000000000000 DUP2 MSTORE PUSH1 0x4 ADD PUSH2 0x672 SWAP1 PUSH2 0x3BD1 JUMP JUMPDEST PUSH1 0x40 MLOAD DUP1 SWAP2 SUB SWAP1 REVERT JUMPDEST PUSH2 0x68F PUSH8 0x32D24E632E15242 PUSH1 0xC0 SHL PUSH2 0x2D95 JUMP JUMPDEST PUSH2 0x6A3 PUSH8 0x6DB50B95FE3851FB PUSH1 0xC0 SHL PUSH2 0x2D95 JUMP JUMPDEST CALLER PUSH1 0x2 PUSH1 0x0 DUP5 DUP2 MSTORE PUSH1 0x20 ADD SWAP1 DUP2 MSTORE PUSH1 0x20 ADD PUSH1 0x0 KECCAK256 PUSH1 0x3 ADD PUSH1 0x0 PUSH2 0x100 EXP DUP2 SLOAD DUP2 PUSH20 0xFFFFFFFFFFFFFFFFFFFFFFFFFFFFFFFFFFFFFFFF MUL NOT AND SWAP1 DUP4 PUSH20 0xFFFFFFFFFFFFFFFFFFFFFFFFFFFFFFFFFFFFFFFF AND MUL OR SWAP1 SSTORE POP PUSH2 0x70C PUSH8 0x2155553E610A3E3A PUSH1 0xC0 SHL PUSH2 0x2D95 JUMP JUMPDEST DUP1 PUSH1 0x2 PUSH1 0x0 DUP5 DUP2 MSTORE PUSH1 0x20 ADD SWAP1 DUP2 MSTORE PUSH1 0x20 ADD PUSH1 0x0 KECCAK256 PUSH1 0x7 ADD PUSH1 0x2 PUSH1 0x3 DUP2 LT PUSH2 0x736 JUMPI PUSH2 0x735 PUSH2 0x3BF1 JUMP JUMPDEST JUMPDEST ADD DUP2 SWAP1 SSTORE POP PUSH2 0x74F PUSH8 0x320EF841E01B6924 PUSH1 0xC0 SHL PUSH2 0x2D95 JUMP JUMPDEST PUSH2 0x763 PUSH8 0x9E2DBA0F4837A0C1 PUSH1 0xC0 SHL PUSH2 0x2D95 JUMP JUMPDEST PUSH1 0x2 PUSH1 0x0 DUP4 DUP2 MSTORE PUSH1 0x20 ADD SWAP1 DUP2 MSTORE PUSH1 0x20 ADD PUSH1 0x0 KECCAK256 PUSH1 0x2 ADD PUSH1 0x0 SWAP1 SLOAD SWAP1 PUSH2 0x100 EXP SWAP1 DIV PUSH20 0xFFFFFFFFFFFFFFFFFFFFFFFFFFFFFFFFFFFFFFFF AND PUSH20 0xFFFFFFFFFFFFFFFFFFFFFFFFFFFFFFFFFFFFFFFF AND PUSH2 0x8FC CALLVALUE SWAP1 DUP2 ISZERO MUL SWAP1 PUSH1 0x40 MLOAD PUSH1 0x0 PUSH1 0x40 MLOAD DUP1 DUP4 SUB DUP2 DUP6 DUP9 DUP9 CALL SWAP4 POP POP POP POP ISZERO DUP1 ISZERO PUSH2 0x7DF JUMPI RETURNDATASIZE PUSH1 0x0 DUP1 RETURNDATACOPY RETURNDATASIZE PUSH1 0x0 REVERT JUMPDEST POP PUSH2 0x7F4 PUSH8 0x2DF739549FB471D PUSH1 0xC0 SHL PUSH2 0x2D95 JUMP JUMPDEST PUSH1 0x4 PUSH1 0x2 PUSH1 0x0 DUP5 DUP2 MSTORE PUSH1 0x20 ADD SWAP1 DUP2 MSTORE PUSH1 0x20 ADD PUSH1 0x0 KECCAK256 PUSH1 0xB ADD PUSH1 0x0 PUSH2 0x100 EXP DUP2 SLOAD DUP2 PUSH1 0xFF MUL NOT AND SWAP1 DUP4 PUSH1 0x5 DUP2 GT ISZERO PUSH2 0x82E JUMPI PUSH2 0x82D PUSH2 0x345D JUMP JUMPDEST JUMPDEST MUL OR SWAP1 SSTORE POP PUSH2 0x847 PUSH8 0xB33FD4C33E72A206 PUSH1 0xC0 SHL PUSH2 0x2D95 JUMP JUMPDEST TIMESTAMP PUSH1 0x2 PUSH1 0x0 DUP5 DUP2 MSTORE PUSH1 0x20 ADD SWAP1 DUP2 MSTORE PUSH1 0x20 ADD PUSH1 0x0 KECCAK256 PUSH1 0xC ADD PUSH1 0x4 PUSH1 0x6 DUP2 LT PUSH2 0x871 JUMPI PUSH2 0x870 PUSH2 0x3BF1 JUMP JUMPDEST JUMPDEST ADD DUP2 SWAP1 SSTORE POP PUSH2 0x88A PUSH8 0xCB4BB69F7F66EEBE PUSH1 0xC0 SHL PUSH2 0x2D95 JUMP JUMPDEST PUSH2 0x89E PUSH8 0x421F14A5D1C2655C PUSH1 0xC0 SHL PUSH2 0x2D95 JUMP JUMPDEST CALLER PUSH20 0xFFFFFFFFFFFFFFFFFFFFFFFFFFFFFFFFFFFFFFFF AND PUSH32 0xBDEEE1F1FBCCB405BB11B23AAB22FCE5084B092D5EDB2C16A71DDA656DF59E87 DUP4 PUSH1 0x40 MLOAD PUSH2 0x8E4 SWAP2 SWAP1 PUSH2 0x3135 JUMP JUMPDEST PUSH1 0x40 MLOAD DUP1 SWAP2 SUB SWAP1 LOG2 POP POP JUMP JUMPDEST PUSH2 0x904 PUSH8 0x420D0460D6E32AC6 PUSH1 0xC0 SHL PUSH2 0x2D95 JUMP JUMPDEST PUSH2 0x918 PUSH8 0xD3F75C6E0E195D8B PUSH1 0xC0 SHL PUSH2 0x2D95 JUMP JUMPDEST PUSH2 0x92C PUSH8 0x6F5162B77689AC87 PUSH1 0xC0 SHL PUSH2 0x2D95 JUMP JUMPDEST PUSH2 0x940 PUSH8 0xAE01A1A9300F7EDD PUSH1 0xC0 SHL PUSH2 0x2D95 JUMP JUMPDEST PUSH2 0x954 PUSH8 0xD60CF597E50088C0 PUSH1 0xC0 SHL PUSH2 0x2D95 JUMP JUMPDEST PUSH1 0x40 MLOAD PUSH1 0x20 ADD PUSH2 0x963 SWAP1 PUSH2 0x3C6C JUMP JUMPDEST PUSH1 0x40 MLOAD PUSH1 0x20 DUP2 DUP4 SUB SUB DUP2 MSTORE SWAP1 PUSH1 0x40 MSTORE DUP1 MLOAD SWAP1 PUSH1 0x20 ADD KECCAK256 PUSH1 0x3 PUSH1 0x0 CALLER PUSH20 0xFFFFFFFFFFFFFFFFFFFFFFFFFFFFFFFFFFFFFFFF AND PUSH20 0xFFFFFFFFFFFFFFFFFFFFFFFFFFFFFFFFFFFFFFFF AND DUP2 MSTORE PUSH1 0x20 ADD SWAP1 DUP2 MSTORE PUSH1 0x20 ADD PUSH1 0x0 KECCAK256 PUSH1 0x40 MLOAD PUSH1 0x20 ADD PUSH2 0x9C8 SWAP2 SWAP1 PUSH2 0x3ADC JUMP JUMPDEST PUSH1 0x40 MLOAD PUSH1 0x20 DUP2 DUP4 SUB SUB DUP2 MSTORE SWAP1 PUSH1 0x40 MSTORE DUP1 MLOAD SWAP1 PUSH1 0x20 ADD KECCAK256 EQ PUSH2 0xA1E JUMPI PUSH1 0x40 MLOAD PUSH32 0x8C379A000000000000000000000000000000000000000000000000000000000 DUP2 MSTORE PUSH1 0x4 ADD PUSH2 0xA15 SWAP1 PUSH2 0x3CCD JUMP JUMPDEST PUSH1 0x40 MLOAD DUP1 SWAP2 SUB SWAP1 REVERT JUMPDEST PUSH2 0xA32 PUSH8 0x21E014A828FB39B8 PUSH1 0xC0 SHL PUSH2 0x2D95 JUMP JUMPDEST PUSH2 0xA46 PUSH8 0x6E0E043B0B08FAE3 PUSH1 0xC0 SHL PUSH2 0x2D95 JUMP JUMPDEST PUSH2 0xA5A PUSH8 0x1D963723BBFAB3D9 PUSH1 0xC0 SHL PUSH2 0x2D95 JUMP JUMPDEST PUSH2 0xA6E PUSH8 0xF77C34410D774472 PUSH1 0xC0 SHL PUSH2 0x2D95 JUMP JUMPDEST PUSH2 0xA82 PUSH8 0xEA9371D6B76D6CD9 PUSH1 0xC0 SHL PUSH2 0x2D95 JUMP JUMPDEST PUSH2 0xA96 PUSH8 0x27E0DAC40B05C4D8 PUSH1 0xC0 SHL PUSH2 0x2D95 JUMP JUMPDEST PUSH2 0xAAA PUSH8 0xAB467123FA369E4E PUSH1 0xC0 SHL PUSH2 0x2D95 JUMP JUMPDEST PUSH1 0x0 PUSH1 0x5 DUP2 GT ISZERO PUSH2 0xABE JUMPI PUSH2 0xABD PUSH2 0x345D JUMP JUMPDEST JUMPDEST PUSH1 0x2 PUSH1 0x0 DUP5 DUP2 MSTORE PUSH1 0x20 ADD SWAP1 DUP2 MSTORE PUSH1 0x20 ADD PUSH1 0x0 KECCAK256 PUSH1 0xB ADD PUSH1 0x0 SWAP1 SLOAD SWAP1 PUSH2 0x100 EXP SWAP1 DIV PUSH1 0xFF AND PUSH1 0x5 DUP2 GT ISZERO PUSH2 0xAF4 JUMPI PUSH2 0xAF3 PUSH2 0x345D JUMP JUMPDEST JUMPDEST EQ PUSH2 0xB34 JUMPI PUSH1 0x40 MLOAD PUSH32 0x8C379A000000000000000000000000000000000000000000000000000000000 DUP2 MSTORE PUSH1 0x4 ADD PUSH2 0xB2B SWAP1 PUSH2 0x3D39 JUMP JUMPDEST PUSH1 0x40 MLOAD DUP1 SWAP2 SUB SWAP1 REVERT JUMPDEST PUSH2 0xB48 PUSH8 0xEC78FECC260B0A3 PUSH1 0xC0 SHL PUSH2 0x2D95 JUMP JUMPDEST PUSH2 0xB5C PUSH8 0x7EE72330CECCAB0F PUSH1 0xC0 SHL PUSH2 0x2D95 JUMP JUMPDEST PUSH1 0x1 PUSH1 0x2 PUSH1 0x0 DUP5 DUP2 MSTORE PUSH1 0x20 ADD SWAP1 DUP2 MSTORE PUSH1 0x20 ADD PUSH1 0x0 KECCAK256 PUSH1 0xB ADD PUSH1 0x0 PUSH2 0x100 EXP DUP2 SLOAD DUP2 PUSH1 0xFF MUL NOT AND SWAP1 DUP4 PUSH1 0x5 DUP2 GT ISZERO PUSH2 0xB96 JUMPI PUSH2 0xB95 PUSH2 0x345D JUMP JUMPDEST JUMPDEST MUL OR SWAP1 SSTORE POP PUSH2 0xBAF PUSH8 0x9B47EDF1BFD4340C PUSH1 0xC0 SHL PUSH2 0x2D95 JUMP JUMPDEST DUP1 PUSH1 0x2 PUSH1 0x0 DUP5 DUP2 MSTORE PUSH1 0x20 ADD SWAP1 DUP2 MSTORE PUSH1 0x20 ADD PUSH1 0x0 KECCAK256 PUSH1 0x7 ADD PUSH1 0x0 PUSH1 0x3 DUP2 LT PUSH2 0xBD9 JUMPI PUSH2 0xBD8 PUSH2 0x3BF1 JUMP JUMPDEST JUMPDEST ADD DUP2 SWAP1 SSTORE POP PUSH2 0xBF2 PUSH8 0xBEF288BC69C99190 PUSH1 0xC0 SHL PUSH2 0x2D95 JUMP JUMPDEST TIMESTAMP PUSH1 0x2 PUSH1 0x0 DUP5 DUP2 MSTORE PUSH1 0x20 ADD SWAP1 DUP2 MSTORE PUSH1 0x20 ADD PUSH1 0x0 KECCAK256 PUSH1 0xC ADD PUSH1 0x1 PUSH1 0x6 DUP2 LT PUSH2 0xC1C JUMPI PUSH2 0xC1B PUSH2 0x3BF1 JUMP JUMPDEST JUMPDEST ADD DUP2 SWAP1 SSTORE POP PUSH2 0xC35 PUSH8 0xA22E619D88265F29 PUSH1 0xC0 SHL PUSH2 0x2D95 JUMP JUMPDEST PUSH2 0xC49 PUSH8 0x6CC363ACB6EB0C57 PUSH1 0xC0 SHL PUSH2 0x2D95 JUMP JUMPDEST CALLER PUSH20 0xFFFFFFFFFFFFFFFFFFFFFFFFFFFFFFFFFFFFFFFF AND PUSH32 0x801FFC6837367A06890EC387F235B8ED31CDC72D39EB94BE7424ABEAC4191BC8 DUP4 PUSH1 0x40 MLOAD PUSH2 0xC8F SWAP2 SWAP1 PUSH2 0x3135 JUMP JUMPDEST PUSH1 0x40 MLOAD DUP1 SWAP2 SUB SWAP1 LOG2 POP POP JUMP JUMPDEST PUSH2 0xCAF PUSH8 0x991074D1342B9820 PUSH1 0xC0 SHL PUSH2 0x2D95 JUMP JUMPDEST PUSH2 0xCC3 PUSH8 0x3E7F5D28A9DF6989 PUSH1 0xC0 SHL PUSH2 0x2D95 JUMP JUMPDEST PUSH2 0xCD7 PUSH8 0x2BC6323BA690D617 PUSH1 0xC0 SHL PUSH2 0x2D95 JUMP JUMPDEST PUSH1 0x5 DUP2 SWAP1 DUP1 PUSH1 0x1 DUP2 SLOAD ADD DUP1 DUP3 SSTORE DUP1 SWAP2 POP POP PUSH1 0x1 SWAP1 SUB SWAP1 PUSH1 0x0 MSTORE PUSH1 0x20 PUSH1 0x0 KECCAK256 ADD PUSH1 0x0 SWAP1 SWAP2 SWAP1 SWAP2 SWAP1 SWAP2 PUSH2 0x100 EXP DUP2 SLOAD DUP2 PUSH20 0xFFFFFFFFFFFFFFFFFFFFFFFFFFFFFFFFFFFFFFFF MUL NOT AND SWAP1 DUP4 PUSH20 0xFFFFFFFFFFFFFFFFFFFFFFFFFFFFFFFFFFFFFFFF AND MUL OR SWAP1 SSTORE POP POP JUMP JUMPDEST PUSH1 0x60 PUSH2 0xD53 PUSH8 0xD97F36B482FCE78 PUSH1 0xC0 SHL PUSH2 0x2D95 JUMP JUMPDEST PUSH2 0xD67 PUSH8 0xDB0A74FF691589C1 PUSH1 0xC0 SHL PUSH2 0x2D95 JUMP JUMPDEST PUSH2 0xD7B PUSH8 0x2DAD4296F045CBC5 PUSH1 0xC0 SHL PUSH2 0x2D95 JUMP JUMPDEST PUSH1 0x3 PUSH1 0x0 DUP4 PUSH20 0xFFFFFFFFFFFFFFFFFFFFFFFFFFFFFFFFFFFFFFFF AND PUSH20 0xFFFFFFFFFFFFFFFFFFFFFFFFFFFFFFFFFFFFFFFF AND DUP2 MSTORE PUSH1 0x20 ADD SWAP1 DUP2 MSTORE PUSH1 0x20 ADD PUSH1 0x0 KECCAK256 DUP1 SLOAD PUSH2 0xDC5 SWAP1 PUSH2 0x3A13 JUMP JUMPDEST DUP1 PUSH1 0x1F ADD PUSH1 0x20 DUP1 SWAP2 DIV MUL PUSH1 0x20 ADD PUSH1 0x40 MLOAD SWAP1 DUP2 ADD PUSH1 0x40 MSTORE DUP1 SWAP3 SWAP2 SWAP1 DUP2 DUP2 MSTORE PUSH1 0x20 ADD DUP3 DUP1 SLOAD PUSH2 0xDF1 SWAP1 PUSH2 0x3A13 JUMP JUMPDEST DUP1 ISZERO PUSH2 0xE3E JUMPI DUP1 PUSH1 0x1F LT PUSH2 0xE13 JUMPI PUSH2 0x100 DUP1 DUP4 SLOAD DIV MUL DUP4 MSTORE SWAP2 PUSH1 0x20 ADD SWAP2 PUSH2 0xE3E JUMP JUMPDEST DUP3 ADD SWAP2 SWAP1 PUSH1 0x0 MSTORE PUSH1 0x20 PUSH1 0x0 KECCAK256 SWAP1 JUMPDEST DUP2 SLOAD DUP2 MSTORE SWAP1 PUSH1 0x1 ADD SWAP1 PUSH1 0x20 ADD DUP1 DUP4 GT PUSH2 0xE21 JUMPI DUP3 SWAP1 SUB PUSH1 0x1F AND DUP3 ADD SWAP2 JUMPDEST POP POP POP POP POP SWAP1 POP SWAP2 SWAP1 POP JUMP JUMPDEST PUSH1 0x1 SLOAD DUP2 JUMP JUMPDEST PUSH1 0x4 PUSH1 0x20 MSTORE DUP1 PUSH1 0x0 MSTORE PUSH1 0x40 PUSH1 0x0 KECCAK256 PUSH1 0x0 SWAP2 POP SWAP1 POP DUP1 SLOAD PUSH2 0xE6F SWAP1 PUSH2 0x3A13 JUMP JUMPDEST DUP1 PUSH1 0x1F ADD PUSH1 0x20 DUP1 SWAP2 DIV MUL PUSH1 0x20 ADD PUSH1 0x40 MLOAD SWAP1 DUP2 ADD PUSH1 0x40 MSTORE DUP1 SWAP3 SWAP2 SWAP1 DUP2 DUP2 MSTORE PUSH1 0x20 ADD DUP3 DUP1 SLOAD PUSH2 0xE9B SWAP1 PUSH2 0x3A13 JUMP JUMPDEST DUP1 ISZERO PUSH2 0xEE8 JUMPI DUP1 PUSH1 0x1F LT PUSH2 0xEBD JUMPI PUSH2 0x100 DUP1 DUP4 SLOAD DIV MUL DUP4 MSTORE SWAP2 PUSH1 0x20 ADD SWAP2 PUSH2 0xEE8 JUMP JUMPDEST DUP3 ADD SWAP2 SWAP1 PUSH1 0x0 MSTORE PUSH1 0x20 PUSH1 0x0 KECCAK256 SWAP1 JUMPDEST DUP2 SLOAD DUP2 MSTORE SWAP1 PUSH1 0x1 ADD SWAP1 PUSH1 0x20 ADD DUP1 DUP4 GT PUSH2 0xECB JUMPI DUP3 SWAP1 SUB PUSH1 0x1F AND DUP3 ADD SWAP2 JUMPDEST POP POP POP POP POP DUP2 JUMP JUMPDEST PUSH1 0x60 PUSH2 0xF06 PUSH8 0x297551A92AF9E89D PUSH1 0xC0 SHL PUSH2 0x2D95 JUMP JUMPDEST PUSH2 0xF1A PUSH8 0x59B0909E952511F8 PUSH1 0xC0 SHL PUSH2 0x2D95 JUMP JUMPDEST PUSH2 0xF2E PUSH8 0xD6143C3192ABB768 PUSH1 0xC0 SHL PUSH2 0x2D95 JUMP JUMPDEST PUSH1 0x4 PUSH1 0x0 DUP4 PUSH20 0xFFFFFFFFFFFFFFFFFFFFFFFFFFFFFFFFFFFFFFFF AND PUSH20 0xFFFFFFFFFFFFFFFFFFFFFFFFFFFFFFFFFFFFFFFF AND DUP2 MSTORE PUSH1 0x20 ADD SWAP1 DUP2 MSTORE PUSH1 0x20 ADD PUSH1 0x0 KECCAK256 DUP1 SLOAD PUSH2 0xF78 SWAP1 PUSH2 0x3A13 JUMP JUMPDEST DUP1 PUSH1 0x1F ADD PUSH1 0x20 DUP1 SWAP2 DIV MUL PUSH1 0x20 ADD PUSH1 0x40 MLOAD SWAP1 DUP2 ADD PUSH1 0x40 MSTORE DUP1 SWAP3 SWAP2 SWAP1 DUP2 DUP2 MSTORE PUSH1 0x20 ADD DUP3 DUP1 SLOAD PUSH2 0xFA4 SWAP1 PUSH2 0x3A13 JUMP JUMPDEST DUP1 ISZERO PUSH2 0xFF1 JUMPI DUP1 PUSH1 0x1F LT PUSH2 0xFC6 JUMPI PUSH2 0x100 DUP1 DUP4 SLOAD DIV MUL DUP4 MSTORE SWAP2 PUSH1 0x20 ADD SWAP2 PUSH2 0xFF1 JUMP JUMPDEST DUP3 ADD SWAP2 SWAP1 PUSH1 0x0 MSTORE PUSH1 0x20 PUSH1 0x0 KECCAK256 SWAP1 JUMPDEST DUP2 SLOAD DUP2 MSTORE SWAP1 PUSH1 0x1 ADD SWAP1 PUSH1 0x20 ADD DUP1 DUP4 GT PUSH2 0xFD4 JUMPI DUP3 SWAP1 SUB PUSH1 0x1F AND DUP3 ADD SWAP2 JUMPDEST POP POP POP POP POP SWAP1 POP SWAP2 SWAP1 POP JUMP JUMPDEST PUSH2 0x1011 PUSH8 0x20E20DD2ED149D0E PUSH1 0xC0 SHL PUSH2 0x2D95 JUMP JUMPDEST PUSH2 0x1025 PUSH8 0x53F2735D6E23A937 PUSH1 0xC0 SHL PUSH2 0x2D95 JUMP JUMPDEST PUSH2 0x1039 PUSH8 0x26742436B5DA636 PUSH1 0xC0 SHL PUSH2 0x2D95 JUMP JUMPDEST PUSH2 0x104D PUSH8 0x9E10B93B9B00A99E PUSH1 0xC0 SHL PUSH2 0x2D95 JUMP JUMPDEST PUSH2 0x1061 PUSH8 0xB7E202DEE4ABA48E PUSH1 0xC0 SHL PUSH2 0x2D95 JUMP JUMPDEST PUSH1 0x40 MLOAD PUSH1 0x20 ADD PUSH2 0x1070 SWAP1 PUSH2 0x3DA5 JUMP JUMPDEST PUSH1 0x40 MLOAD PUSH1 0x20 DUP2 DUP4 SUB SUB DUP2 MSTORE SWAP1 PUSH1 0x40 MSTORE DUP1 MLOAD SWAP1 PUSH1 0x20 ADD KECCAK256 PUSH1 0x3 PUSH1 0x0 CALLER PUSH20 0xFFFFFFFFFFFFFFFFFFFFFFFFFFFFFFFFFFFFFFFF AND PUSH20 0xFFFFFFFFFFFFFFFFFFFFFFFFFFFFFFFFFFFFFFFF AND DUP2 MSTORE PUSH1 0x20 ADD SWAP1 DUP2 MSTORE PUSH1 0x20 ADD PUSH1 0x0 KECCAK256 PUSH1 0x40 MLOAD PUSH1 0x20 ADD PUSH2 0x10D5 SWAP2 SWAP1 PUSH2 0x3ADC JUMP JUMPDEST PUSH1 0x40 MLOAD PUSH1 0x20 DUP2 DUP4 SUB SUB DUP2 MSTORE SWAP1 PUSH1 0x40 MSTORE DUP1 MLOAD SWAP1 PUSH1 0x20 ADD KECCAK256 EQ PUSH2 0x112B JUMPI PUSH1 0x40 MLOAD PUSH32 0x8C379A000000000000000000000000000000000000000000000000000000000 DUP2 MSTORE PUSH1 0x4 ADD PUSH2 0x1122 SWAP1 PUSH2 0x3E2C JUMP JUMPDEST PUSH1 0x40 MLOAD DUP1 SWAP2 SUB SWAP1 REVERT JUMPDEST PUSH2 0x113F PUSH8 0x21D42A64F025B5D2 PUSH1 0xC0 SHL PUSH2 0x2D95 JUMP JUMPDEST PUSH2 0x1153 PUSH8 0xF32D558B33A90967 PUSH1 0xC0 SHL PUSH2 0x2D95 JUMP JUMPDEST PUSH2 0x1167 PUSH8 0xD3A59CD3977852FE PUSH1 0xC0 SHL PUSH2 0x2D95 JUMP JUMPDEST PUSH2 0x117B PUSH8 0xF84A83335134CB2D PUSH1 0xC0 SHL PUSH2 0x2D95 JUMP JUMPDEST PUSH2 0x118F PUSH8 0x22E15575B057A47A PUSH1 0xC0 SHL PUSH2 0x2D95 JUMP JUMPDEST PUSH2 0x11A3 PUSH8 0xF27713B793FE035E PUSH1 0xC0 SHL PUSH2 0x2D95 JUMP JUMPDEST PUSH2 0x11B7 PUSH8 0x89EBE50BA621AA25 PUSH1 0xC0 SHL PUSH2 0x2D95 JUMP JUMPDEST PUSH1 0x1 PUSH1 0x5 DUP2 GT ISZERO PUSH2 0x11CB JUMPI PUSH2 0x11CA PUSH2 0x345D JUMP JUMPDEST JUMPDEST PUSH1 0x2 PUSH1 0x0 DUP6 DUP2 MSTORE PUSH1 0x20 ADD SWAP1 DUP2 MSTORE PUSH1 0x20 ADD PUSH1 0x0 KECCAK256 PUSH1 0xB ADD PUSH1 0x0 SWAP1 SLOAD SWAP1 PUSH2 0x100 EXP SWAP1 DIV PUSH1 0xFF AND PUSH1 0x5 DUP2 GT ISZERO PUSH2 0x1201 JUMPI PUSH2 0x1200 PUSH2 0x345D JUMP JUMPDEST JUMPDEST EQ PUSH2 0x1241 JUMPI PUSH1 0x40 MLOAD PUSH32 0x8C379A000000000000000000000000000000000000000000000000000000000 DUP2 MSTORE PUSH1 0x4 ADD PUSH2 0x1238 SWAP1 PUSH2 0x3EBE JUMP JUMPDEST PUSH1 0x40 MLOAD DUP1 SWAP2 SUB SWAP1 REVERT JUMPDEST PUSH2 0x1255 PUSH8 0x8085A1C999DA047E PUSH1 0xC0 SHL PUSH2 0x2D95 JUMP JUMPDEST PUSH2 0x1269 PUSH8 0x1E06CA3CB3C5909F PUSH1 0xC0 SHL PUSH2 0x2D95 JUMP JUMPDEST DUP2 PUSH1 0x2 PUSH1 0x0 DUP6 DUP2 MSTORE PUSH1 0x20 ADD SWAP1 DUP2 MSTORE PUSH1 0x20 ADD PUSH1 0x0 KECCAK256 PUSH1 0x2 ADD PUSH1 0x0 PUSH2 0x100 EXP DUP2 SLOAD DUP2 PUSH20 0xFFFFFFFFFFFFFFFFFFFFFFFFFFFFFFFFFFFFFFFF MUL NOT AND SWAP1 DUP4 PUSH20 0xFFFFFFFFFFFFFFFFFFFFFFFFFFFFFFFFFFFFFFFF AND MUL OR SWAP1 SSTORE POP PUSH2 0x12D2 PUSH8 0x1D72A30C87CED1DB PUSH1 0xC0 SHL PUSH2 0x2D95 JUMP JUMPDEST PUSH1 0x2 DUP1 PUSH1 0x0 DUP6 DUP2 MSTORE PUSH1 0x20 ADD SWAP1 DUP2 MSTORE PUSH1 0x20 ADD PUSH1 0x0 KECCAK256 PUSH1 0xB ADD PUSH1 0x0 PUSH2 0x100 EXP DUP2 SLOAD DUP2 PUSH1 0xFF MUL NOT AND SWAP1 DUP4 PUSH1 0x5 DUP2 GT ISZERO PUSH2 0x130B JUMPI PUSH2 0x130A PUSH2 0x345D JUMP JUMPDEST JUMPDEST MUL OR SWAP1 SSTORE POP PUSH2 0x1324 PUSH8 0x43BE15CDD1FCB8FD PUSH1 0xC0 SHL PUSH2 0x2D95 JUMP JUMPDEST DUP1 PUSH1 0x2 PUSH1 0x0 DUP6 DUP2 MSTORE PUSH1 0x20 ADD SWAP1 DUP2 MSTORE PUSH1 0x20 ADD PUSH1 0x0 KECCAK256 PUSH1 0xA ADD SWAP1 DUP2 PUSH2 0x1347 SWAP2 SWAP1 PUSH2 0x4075 JUMP JUMPDEST POP PUSH2 0x135C PUSH8 0x6D81F694556C5DE7 PUSH1 0xC0 SHL PUSH2 0x2D95 JUMP JUMPDEST PUSH2 0x1370 PUSH8 0x7F66A7C051E39A1B PUSH1 0xC0 SHL PUSH2 0x2D95 JUMP JUMPDEST PUSH1 0x2 PUSH1 0x0 DUP5 DUP2 MSTORE PUSH1 0x20 ADD SWAP1 DUP2 MSTORE PUSH1 0x20 ADD PUSH1 0x0 KECCAK256 PUSH1 0x1 ADD PUSH1 0x0 SWAP1 SLOAD SWAP1 PUSH2 0x100 EXP SWAP1 DIV PUSH20 0xFFFFFFFFFFFFFFFFFFFFFFFFFFFFFFFFFFFFFFFF AND PUSH20 0xFFFFFFFFFFFFFFFFFFFFFFFFFFFFFFFFFFFFFFFF AND PUSH2 0x8FC CALLVALUE SWAP1 DUP2 ISZERO MUL SWAP1 PUSH1 0x40 MLOAD PUSH1 0x0 PUSH1 0x40 MLOAD DUP1 DUP4 SUB DUP2 DUP6 DUP9 DUP9 CALL SWAP4 POP POP POP POP ISZERO DUP1 ISZERO PUSH2 0x13EC JUMPI RETURNDATASIZE PUSH1 0x0 DUP1 RETURNDATACOPY RETURNDATASIZE PUSH1 0x0 REVERT JUMPDEST POP PUSH2 0x1401 PUSH8 0xB8A3E77556118102 PUSH1 0xC0 SHL PUSH2 0x2D95 JUMP JUMPDEST TIMESTAMP PUSH1 0x2 PUSH1 0x0 DUP6 DUP2 MSTORE PUSH1 0x20 ADD SWAP1 DUP2 MSTORE PUSH1 0x20 ADD PUSH1 0x0 KECCAK256 PUSH1 0xC ADD PUSH1 0x2 PUSH1 0x6 DUP2 LT PUSH2 0x142B JUMPI PUSH2 0x142A PUSH2 0x3BF1 JUMP JUMPDEST JUMPDEST ADD DUP2 SWAP1 SSTORE POP PUSH2 0x1444 PUSH8 0xD0C835F713788356 PUSH1 0xC0 SHL PUSH2 0x2D95 JUMP JUMPDEST PUSH2 0x1458 PUSH8 0x80328D84C5D9077E PUSH1 0xC0 SHL PUSH2 0x2D95 JUMP JUMPDEST DUP2 PUSH20 0xFFFFFFFFFFFFFFFFFFFFFFFFFFFFFFFFFFFFFFFF AND PUSH32 0x14CC943C2064293B374B4FA45A792AB03FEAB6D8C06B398296B52A7629916624 DUP5 PUSH1 0x40 MLOAD PUSH2 0x149E SWAP2 SWAP1 PUSH2 0x3135 JUMP JUMPDEST PUSH1 0x40 MLOAD DUP1 SWAP2 SUB SWAP1 LOG2 POP POP POP JUMP JUMPDEST PUSH1 0x60 PUSH2 0x14C1 PUSH8 0xFF8DC20ADF267AE8 PUSH1 0xC0 SHL PUSH2 0x2D95 JUMP JUMPDEST PUSH2 0x14D5 PUSH8 0x586FDAA11AFAED8 PUSH1 0xC0 SHL PUSH2 0x2D95 JUMP JUMPDEST PUSH2 0x14E9 PUSH8 0xEE99A91363109C3C PUSH1 0xC0 SHL PUSH2 0x2D95 JUMP JUMPDEST PUSH1 0x5 DUP1 SLOAD DUP1 PUSH1 0x20 MUL PUSH1 0x20 ADD PUSH1 0x40 MLOAD SWAP1 DUP2 ADD PUSH1 0x40 MSTORE DUP1 SWAP3 SWAP2 SWAP1 DUP2 DUP2 MSTORE PUSH1 0x20 ADD DUP3 DUP1 SLOAD DUP1 ISZERO PUSH2 0x156B JUMPI PUSH1 0x20 MUL DUP3 ADD SWAP2 SWAP1 PUSH1 0x0 MSTORE PUSH1 0x20 PUSH1 0x0 KECCAK256 SWAP1 JUMPDEST DUP2 PUSH1 0x0 SWAP1 SLOAD SWAP1 PUSH2 0x100 EXP SWAP1 DIV PUSH20 0xFFFFFFFFFFFFFFFFFFFFFFFFFFFFFFFFFFFFFFFF AND PUSH20 0xFFFFFFFFFFFFFFFFFFFFFFFFFFFFFFFFFFFFFFFF AND DUP2 MSTORE PUSH1 0x20 ADD SWAP1 PUSH1 0x1 ADD SWAP1 DUP1 DUP4 GT PUSH2 0x1521 JUMPI JUMPDEST POP POP POP POP POP SWAP1 POP SWAP1 JUMP JUMPDEST PUSH1 0x3 PUSH1 0x20 MSTORE DUP1 PUSH1 0x0 MSTORE PUSH1 0x40 PUSH1 0x0 KECCAK256 PUSH1 0x0 SWAP2 POP SWAP1 POP DUP1 SLOAD PUSH2 0x1594 SWAP1 PUSH2 0x3A13 JUMP JUMPDEST DUP1 PUSH1 0x1F ADD PUSH1 0x20 DUP1 SWAP2 DIV MUL PUSH1 0x20 ADD PUSH1 0x40 MLOAD SWAP1 DUP2 ADD PUSH1 0x40 MSTORE DUP1 SWAP3 SWAP2 SWAP1 DUP2 DUP2 MSTORE PUSH1 0x20 ADD DUP3 DUP1 SLOAD PUSH2 0x15C0 SWAP1 PUSH2 0x3A13 JUMP JUMPDEST DUP1 ISZERO PUSH2 0x160D JUMPI DUP1 PUSH1 0x1F LT PUSH2 0x15E2 JUMPI PUSH2 0x100 DUP1 DUP4 SLOAD DIV MUL DUP4 MSTORE SWAP2 PUSH1 0x20 ADD SWAP2 PUSH2 0x160D JUMP JUMPDEST DUP3 ADD SWAP2 SWAP1 PUSH1 0x0 MSTORE PUSH1 0x20 PUSH1 0x0 KECCAK256 SWAP1 JUMPDEST DUP2 SLOAD DUP2 MSTORE SWAP1 PUSH1 0x1 ADD SWAP1 PUSH1 0x20 ADD DUP1 DUP4 GT PUSH2 0x15F0 JUMPI DUP3 SWAP1 SUB PUSH1 0x1F AND DUP3 ADD SWAP2 JUMPDEST POP POP POP POP POP DUP2 JUMP JUMPDEST PUSH2 0x1629 PUSH8 0x7A6373015A9FF47D PUSH1 0xC0 SHL PUSH2 0x2D95 JUMP JUMPDEST PUSH2 0x163D PUSH8 0xD3F75C6E0E195D8B PUSH1 0xC0 SHL PUSH2 0x2D95 JUMP JUMPDEST PUSH2 0x1651 PUSH8 0x6F5162B77689AC87 PUSH1 0xC0 SHL PUSH2 0x2D95 JUMP JUMPDEST PUSH2 0x1665 PUSH8 0xAE01A1A9300F7EDD PUSH1 0xC0 SHL PUSH2 0x2D95 JUMP JUMPDEST PUSH2 0x1679 PUSH8 0xD60CF597E50088C0 PUSH1 0xC0 SHL PUSH2 0x2D95 JUMP JUMPDEST PUSH1 0x40 MLOAD PUSH1 0x20 ADD PUSH2 0x1688 SWAP1 PUSH2 0x3C6C JUMP JUMPDEST PUSH1 0x40 MLOAD PUSH1 0x20 DUP2 DUP4 SUB SUB DUP2 MSTORE SWAP1 PUSH1 0x40 MSTORE DUP1 MLOAD SWAP1 PUSH1 0x20 ADD KECCAK256 PUSH1 0x3 PUSH1 0x0 CALLER PUSH20 0xFFFFFFFFFFFFFFFFFFFFFFFFFFFFFFFFFFFFFFFF AND PUSH20 0xFFFFFFFFFFFFFFFFFFFFFFFFFFFFFFFFFFFFFFFF AND DUP2 MSTORE PUSH1 0x20 ADD SWAP1 DUP2 MSTORE PUSH1 0x20 ADD PUSH1 0x0 KECCAK256 PUSH1 0x40 MLOAD PUSH1 0x20 ADD PUSH2 0x16ED SWAP2 SWAP1 PUSH2 0x3ADC JUMP JUMPDEST PUSH1 0x40 MLOAD PUSH1 0x20 DUP2 DUP4 SUB SUB DUP2 MSTORE SWAP1 PUSH1 0x40 MSTORE DUP1 MLOAD SWAP1 PUSH1 0x20 ADD KECCAK256 EQ PUSH2 0x1743 JUMPI PUSH1 0x40 MLOAD PUSH32 0x8C379A000000000000000000000000000000000000000000000000000000000 DUP2 MSTORE PUSH1 0x4 ADD PUSH2 0x173A SWAP1 PUSH2 0x3CCD JUMP JUMPDEST PUSH1 0x40 MLOAD DUP1 SWAP2 SUB SWAP1 REVERT JUMPDEST PUSH2 0x1757 PUSH8 0x21E014A828FB39B8 PUSH1 0xC0 SHL PUSH2 0x2D95 JUMP JUMPDEST PUSH2 0x176B PUSH8 0x6E0E043B0B08FAE3 PUSH1 0xC0 SHL PUSH2 0x2D95 JUMP JUMPDEST PUSH2 0x177F PUSH8 0x628E9E6FFBADBFB PUSH1 0xC0 SHL PUSH2 0x2D95 JUMP JUMPDEST PUSH2 0x1793 PUSH8 0x5424F418D912A2D4 PUSH1 0xC0 SHL PUSH2 0x2D95 JUMP JUMPDEST PUSH2 0x17A7 PUSH8 0x86EFC397EDDCD448 PUSH1 0xC0 SHL PUSH2 0x2D95 JUMP JUMPDEST PUSH1 0x1 PUSH1 0x0 DUP2 SLOAD DUP1 SWAP3 SWAP2 SWAP1 PUSH2 0x17BA SWAP1 PUSH2 0x4176 JUMP JUMPDEST SWAP2 SWAP1 POP SSTORE POP PUSH2 0x17D3 PUSH8 0x41F39BB189C145B0 PUSH1 0xC0 SHL PUSH2 0x2D95 JUMP JUMPDEST PUSH1 0x40 MLOAD DUP1 PUSH2 0x160 ADD PUSH1 0x40 MSTORE DUP1 PUSH1 0x1 SLOAD DUP2 MSTORE PUSH1 0x20 ADD CALLER PUSH20 0xFFFFFFFFFFFFFFFFFFFFFFFFFFFFFFFFFFFFFFFF AND DUP2 MSTORE PUSH1 0x20 ADD PUSH1 0x0 PUSH20 0xFFFFFFFFFFFFFFFFFFFFFFFFFFFFFFFFFFFFFFFF AND DUP2 MSTORE PUSH1 0x20 ADD PUSH1 0x0 PUSH20 0xFFFFFFFFFFFFFFFFFFFFFFFFFFFFFFFFFFFFFFFF AND DUP2 MSTORE PUSH1 0x20 ADD PUSH1 0x0 PUSH20 0xFFFFFFFFFFFFFFFFFFFFFFFFFFFFFFFFFFFFFFFF AND DUP2 MSTORE PUSH1 0x20 ADD PUSH1 0x0 PUSH20 0xFFFFFFFFFFFFFFFFFFFFFFFFFFFFFFFFFFFFFFFF AND DUP2 MSTORE PUSH1 0x20 ADD DUP3 DUP2 MSTORE PUSH1 0x20 ADD PUSH1 0x40 MLOAD DUP1 PUSH1 0x60 ADD PUSH1 0x40 MSTORE DUP1 TIMESTAMP DUP2 MSTORE PUSH1 0x20 ADD PUSH1 0x0 DUP2 MSTORE PUSH1 0x20 ADD PUSH1 0x0 DUP2 MSTORE POP DUP2 MSTORE PUSH1 0x20 ADD PUSH1 0x40 MLOAD DUP1 PUSH1 0x20 ADD PUSH1 0x40 MSTORE DUP1 PUSH1 0x0 DUP2 MSTORE POP DUP2 MSTORE PUSH1 0x20 ADD PUSH1 0x0 PUSH1 0x5 DUP2 GT ISZERO PUSH2 0x18C8 JUMPI PUSH2 0x18C7 PUSH2 0x345D JUMP JUMPDEST JUMPDEST DUP2 MSTORE PUSH1 0x20 ADD PUSH1 0x40 MLOAD DUP1 PUSH1 0xC0 ADD PUSH1 0x40 MSTORE DUP1 TIMESTAMP DUP2 MSTORE PUSH1 0x20 ADD PUSH1 0x0 DUP2 MSTORE PUSH1 0x20 ADD PUSH1 0x0 DUP2 MSTORE PUSH1 0x20 ADD PUSH1 0x0 DUP2 MSTORE PUSH1 0x20 ADD PUSH1 0x0 DUP2 MSTORE PUSH1 0x20 ADD PUSH1 0x0 DUP2 MSTORE POP DUP2 MSTORE POP PUSH1 0x2 PUSH1 0x0 PUSH1 0x1 SLOAD DUP2 MSTORE PUSH1 0x20 ADD SWAP1 DUP2 MSTORE PUSH1 0x20 ADD PUSH1 0x0 KECCAK256 PUSH1 0x0 DUP3 ADD MLOAD DUP2 PUSH1 0x0 ADD SSTORE PUSH1 0x20 DUP3 ADD MLOAD DUP2 PUSH1 0x1 ADD PUSH1 0x0 PUSH2 0x100 EXP DUP2 SLOAD DUP2 PUSH20 0xFFFFFFFFFFFFFFFFFFFFFFFFFFFFFFFFFFFFFFFF MUL NOT AND SWAP1 DUP4 PUSH20 0xFFFFFFFFFFFFFFFFFFFFFFFFFFFFFFFFFFFFFFFF AND MUL OR SWAP1 SSTORE POP PUSH1 0x40 DUP3 ADD MLOAD DUP2 PUSH1 0x2 ADD PUSH1 0x0 PUSH2 0x100 EXP DUP2 SLOAD DUP2 PUSH20 0xFFFFFFFFFFFFFFFFFFFFFFFFFFFFFFFFFFFFFFFF MUL NOT AND SWAP1 DUP4 PUSH20 0xFFFFFFFFFFFFFFFFFFFFFFFFFFFFFFFFFFFFFFFF AND MUL OR SWAP1 SSTORE POP PUSH1 0x60 DUP3 ADD MLOAD DUP2 PUSH1 0x3 ADD PUSH1 0x0 PUSH2 0x100 EXP DUP2 SLOAD DUP2 PUSH20 0xFFFFFFFFFFFFFFFFFFFFFFFFFFFFFFFFFFFFFFFF MUL NOT AND SWAP1 DUP4 PUSH20 0xFFFFFFFFFFFFFFFFFFFFFFFFFFFFFFFFFFFFFFFF AND MUL OR SWAP1 SSTORE POP PUSH1 0x80 DUP3 ADD MLOAD DUP2 PUSH1 0x4 ADD PUSH1 0x0 PUSH2 0x100 EXP DUP2 SLOAD DUP2 PUSH20 0xFFFFFFFFFFFFFFFFFFFFFFFFFFFFFFFFFFFFFFFF MUL NOT AND SWAP1 DUP4 PUSH20 0xFFFFFFFFFFFFFFFFFFFFFFFFFFFFFFFFFFFFFFFF AND MUL OR SWAP1 SSTORE POP PUSH1 0xA0 DUP3 ADD MLOAD DUP2 PUSH1 0x5 ADD PUSH1 0x0 PUSH2 0x100 EXP DUP2 SLOAD DUP2 PUSH20 0xFFFFFFFFFFFFFFFFFFFFFFFFFFFFFFFFFFFFFFFF MUL NOT AND SWAP1 DUP4 PUSH20 0xFFFFFFFFFFFFFFFFFFFFFFFFFFFFFFFFFFFFFFFF AND MUL OR SWAP1 SSTORE POP PUSH1 0xC0 DUP3 ADD MLOAD DUP2 PUSH1 0x6 ADD SSTORE PUSH1 0xE0 DUP3 ADD MLOAD DUP2 PUSH1 0x7 ADD SWAP1 PUSH1 0x3 PUSH2 0x1AA5 SWAP3 SWAP2 SWAP1 PUSH2 0x2D98 JUMP JUMPDEST POP PUSH2 0x100 DUP3 ADD MLOAD DUP2 PUSH1 0xA ADD SWAP1 DUP2 PUSH2 0x1ABC SWAP2 SWAP1 PUSH2 0x4075 JUMP JUMPDEST POP PUSH2 0x120 DUP3 ADD MLOAD DUP2 PUSH1 0xB ADD PUSH1 0x0 PUSH2 0x100 EXP DUP2 SLOAD DUP2 PUSH1 0xFF MUL NOT AND SWAP1 DUP4 PUSH1 0x5 DUP2 GT ISZERO PUSH2 0x1AE9 JUMPI PUSH2 0x1AE8 PUSH2 0x345D JUMP JUMPDEST JUMPDEST MUL OR SWAP1 SSTORE POP PUSH2 0x140 DUP3 ADD MLOAD DUP2 PUSH1 0xC ADD SWAP1 PUSH1 0x6 PUSH2 0x1B06 SWAP3 SWAP2 SWAP1 PUSH2 0x2DD8 JUMP JUMPDEST POP SWAP1 POP POP PUSH2 0x1B1E PUSH8 0x3D7AD12283EF4619 PUSH1 0xC0 SHL PUSH2 0x2D95 JUMP JUMPDEST PUSH2 0x1B32 PUSH8 0xBE5387C12CE844F6 PUSH1 0xC0 SHL PUSH2 0x2D95 JUMP JUMPDEST CALLER PUSH20 0xFFFFFFFFFFFFFFFFFFFFFFFFFFFFFFFFFFFFFFFF AND PUSH32 0x586ABCF7DBFBB5987208AE52757E459EC686B28C6B758884C4BA3DB92ECAA350 PUSH1 0x1 SLOAD PUSH1 0x40 MLOAD PUSH2 0x1B7A SWAP2 SWAP1 PUSH2 0x3135 JUMP JUMPDEST PUSH1 0x40 MLOAD DUP1 SWAP2 SUB SWAP1 LOG2 POP JUMP JUMPDEST PUSH1 0x2 PUSH1 0x20 MSTORE DUP1 PUSH1 0x0 MSTORE PUSH1 0x40 PUSH1 0x0 KECCAK256 PUSH1 0x0 SWAP2 POP SWAP1 POP DUP1 PUSH1 0x0 ADD SLOAD SWAP1 DUP1 PUSH1 0x1 ADD PUSH1 0x0 SWAP1 SLOAD SWAP1 PUSH2 0x100 EXP SWAP1 DIV PUSH20 0xFFFFFFFFFFFFFFFFFFFFFFFFFFFFFFFFFFFFFFFF AND SWAP1 DUP1 PUSH1 0x2 ADD PUSH1 0x0 SWAP1 SLOAD SWAP1 PUSH2 0x100 EXP SWAP1 DIV PUSH20 0xFFFFFFFFFFFFFFFFFFFFFFFFFFFFFFFFFFFFFFFF AND SWAP1 DUP1 PUSH1 0x3 ADD PUSH1 0x0 SWAP1 SLOAD SWAP1 PUSH2 0x100 EXP SWAP1 DIV PUSH20 0xFFFFFFFFFFFFFFFFFFFFFFFFFFFFFFFFFFFFFFFF AND SWAP1 DUP1 PUSH1 0x4 ADD PUSH1 0x0 SWAP1 SLOAD SWAP1 PUSH2 0x100 EXP SWAP1 DIV PUSH20 0xFFFFFFFFFFFFFFFFFFFFFFFFFFFFFFFFFFFFFFFF AND SWAP1 DUP1 PUSH1 0x5 ADD PUSH1 0x0 SWAP1 SLOAD SWAP1 PUSH2 0x100 EXP SWAP1 DIV PUSH20 0xFFFFFFFFFFFFFFFFFFFFFFFFFFFFFFFFFFFFFFFF AND SWAP1 DUP1 PUSH1 0x6 ADD SLOAD SWAP1 DUP1 PUSH1 0xA ADD DUP1 SLOAD PUSH2 0x1C72 SWAP1 PUSH2 0x3A13 JUMP JUMPDEST DUP1 PUSH1 0x1F ADD PUSH1 0x20 DUP1 SWAP2 DIV MUL PUSH1 0x20 ADD PUSH1 0x40 MLOAD SWAP1 DUP2 ADD PUSH1 0x40 MSTORE DUP1 SWAP3 SWAP2 SWAP1 DUP2 DUP2 MSTORE PUSH1 0x20 ADD DUP3 DUP1 SLOAD PUSH2 0x1C9E SWAP1 PUSH2 0x3A13 JUMP JUMPDEST DUP1 ISZERO PUSH2 0x1CEB JUMPI DUP1 PUSH1 0x1F LT PUSH2 0x1CC0 JUMPI PUSH2 0x100 DUP1 DUP4 SLOAD DIV MUL DUP4 MSTORE SWAP2 PUSH1 0x20 ADD SWAP2 PUSH2 0x1CEB JUMP JUMPDEST DUP3 ADD SWAP2 SWAP1 PUSH1 0x0 MSTORE PUSH1 0x20 PUSH1 0x0 KECCAK256 SWAP1 JUMPDEST DUP2 SLOAD DUP2 MSTORE SWAP1 PUSH1 0x1 ADD SWAP1 PUSH1 0x20 ADD DUP1 DUP4 GT PUSH2 0x1CCE JUMPI DUP3 SWAP1 SUB PUSH1 0x1F AND DUP3 ADD SWAP2 JUMPDEST POP POP POP POP POP SWAP1 DUP1 PUSH1 0xB ADD PUSH1 0x0 SWAP1 SLOAD SWAP1 PUSH2 0x100 EXP SWAP1 DIV PUSH1 0xFF AND SWAP1 POP DUP10 JUMP JUMPDEST PUSH2 0x1D1C PUSH8 0xD1B40580BF0BEE59 PUSH1 0xC0 SHL PUSH2 0x2D95 JUMP JUMPDEST PUSH2 0x1D30 PUSH8 0x53F2735D6E23A937 PUSH1 0xC0 SHL PUSH2 0x2D95 JUMP JUMPDEST PUSH2 0x1D44 PUSH8 0x26742436B5DA636 PUSH1 0xC0 SHL PUSH2 0x2D95 JUMP JUMPDEST PUSH2 0x1D58 PUSH8 0x9E10B93B9B00A99E PUSH1 0xC0 SHL PUSH2 0x2D95 JUMP JUMPDEST PUSH2 0x1D6C PUSH8 0xB7E202DEE4ABA48E PUSH1 0xC0 SHL PUSH2 0x2D95 JUMP JUMPDEST PUSH1 0x40 MLOAD PUSH1 0x20 ADD PUSH2 0x1D7B SWAP1 PUSH2 0x3DA5 JUMP JUMPDEST PUSH1 0x40 MLOAD PUSH1 0x20 DUP2 DUP4 SUB SUB DUP2 MSTORE SWAP1 PUSH1 0x40 MSTORE DUP1 MLOAD SWAP1 PUSH1 0x20 ADD KECCAK256 PUSH1 0x3 PUSH1 0x0 CALLER PUSH20 0xFFFFFFFFFFFFFFFFFFFFFFFFFFFFFFFFFFFFFFFF AND PUSH20 0xFFFFFFFFFFFFFFFFFFFFFFFFFFFFFFFFFFFFFFFF AND DUP2 MSTORE PUSH1 0x20 ADD SWAP1 DUP2 MSTORE PUSH1 0x20 ADD PUSH1 0x0 KECCAK256 PUSH1 0x40 MLOAD PUSH1 0x20 ADD PUSH2 0x1DE0 SWAP2 SWAP1 PUSH2 0x3ADC JUMP JUMPDEST PUSH1 0x40 MLOAD PUSH1 0x20 DUP2 DUP4 SUB SUB DUP2 MSTORE SWAP1 PUSH1 0x40 MSTORE DUP1 MLOAD SWAP1 PUSH1 0x20 ADD KECCAK256 EQ PUSH2 0x1E36 JUMPI PUSH1 0x40 MLOAD PUSH32 0x8C379A000000000000000000000000000000000000000000000000000000000 DUP2 MSTORE PUSH1 0x4 ADD PUSH2 0x1E2D SWAP1 PUSH2 0x3E2C JUMP JUMPDEST PUSH1 0x40 MLOAD DUP1 SWAP2 SUB SWAP1 REVERT JUMPDEST PUSH2 0x1E4A PUSH8 0x21D42A64F025B5D2 PUSH1 0xC0 SHL PUSH2 0x2D95 JUMP JUMPDEST PUSH2 0x1E5E PUSH8 0xF32D558B33A90967 PUSH1 0xC0 SHL PUSH2 0x2D95 JUMP JUMPDEST PUSH2 0x1E72 PUSH8 0xF09971774D0D925 PUSH1 0xC0 SHL PUSH2 0x2D95 JUMP JUMPDEST PUSH2 0x1E86 PUSH8 0x497C7B8A74A3D93A PUSH1 0xC0 SHL PUSH2 0x2D95 JUMP JUMPDEST PUSH2 0x1E9A PUSH8 0xEAD455E0C2B07E27 PUSH1 0xC0 SHL PUSH2 0x2D95 JUMP JUMPDEST PUSH2 0x1EAE PUSH8 0x1440EAE2EBFFCC21 PUSH1 0xC0 SHL PUSH2 0x2D95 JUMP JUMPDEST PUSH2 0x1EC2 PUSH8 0x3C53F3B63ACC2238 PUSH1 0xC0 SHL PUSH2 0x2D95 JUMP JUMPDEST PUSH1 0x2 PUSH1 0x5 DUP2 GT ISZERO PUSH2 0x1ED6 JUMPI PUSH2 0x1ED5 PUSH2 0x345D JUMP JUMPDEST JUMPDEST PUSH1 0x2 PUSH1 0x0 DUP5 DUP2 MSTORE PUSH1 0x20 ADD SWAP1 DUP2 MSTORE PUSH1 0x20 ADD PUSH1 0x0 KECCAK256 PUSH1 0xB ADD PUSH1 0x0 SWAP1 SLOAD SWAP1 PUSH2 0x100 EXP SWAP1 DIV PUSH1 0xFF AND PUSH1 0x5 DUP2 GT ISZERO PUSH2 0x1F0C JUMPI PUSH2 0x1F0B PUSH2 0x345D JUMP JUMPDEST JUMPDEST EQ PUSH2 0x1F4C JUMPI PUSH1 0x40 MLOAD PUSH32 0x8C379A000000000000000000000000000000000000000000000000000000000 DUP2 MSTORE PUSH1 0x4 ADD PUSH2 0x1F43 SWAP1 PUSH2 0x4230 JUMP JUMPDEST PUSH1 0x40 MLOAD DUP1 SWAP2 SUB SWAP1 REVERT JUMPDEST PUSH2 0x1F60 PUSH8 0xD71170D107C7AC8 PUSH1 0xC0 SHL PUSH2 0x2D95 JUMP JUMPDEST PUSH2 0x1F74 PUSH8 0xA4249150961E21F9 PUSH1 0xC0 SHL PUSH2 0x2D95 JUMP JUMPDEST PUSH1 0x3 PUSH1 0x2 PUSH1 0x0 DUP5 DUP2 MSTORE PUSH1 0x20 ADD SWAP1 DUP2 MSTORE PUSH1 0x20 ADD PUSH1 0x0 KECCAK256 PUSH1 0xB ADD PUSH1 0x0 PUSH2 0x100 EXP DUP2 SLOAD DUP2 PUSH1 0xFF MUL NOT AND SWAP1 DUP4 PUSH1 0x5 DUP2 GT ISZERO PUSH2 0x1FAE JUMPI PUSH2 0x1FAD PUSH2 0x345D JUMP JUMPDEST JUMPDEST MUL OR SWAP1 SSTORE POP PUSH2 0x1FC7 PUSH8 0xFD9E81C3297ECF71 PUSH1 0xC0 SHL PUSH2 0x2D95 JUMP JUMPDEST DUP1 PUSH1 0x2 PUSH1 0x0 DUP5 DUP2 MSTORE PUSH1 0x20 ADD SWAP1 DUP2 MSTORE PUSH1 0x20 ADD PUSH1 0x0 KECCAK256 PUSH1 0x7 ADD PUSH1 0x1 PUSH1 0x3 DUP2 LT PUSH2 0x1FF1 JUMPI PUSH2 0x1FF0 PUSH2 0x3BF1 JUMP JUMPDEST JUMPDEST ADD DUP2 SWAP1 SSTORE POP PUSH2 0x200A PUSH8 0x906A9A2151598C05 PUSH1 0xC0 SHL PUSH2 0x2D95 JUMP JUMPDEST TIMESTAMP PUSH1 0x2 PUSH1 0x0 DUP5 DUP2 MSTORE PUSH1 0x20 ADD SWAP1 DUP2 MSTORE PUSH1 0x20 ADD PUSH1 0x0 KECCAK256 PUSH1 0xC ADD PUSH1 0x3 PUSH1 0x6 DUP2 LT PUSH2 0x2034 JUMPI PUSH2 0x2033 PUSH2 0x3BF1 JUMP JUMPDEST JUMPDEST ADD DUP2 SWAP1 SSTORE POP PUSH2 0x204D PUSH8 0x934584AB37C59B92 PUSH1 0xC0 SHL PUSH2 0x2D95 JUMP JUMPDEST PUSH2 0x2061 PUSH8 0x4818637F352D01A2 PUSH1 0xC0 SHL PUSH2 0x2D95 JUMP JUMPDEST CALLER PUSH20 0xFFFFFFFFFFFFFFFFFFFFFFFFFFFFFFFFFFFFFFFF AND PUSH32 0xBE1568ABC3183A5A97C7569BCBA82CFE15C75FD66C0AA496A9AF61D0E3D81050 DUP4 PUSH1 0x40 MLOAD PUSH2 0x20A7 SWAP2 SWAP1 PUSH2 0x3135 JUMP JUMPDEST PUSH1 0x40 MLOAD DUP1 SWAP2 SUB SWAP1 LOG2 POP POP JUMP JUMPDEST PUSH1 0x0 PUSH2 0x20C9 PUSH8 0x94830A13C437D4CC PUSH1 0xC0 SHL PUSH2 0x2D95 JUMP JUMPDEST PUSH2 0x20DD PUSH8 0x6F537882220B5F0B PUSH1 0xC0 SHL PUSH2 0x2D95 JUMP JUMPDEST PUSH2 0x20F1 PUSH8 0x19430EACB5E34EFE PUSH1 0xC0 SHL PUSH2 0x2D95 JUMP JUMPDEST PUSH2 0x2105 PUSH8 0x9B55A78AEDB4F987 PUSH1 0xC0 SHL PUSH2 0x2D95 JUMP JUMPDEST PUSH1 0x5 DUP1 SLOAD SWAP1 POP DUP3 LT PUSH2 0x214C JUMPI PUSH1 0x40 MLOAD PUSH32 0x8C379A000000000000000000000000000000000000000000000000000000000 DUP2 MSTORE PUSH1 0x4 ADD PUSH2 0x2143 SWAP1 PUSH2 0x429C JUMP JUMPDEST PUSH1 0x40 MLOAD DUP1 SWAP2 SUB SWAP1 REVERT JUMPDEST PUSH2 0x2160 PUSH8 0x676BD501F99C6D3B PUSH1 0xC0 SHL PUSH2 0x2D95 JUMP JUMPDEST PUSH2 0x2174 PUSH8 0x6BC088A265183AC3 PUSH1 0xC0 SHL PUSH2 0x2D95 JUMP JUMPDEST PUSH2 0x2188 PUSH8 0xAD8A393A4BC9CA7C PUSH1 0xC0 SHL PUSH2 0x2D95 JUMP JUMPDEST PUSH1 0x5 DUP3 DUP2 SLOAD DUP2 LT PUSH2 0x219C JUMPI PUSH2 0x219B PUSH2 0x3BF1 JUMP JUMPDEST JUMPDEST SWAP1 PUSH1 0x0 MSTORE PUSH1 0x20 PUSH1 0x0 KECCAK256 ADD PUSH1 0x0 SWAP1 SLOAD SWAP1 PUSH2 0x100 EXP SWAP1 DIV PUSH20 0xFFFFFFFFFFFFFFFFFFFFFFFFFFFFFFFFFFFFFFFF AND SWAP1 POP SWAP2 SWAP1 POP JUMP JUMPDEST PUSH2 0x21E2 PUSH8 0xC9DF20FD40CCB193 PUSH1 0xC0 SHL PUSH2 0x2D95 JUMP JUMPDEST PUSH2 0x21F6 PUSH8 0x9100237D386D60D3 PUSH1 0xC0 SHL PUSH2 0x2D95 JUMP JUMPDEST PUSH2 0x220A PUSH8 0xB2E352D97B1A17D3 PUSH1 0xC0 SHL PUSH2 0x2D95 JUMP JUMPDEST PUSH2 0x221E PUSH8 0xD0FA717024528E22 PUSH1 0xC0 SHL PUSH2 0x2D95 JUMP JUMPDEST PUSH2 0x2232 PUSH8 0xF2CED0171A119F25 PUSH1 0xC0 SHL PUSH2 0x2D95 JUMP JUMPDEST PUSH1 0x40 MLOAD PUSH1 0x20 ADD PUSH2 0x2241 SWAP1 PUSH2 0x4308 JUMP JUMPDEST PUSH1 0x40 MLOAD PUSH1 0x20 DUP2 DUP4 SUB SUB DUP2 MSTORE SWAP1 PUSH1 0x40 MSTORE DUP1 MLOAD SWAP1 PUSH1 0x20 ADD KECCAK256 PUSH1 0x3 PUSH1 0x0 CALLER PUSH20 0xFFFFFFFFFFFFFFFFFFFFFFFFFFFFFFFFFFFFFFFF AND PUSH20 0xFFFFFFFFFFFFFFFFFFFFFFFFFFFFFFFFFFFFFFFF AND DUP2 MSTORE PUSH1 0x20 ADD SWAP1 DUP2 MSTORE PUSH1 0x20 ADD PUSH1 0x0 KECCAK256 PUSH1 0x40 MLOAD PUSH1 0x20 ADD PUSH2 0x22A6 SWAP2 SWAP1 PUSH2 0x3ADC JUMP JUMPDEST PUSH1 0x40 MLOAD PUSH1 0x20 DUP2 DUP4 SUB SUB DUP2 MSTORE SWAP1 PUSH1 0x40 MSTORE DUP1 MLOAD SWAP1 PUSH1 0x20 ADD KECCAK256 EQ PUSH2 0x22FC JUMPI PUSH1 0x40 MLOAD PUSH32 0x8C379A000000000000000000000000000000000000000000000000000000000 DUP2 MSTORE PUSH1 0x4 ADD PUSH2 0x22F3 SWAP1 PUSH2 0x438F JUMP JUMPDEST PUSH1 0x40 MLOAD DUP1 SWAP2 SUB SWAP1 REVERT JUMPDEST PUSH2 0x2310 PUSH8 0x44A21808FA999DAE PUSH1 0xC0 SHL PUSH2 0x2D95 JUMP JUMPDEST PUSH2 0x2324 PUSH8 0x51512F8D9FCA3ACF PUSH1 0xC0 SHL PUSH2 0x2D95 JUMP JUMPDEST PUSH2 0x2338 PUSH8 0xE80543560DB5922E PUSH1 0xC0 SHL PUSH2 0x2D95 JUMP JUMPDEST PUSH2 0x234C PUSH8 0x9B9410AAC83A31E7 PUSH1 0xC0 SHL PUSH2 0x2D95 JUMP JUMPDEST PUSH2 0x2360 PUSH8 0x16D0541FF3DC600 PUSH1 0xC0 SHL PUSH2 0x2D95 JUMP JUMPDEST PUSH2 0x2374 PUSH8 0xDBED367293FE6296 PUSH1 0xC0 SHL PUSH2 0x2D95 JUMP JUMPDEST PUSH2 0x2388 PUSH8 0xECE5D2007B6EB09C PUSH1 0xC0 SHL PUSH2 0x2D95 JUMP JUMPDEST PUSH1 0x4 PUSH1 0x5 DUP2 GT ISZERO PUSH2 0x239C JUMPI PUSH2 0x239B PUSH2 0x345D JUMP JUMPDEST JUMPDEST PUSH1 0x2 PUSH1 0x0 DUP4 DUP2 MSTORE PUSH1 0x20 ADD SWAP1 DUP2 MSTORE PUSH1 0x20 ADD PUSH1 0x0 KECCAK256 PUSH1 0xB ADD PUSH1 0x0 SWAP1 SLOAD SWAP1 PUSH2 0x100 EXP SWAP1 DIV PUSH1 0xFF AND PUSH1 0x5 DUP2 GT ISZERO PUSH2 0x23D2 JUMPI PUSH2 0x23D1 PUSH2 0x345D JUMP JUMPDEST JUMPDEST EQ PUSH2 0x2412 JUMPI PUSH1 0x40 MLOAD PUSH32 0x8C379A000000000000000000000000000000000000000000000000000000000 DUP2 MSTORE PUSH1 0x4 ADD PUSH2 0x2409 SWAP1 PUSH2 0x43FB JUMP JUMPDEST PUSH1 0x40 MLOAD DUP1 SWAP2 SUB SWAP1 REVERT JUMPDEST PUSH2 0x2426 PUSH8 0xD48130598B301B8E PUSH1 0xC0 SHL PUSH2 0x2D95 JUMP JUMPDEST PUSH2 0x243A PUSH8 0x7683C4457DE932AD PUSH1 0xC0 SHL PUSH2 0x2D95 JUMP JUMPDEST PUSH2 0x244E PUSH8 0xCCFC35C5EDB71BE3 PUSH1 0xC0 SHL PUSH2 0x2D95 JUMP JUMPDEST PUSH2 0x2462 PUSH8 0x45A71AFA733E364D PUSH1 0xC0 SHL PUSH2 0x2D95 JUMP JUMPDEST PUSH1 0x2 PUSH1 0x0 DUP3 DUP2 MSTORE PUSH1 0x20 ADD SWAP1 DUP2 MSTORE PUSH1 0x20 ADD PUSH1 0x0 KECCAK256 PUSH1 0x7 ADD PUSH1 0x2 PUSH1 0x3 DUP2 LT PUSH2 0x248B JUMPI PUSH2 0x248A PUSH2 0x3BF1 JUMP JUMPDEST JUMPDEST ADD SLOAD CALLVALUE EQ PUSH2 0x24CE JUMPI PUSH1 0x40 MLOAD PUSH32 0x8C379A000000000000000000000000000000000000000000000000000000000 DUP2 MSTORE PUSH1 0x4 ADD PUSH2 0x24C5 SWAP1 PUSH2 0x4467 JUMP JUMPDEST PUSH1 0x40 MLOAD DUP1 SWAP2 SUB SWAP1 REVERT JUMPDEST PUSH2 0x24E2 PUSH8 0x8A51E27A4D0FDECB PUSH1 0xC0 SHL PUSH2 0x2D95 JUMP JUMPDEST PUSH2 0x24F6 PUSH8 0x58FCF478EB1BD182 PUSH1 0xC0 SHL PUSH2 0x2D95 JUMP JUMPDEST CALLER PUSH1 0x2 PUSH1 0x0 DUP4 DUP2 MSTORE PUSH1 0x20 ADD SWAP1 DUP2 MSTORE PUSH1 0x20 ADD PUSH1 0x0 KECCAK256 PUSH1 0x4 ADD PUSH1 0x0 PUSH2 0x100 EXP DUP2 SLOAD DUP2 PUSH20 0xFFFFFFFFFFFFFFFFFFFFFFFFFFFFFFFFFFFFFFFF MUL NOT AND SWAP1 DUP4 PUSH20 0xFFFFFFFFFFFFFFFFFFFFFFFFFFFFFFFFFFFFFFFF AND MUL OR SWAP1 SSTORE POP PUSH2 0x255F PUSH8 0x9F62EB5D41F88833 PUSH1 0xC0 SHL PUSH2 0x2D95 JUMP JUMPDEST PUSH2 0x2573 PUSH8 0x3F4200F1578138FB PUSH1 0xC0 SHL PUSH2 0x2D95 JUMP JUMPDEST PUSH1 0x2 PUSH1 0x0 DUP3 DUP2 MSTORE PUSH1 0x20 ADD SWAP1 DUP2 MSTORE PUSH1 0x20 ADD PUSH1 0x0 KECCAK256 PUSH1 0x3 ADD PUSH1 0x0 SWAP1 SLOAD SWAP1 PUSH2 0x100 EXP SWAP1 DIV PUSH20 0xFFFFFFFFFFFFFFFFFFFFFFFFFFFFFFFFFFFFFFFF AND PUSH20 0xFFFFFFFFFFFFFFFFFFFFFFFFFFFFFFFFFFFFFFFF AND PUSH2 0x8FC CALLVALUE SWAP1 DUP2 ISZERO MUL SWAP1 PUSH1 0x40 MLOAD PUSH1 0x0 PUSH1 0x40 MLOAD DUP1 DUP4 SUB DUP2 DUP6 DUP9 DUP9 CALL SWAP4 POP POP POP POP ISZERO DUP1 ISZERO PUSH2 0x25EF JUMPI RETURNDATASIZE PUSH1 0x0 DUP1 RETURNDATACOPY RETURNDATASIZE PUSH1 0x0 REVERT JUMPDEST POP PUSH2 0x2604 PUSH8 0x805DEE6BBF7F3DB7 PUSH1 0xC0 SHL PUSH2 0x2D95 JUMP JUMPDEST PUSH1 0x5 PUSH1 0x2 PUSH1 0x0 DUP4 DUP2 MSTORE PUSH1 0x20 ADD SWAP1 DUP2 MSTORE PUSH1 0x20 ADD PUSH1 0x0 KECCAK256 PUSH1 0xB ADD PUSH1 0x0 PUSH2 0x100 EXP DUP2 SLOAD DUP2 PUSH1 0xFF MUL NOT AND SWAP1 DUP4 PUSH1 0x5 DUP2 GT ISZERO PUSH2 0x263E JUMPI PUSH2 0x263D PUSH2 0x345D JUMP JUMPDEST JUMPDEST MUL OR SWAP1 SSTORE POP PUSH2 0x2657 PUSH8 0x8870785B1FEAC871 PUSH1 0xC0 SHL PUSH2 0x2D95 JUMP JUMPDEST TIMESTAMP PUSH1 0x2 PUSH1 0x0 DUP4 DUP2 MSTORE PUSH1 0x20 ADD SWAP1 DUP2 MSTORE PUSH1 0x20 ADD PUSH1 0x0 KECCAK256 PUSH1 0xC ADD PUSH1 0x5 PUSH1 0x6 DUP2 LT PUSH2 0x2681 JUMPI PUSH2 0x2680 PUSH2 0x3BF1 JUMP JUMPDEST JUMPDEST ADD DUP2 SWAP1 SSTORE POP PUSH2 0x269A PUSH8 0x57FED87D7416C100 PUSH1 0xC0 SHL PUSH2 0x2D95 JUMP JUMPDEST PUSH2 0x26AE PUSH8 0xBE045055DC0F01FB PUSH1 0xC0 SHL PUSH2 0x2D95 JUMP JUMPDEST PUSH1 0x2 PUSH1 0x0 DUP3 DUP2 MSTORE PUSH1 0x20 ADD SWAP1 DUP2 MSTORE PUSH1 0x20 ADD PUSH1 0x0 KECCAK256 PUSH1 0x5 ADD PUSH1 0x0 SWAP1 SLOAD SWAP1 PUSH2 0x100 EXP SWAP1 DIV PUSH20 0xFFFFFFFFFFFFFFFFFFFFFFFFFFFFFFFFFFFFFFFF AND PUSH20 0xFFFFFFFFFFFFFFFFFFFFFFFFFFFFFFFFFFFFFFFF AND PUSH1 0x2 PUSH1 0x0 DUP4 DUP2 MSTORE PUSH1 0x20 ADD SWAP1 DUP2 MSTORE PUSH1 0x20 ADD PUSH1 0x0 KECCAK256 PUSH1 0x4 ADD PUSH1 0x0 SWAP1 SLOAD SWAP1 PUSH2 0x100 EXP SWAP1 DIV PUSH20 0xFFFFFFFFFFFFFFFFFFFFFFFFFFFFFFFFFFFFFFFF AND PUSH20 0xFFFFFFFFFFFFFFFFFFFFFFFFFFFFFFFFFFFFFFFF AND PUSH32 0xF3ECB4DAB83F41DA3035FF9CB3A2EF0C3027EBB89AE4E4B822D7C109E869A2FC DUP4 PUSH1 0x40 MLOAD PUSH2 0x2777 SWAP2 SWAP1 PUSH2 0x3135 JUMP JUMPDEST PUSH1 0x40 MLOAD DUP1 SWAP2 SUB SWAP1 LOG3 POP JUMP JUMPDEST PUSH2 0x2796 PUSH8 0x100AA198179791A6 PUSH1 0xC0 SHL PUSH2 0x2D95 JUMP JUMPDEST PUSH2 0x27AA PUSH8 0x591B6449218EBCBD PUSH1 0xC0 SHL PUSH2 0x2D95 JUMP JUMPDEST DUP2 PUSH1 0x3 PUSH1 0x0 DUP6 PUSH20 0xFFFFFFFFFFFFFFFFFFFFFFFFFFFFFFFFFFFFFFFF AND PUSH20 0xFFFFFFFFFFFFFFFFFFFFFFFFFFFFFFFFFFFFFFFF AND DUP2 MSTORE PUSH1 0x20 ADD SWAP1 DUP2 MSTORE PUSH1 0x20 ADD PUSH1 0x0 KECCAK256 SWAP1 DUP2 PUSH2 0x27F6 SWAP2 SWAP1 PUSH2 0x4075 JUMP JUMPDEST POP PUSH2 0x280B PUSH8 0x833E79341374C5D4 PUSH1 0xC0 SHL PUSH2 0x2D95 JUMP JUMPDEST DUP1 PUSH1 0x4 PUSH1 0x0 DUP6 PUSH20 0xFFFFFFFFFFFFFFFFFFFFFFFFFFFFFFFFFFFFFFFF AND PUSH20 0xFFFFFFFFFFFFFFFFFFFFFFFFFFFFFFFFFFFFFFFF AND DUP2 MSTORE PUSH1 0x20 ADD SWAP1 DUP2 MSTORE PUSH1 0x20 ADD PUSH1 0x0 KECCAK256 SWAP1 DUP2 PUSH2 0x2857 SWAP2 SWAP1 PUSH2 0x4075 JUMP JUMPDEST POP PUSH2 0x286C PUSH8 0x6A2D796E8CD7EA0B PUSH1 0xC0 SHL PUSH2 0x2D95 JUMP JUMPDEST PUSH2 0x2880 PUSH8 0xC69DA43FD5B6238F PUSH1 0xC0 SHL PUSH2 0x2D95 JUMP JUMPDEST PUSH1 0x5 DUP4 SWAP1 DUP1 PUSH1 0x1 DUP2 SLOAD ADD DUP1 DUP3 SSTORE DUP1 SWAP2 POP POP PUSH1 0x1 SWAP1 SUB SWAP1 PUSH1 0x0 MSTORE PUSH1 0x20 PUSH1 0x0 KECCAK256 ADD PUSH1 0x0 SWAP1 SWAP2 SWAP1 SWAP2 SWAP1 SWAP2 PUSH2 0x100 EXP DUP2 SLOAD DUP2 PUSH20 0xFFFFFFFFFFFFFFFFFFFFFFFFFFFFFFFFFFFFFFFF MUL NOT AND SWAP1 DUP4 PUSH20 0xFFFFFFFFFFFFFFFFFFFFFFFFFFFFFFFFFFFFFFFF AND MUL OR SWAP1 SSTORE POP POP POP POP JUMP JUMPDEST PUSH1 0x60 PUSH2 0x28FE PUSH8 0x53B2446B1C08DA18 PUSH1 0xC0 SHL PUSH2 0x2D95 JUMP JUMPDEST PUSH2 0x2912 PUSH8 0xCCBDB00DF31F3EB1 PUSH1 0xC0 SHL PUSH2 0x2D95 JUMP JUMPDEST PUSH2 0x2926 PUSH8 0x82622782BDE8D788 PUSH1 0xC0 SHL PUSH2 0x2D95 JUMP JUMPDEST PUSH1 0x0 PUSH1 0x1 SLOAD PUSH8 0xFFFFFFFFFFFFFFFF DUP2 GT ISZERO PUSH2 0x2944 JUMPI PUSH2 0x2943 PUSH2 0x3198 JUMP JUMPDEST JUMPDEST PUSH1 0x40 MLOAD SWAP1 DUP1 DUP3 MSTORE DUP1 PUSH1 0x20 MUL PUSH1 0x20 ADD DUP3 ADD PUSH1 0x40 MSTORE DUP1 ISZERO PUSH2 0x297D JUMPI DUP2 PUSH1 0x20 ADD JUMPDEST PUSH2 0x296A PUSH2 0x2E18 JUMP JUMPDEST DUP2 MSTORE PUSH1 0x20 ADD SWAP1 PUSH1 0x1 SWAP1 SUB SWAP1 DUP2 PUSH2 0x2962 JUMPI SWAP1 POP JUMPDEST POP SWAP1 POP PUSH2 0x2994 PUSH8 0xCA05E503344F1382 PUSH1 0xC0 SHL PUSH2 0x2D95 JUMP JUMPDEST PUSH2 0x29A8 PUSH8 0x326102E171C7B60A PUSH1 0xC0 SHL PUSH2 0x2D95 JUMP JUMPDEST PUSH1 0x0 PUSH1 0x1 SWAP1 POP JUMPDEST PUSH1 0x1 SLOAD DUP2 GT PUSH2 0x2D41 JUMPI PUSH2 0x29CC PUSH8 0xE6327BB83799F157 PUSH1 0xC0 SHL PUSH2 0x2D95 JUMP JUMPDEST PUSH1 0x2 PUSH1 0x0 DUP3 DUP2 MSTORE PUSH1 0x20 ADD SWAP1 DUP2 MSTORE PUSH1 0x20 ADD PUSH1 0x0 KECCAK256 PUSH1 0x40 MLOAD DUP1 PUSH2 0x160 ADD PUSH1 0x40 MSTORE SWAP1 DUP2 PUSH1 0x0 DUP3 ADD SLOAD DUP2 MSTORE PUSH1 0x20 ADD PUSH1 0x1 DUP3 ADD PUSH1 0x0 SWAP1 SLOAD SWAP1 PUSH2 0x100 EXP SWAP1 DIV PUSH20 0xFFFFFFFFFFFFFFFFFFFFFFFFFFFFFFFFFFFFFFFF AND PUSH20 0xFFFFFFFFFFFFFFFFFFFFFFFFFFFFFFFFFFFFFFFF AND PUSH20 0xFFFFFFFFFFFFFFFFFFFFFFFFFFFFFFFFFFFFFFFF AND DUP2 MSTORE PUSH1 0x20 ADD PUSH1 0x2 DUP3 ADD PUSH1 0x0 SWAP1 SLOAD SWAP1 PUSH2 0x100 EXP SWAP1 DIV PUSH20 0xFFFFFFFFFFFFFFFFFFFFFFFFFFFFFFFFFFFFFFFF AND PUSH20 0xFFFFFFFFFFFFFFFFFFFFFFFFFFFFFFFFFFFFFFFF AND PUSH20 0xFFFFFFFFFFFFFFFFFFFFFFFFFFFFFFFFFFFFFFFF AND DUP2 MSTORE PUSH1 0x20 ADD PUSH1 0x3 DUP3 ADD PUSH1 0x0 SWAP1 SLOAD SWAP1 PUSH2 0x100 EXP SWAP1 DIV PUSH20 0xFFFFFFFFFFFFFFFFFFFFFFFFFFFFFFFFFFFFFFFF AND PUSH20 0xFFFFFFFFFFFFFFFFFFFFFFFFFFFFFFFFFFFFFFFF AND PUSH20 0xFFFFFFFFFFFFFFFFFFFFFFFFFFFFFFFFFFFFFFFF AND DUP2 MSTORE PUSH1 0x20 ADD PUSH1 0x4 DUP3 ADD PUSH1 0x0 SWAP1 SLOAD SWAP1 PUSH2 0x100 EXP SWAP1 DIV PUSH20 0xFFFFFFFFFFFFFFFFFFFFFFFFFFFFFFFFFFFFFFFF AND PUSH20 0xFFFFFFFFFFFFFFFFFFFFFFFFFFFFFFFFFFFFFFFF AND PUSH20 0xFFFFFFFFFFFFFFFFFFFFFFFFFFFFFFFFFFFFFFFF AND DUP2 MSTORE PUSH1 0x20 ADD PUSH1 0x5 DUP3 ADD PUSH1 0x0 SWAP1 SLOAD SWAP1 PUSH2 0x100 EXP SWAP1 DIV PUSH20 0xFFFFFFFFFFFFFFFFFFFFFFFFFFFFFFFFFFFFFFFF AND PUSH20 0xFFFFFFFFFFFFFFFFFFFFFFFFFFFFFFFFFFFFFFFF AND PUSH20 0xFFFFFFFFFFFFFFFFFFFFFFFFFFFFFFFFFFFFFFFF AND DUP2 MSTORE PUSH1 0x20 ADD PUSH1 0x6 DUP3 ADD SLOAD DUP2 MSTORE PUSH1 0x20 ADD PUSH1 0x7 DUP3 ADD PUSH1 0x3 DUP1 PUSH1 0x20 MUL PUSH1 0x40 MLOAD SWAP1 DUP2 ADD PUSH1 0x40 MSTORE DUP1 SWAP3 SWAP2 SWAP1 DUP3 PUSH1 0x3 DUP1 ISZERO PUSH2 0x2BE9 JUMPI PUSH1 0x20 MUL DUP3 ADD SWAP2 JUMPDEST DUP2 SLOAD DUP2 MSTORE PUSH1 0x20 ADD SWAP1 PUSH1 0x1 ADD SWAP1 DUP1 DUP4 GT PUSH2 0x2BD5 JUMPI JUMPDEST POP POP POP POP POP DUP2 MSTORE PUSH1 0x20 ADD PUSH1 0xA DUP3 ADD DUP1 SLOAD PUSH2 0x2C02 SWAP1 PUSH2 0x3A13 JUMP JUMPDEST DUP1 PUSH1 0x1F ADD PUSH1 0x20 DUP1 SWAP2 DIV MUL PUSH1 0x20 ADD PUSH1 0x40 MLOAD SWAP1 DUP2 ADD PUSH1 0x40 MSTORE DUP1 SWAP3 SWAP2 SWAP1 DUP2 DUP2 MSTORE PUSH1 0x20 ADD DUP3 DUP1 SLOAD PUSH2 0x2C2E SWAP1 PUSH2 0x3A13 JUMP JUMPDEST DUP1 ISZERO PUSH2 0x2C7B JUMPI DUP1 PUSH1 0x1F LT PUSH2 0x2C50 JUMPI PUSH2 0x100 DUP1 DUP4 SLOAD DIV MUL DUP4 MSTORE SWAP2 PUSH1 0x20 ADD SWAP2 PUSH2 0x2C7B JUMP JUMPDEST DUP3 ADD SWAP2 SWAP1 PUSH1 0x0 MSTORE PUSH1 0x20 PUSH1 0x0 KECCAK256 SWAP1 JUMPDEST DUP2 SLOAD DUP2 MSTORE SWAP1 PUSH1 0x1 ADD SWAP1 PUSH1 0x20 ADD DUP1 DUP4 GT PUSH2 0x2C5E JUMPI DUP3 SWAP1 SUB PUSH1 0x1F AND DUP3 ADD SWAP2 JUMPDEST POP POP POP POP POP DUP2 MSTORE PUSH1 0x20 ADD PUSH1 0xB DUP3 ADD PUSH1 0x0 SWAP1 SLOAD SWAP1 PUSH2 0x100 EXP SWAP1 DIV PUSH1 0xFF AND PUSH1 0x5 DUP2 GT ISZERO PUSH2 0x2CA9 JUMPI PUSH2 0x2CA8 PUSH2 0x345D JUMP JUMPDEST JUMPDEST PUSH1 0x5 DUP2 GT ISZERO PUSH2 0x2CBB JUMPI PUSH2 0x2CBA PUSH2 0x345D JUMP JUMPDEST JUMPDEST DUP2 MSTORE PUSH1 0x20 ADD PUSH1 0xC DUP3 ADD PUSH1 0x6 DUP1 PUSH1 0x20 MUL PUSH1 0x40 MLOAD SWAP1 DUP2 ADD PUSH1 0x40 MSTORE DUP1 SWAP3 SWAP2 SWAP1 DUP3 PUSH1 0x6 DUP1 ISZERO PUSH2 0x2CFB JUMPI PUSH1 0x20 MUL DUP3 ADD SWAP2 JUMPDEST DUP2 SLOAD DUP2 MSTORE PUSH1 0x20 ADD SWAP1 PUSH1 0x1 ADD SWAP1 DUP1 DUP4 GT PUSH2 0x2CE7 JUMPI JUMPDEST POP POP POP POP POP DUP2 MSTORE POP POP DUP3 PUSH1 0x1 DUP4 PUSH2 0x2D12 SWAP2 SWAP1 PUSH2 0x4487 JUMP JUMPDEST DUP2 MLOAD DUP2 LT PUSH2 0x2D23 JUMPI PUSH2 0x2D22 PUSH2 0x3BF1 JUMP JUMPDEST JUMPDEST PUSH1 0x20 MUL PUSH1 0x20 ADD ADD DUP2 SWAP1 MSTORE POP DUP1 DUP1 PUSH2 0x2D39 SWAP1 PUSH2 0x4176 JUMP JUMPDEST SWAP2 POP POP PUSH2 0x29AF JUMP JUMPDEST POP PUSH2 0x2D56 PUSH8 0xB0D8959F018BB610 PUSH1 0xC0 SHL PUSH2 0x2D95 JUMP JUMPDEST PUSH2 0x2D6A PUSH8 0xCD446FEC1818072B PUSH1 0xC0 SHL PUSH2 0x2D95 JUMP JUMPDEST DUP1 SWAP2 POP POP SWAP1 JUMP JUMPDEST PUSH1 0x0 DUP1 SLOAD SWAP1 PUSH2 0x100 EXP SWAP1 DIV PUSH20 0xFFFFFFFFFFFFFFFFFFFFFFFFFFFFFFFFFFFFFFFF AND DUP2 JUMP JUMPDEST POP JUMP JUMPDEST DUP3 PUSH1 0x3 DUP2 ADD SWAP3 DUP3 ISZERO PUSH2 0x2DC7 JUMPI SWAP2 PUSH1 0x20 MUL DUP3 ADD JUMPDEST DUP3 DUP2 GT ISZERO PUSH2 0x2DC6 JUMPI DUP3 MLOAD DUP3 SSTORE SWAP2 PUSH1 0x20 ADD SWAP2 SWAP1 PUSH1 0x1 ADD SWAP1 PUSH2 0x2DAB JUMP JUMPDEST JUMPDEST POP SWAP1 POP PUSH2 0x2DD4 SWAP2 SWAP1 PUSH2 0x2EFE JUMP JUMPDEST POP SWAP1 JUMP JUMPDEST DUP3 PUSH1 0x6 DUP2 ADD SWAP3 DUP3 ISZERO PUSH2 0x2E07 JUMPI SWAP2 PUSH1 0x20 MUL DUP3 ADD JUMPDEST DUP3 DUP2 GT ISZERO PUSH2 0x2E06 JUMPI DUP3 MLOAD DUP3 SSTORE SWAP2 PUSH1 0x20 ADD SWAP2 SWAP1 PUSH1 0x1 ADD SWAP1 PUSH2 0x2DEB JUMP JUMPDEST JUMPDEST POP SWAP1 POP PUSH2 0x2E14 SWAP2 SWAP1 PUSH2 0x2EFE JUMP JUMPDEST POP SWAP1 JUMP JUMPDEST PUSH1 0x40 MLOAD DUP1 PUSH2 0x160 ADD PUSH1 0x40 MSTORE DUP1 PUSH1 0x0 DUP2 MSTORE PUSH1 0x20 ADD PUSH1 0x0 PUSH20 0xFFFFFFFFFFFFFFFFFFFFFFFFFFFFFFFFFFFFFFFF AND DUP2 MSTORE PUSH1 0x20 ADD PUSH1 0x0 PUSH20 0xFFFFFFFFFFFFFFFFFFFFFFFFFFFFFFFFFFFFFFFF AND DUP2 MSTORE PUSH1 0x20 ADD PUSH1 0x0 PUSH20 0xFFFFFFFFFFFFFFFFFFFFFFFFFFFFFFFFFFFFFFFF AND DUP2 MSTORE PUSH1 0x20 ADD PUSH1 0x0 PUSH20 0xFFFFFFFFFFFFFFFFFFFFFFFFFFFFFFFFFFFFFFFF AND DUP2 MSTORE PUSH1 0x20 ADD PUSH1 0x0 PUSH20 0xFFFFFFFFFFFFFFFFFFFFFFFFFFFFFFFFFFFFFFFF AND DUP2 MSTORE PUSH1 0x20 ADD PUSH1 0x0 DUP2 MSTORE PUSH1 0x20 ADD PUSH2 0x2ECB PUSH2 0x2F1B JUMP JUMPDEST DUP2 MSTORE PUSH1 0x20 ADD PUSH1 0x60 DUP2 MSTORE PUSH1 0x20 ADD PUSH1 0x0 PUSH1 0x5 DUP2 GT ISZERO PUSH2 0x2EEB JUMPI PUSH2 0x2EEA PUSH2 0x345D JUMP JUMPDEST JUMPDEST DUP2 MSTORE PUSH1 0x20 ADD PUSH2 0x2EF8 PUSH2 0x2F3D JUMP JUMPDEST DUP2 MSTORE POP SWAP1 JUMP JUMPDEST JUMPDEST DUP1 DUP3 GT ISZERO PUSH2 0x2F17 JUMPI PUSH1 0x0 DUP2 PUSH1 0x0 SWAP1 SSTORE POP PUSH1 0x1 ADD PUSH2 0x2EFF JUMP JUMPDEST POP SWAP1 JUMP JUMPDEST PUSH1 0x40 MLOAD DUP1 PUSH1 0x60 ADD PUSH1 0x40 MSTORE DUP1 PUSH1 0x3 SWAP1 PUSH1 0x20 DUP3 MUL DUP1 CALLDATASIZE DUP4 CALLDATACOPY DUP1 DUP3 ADD SWAP2 POP POP SWAP1 POP POP SWAP1 JUMP JUMPDEST PUSH1 0x40 MLOAD DUP1 PUSH1 0xC0 ADD PUSH1 0x40 MSTORE DUP1 PUSH1 0x6 SWAP1 PUSH1 0x20 DUP3 MUL DUP1 CALLDATASIZE DUP4 CALLDATACOPY DUP1 DUP3 ADD SWAP2 POP POP SWAP1 POP POP SWAP1 JUMP JUMPDEST PUSH1 0x0 PUSH1 0x40 MLOAD SWAP1 POP SWAP1 JUMP JUMPDEST PUSH1 0x0 DUP1 REVERT JUMPDEST PUSH1 0x0 DUP1 REVERT JUMPDEST PUSH1 0x0 DUP2 SWAP1 POP SWAP2 SWAP1 POP JUMP JUMPDEST PUSH2 0x2F86 DUP2 PUSH2 0x2F73 JUMP JUMPDEST DUP2 EQ PUSH2 0x2F91 JUMPI PUSH1 0x0 DUP1 REVERT JUMPDEST POP JUMP JUMPDEST PUSH1 0x0 DUP2 CALLDATALOAD SWAP1 POP PUSH2 0x2FA3 DUP2 PUSH2 0x2F7D JUMP JUMPDEST SWAP3 SWAP2 POP POP JUMP JUMPDEST PUSH1 0x0 DUP1 PUSH1 0x40 DUP4 DUP6 SUB SLT ISZERO PUSH2 0x2FC0 JUMPI PUSH2 0x2FBF PUSH2 0x2F69 JUMP JUMPDEST JUMPDEST PUSH1 0x0 PUSH2 0x2FCE DUP6 DUP3 DUP7 ADD PUSH2 0x2F94 JUMP JUMPDEST SWAP3 POP POP PUSH1 0x20 PUSH2 0x2FDF DUP6 DUP3 DUP7 ADD PUSH2 0x2F94 JUMP JUMPDEST SWAP2 POP POP SWAP3 POP SWAP3 SWAP1 POP JUMP JUMPDEST PUSH1 0x0 PUSH20 0xFFFFFFFFFFFFFFFFFFFFFFFFFFFFFFFFFFFFFFFF DUP3 AND SWAP1 POP SWAP2 SWAP1 POP JUMP JUMPDEST PUSH1 0x0 PUSH2 0x3014 DUP3 PUSH2 0x2FE9 JUMP JUMPDEST SWAP1 POP SWAP2 SWAP1 POP JUMP JUMPDEST PUSH2 0x3024 DUP2 PUSH2 0x3009 JUMP JUMPDEST DUP2 EQ PUSH2 0x302F JUMPI PUSH1 0x0 DUP1 REVERT JUMPDEST POP JUMP JUMPDEST PUSH1 0x0 DUP2 CALLDATALOAD SWAP1 POP PUSH2 0x3041 DUP2 PUSH2 0x301B JUMP JUMPDEST SWAP3 SWAP2 POP POP JUMP JUMPDEST PUSH1 0x0 PUSH1 0x20 DUP3 DUP5 SUB SLT ISZERO PUSH2 0x305D JUMPI PUSH2 0x305C PUSH2 0x2F69 JUMP JUMPDEST JUMPDEST PUSH1 0x0 PUSH2 0x306B DUP5 DUP3 DUP6 ADD PUSH2 0x3032 JUMP JUMPDEST SWAP2 POP POP SWAP3 SWAP2 POP POP JUMP JUMPDEST PUSH1 0x0 DUP2 MLOAD SWAP1 POP SWAP2 SWAP1 POP JUMP JUMPDEST PUSH1 0x0 DUP3 DUP3 MSTORE PUSH1 0x20 DUP3 ADD SWAP1 POP SWAP3 SWAP2 POP POP JUMP JUMPDEST PUSH1 0x0 JUMPDEST DUP4 DUP2 LT ISZERO PUSH2 0x30AE JUMPI DUP1 DUP3 ADD MLOAD DUP2 DUP5 ADD MSTORE PUSH1 0x20 DUP2 ADD SWAP1 POP PUSH2 0x3093 JUMP JUMPDEST PUSH1 0x0 DUP5 DUP5 ADD MSTORE POP POP POP POP JUMP JUMPDEST PUSH1 0x0 PUSH1 0x1F NOT PUSH1 0x1F DUP4 ADD AND SWAP1 POP SWAP2 SWAP1 POP JUMP JUMPDEST PUSH1 0x0 PUSH2 0x30D6 DUP3 PUSH2 0x3074 JUMP JUMPDEST PUSH2 0x30E0 DUP2 DUP6 PUSH2 0x307F JUMP JUMPDEST SWAP4 POP PUSH2 0x30F0 DUP2 DUP6 PUSH1 0x20 DUP7 ADD PUSH2 0x3090 JUMP JUMPDEST PUSH2 0x30F9 DUP2 PUSH2 0x30BA JUMP JUMPDEST DUP5 ADD SWAP2 POP POP SWAP3 SWAP2 POP POP JUMP JUMPDEST PUSH1 0x0 PUSH1 0x20 DUP3 ADD SWAP1 POP DUP2 DUP2 SUB PUSH1 0x0 DUP4 ADD MSTORE PUSH2 0x311E DUP2 DUP5 PUSH2 0x30CB JUMP JUMPDEST SWAP1 POP SWAP3 SWAP2 POP POP JUMP JUMPDEST PUSH2 0x312F DUP2 PUSH2 0x2F73 JUMP JUMPDEST DUP3 MSTORE POP POP JUMP JUMPDEST PUSH1 0x0 PUSH1 0x20 DUP3 ADD SWAP1 POP PUSH2 0x314A PUSH1 0x0 DUP4 ADD DUP5 PUSH2 0x3126 JUMP JUMPDEST SWAP3 SWAP2 POP POP JUMP JUMPDEST PUSH1 0x0 PUSH2 0x315B DUP3 PUSH2 0x2FE9 JUMP JUMPDEST SWAP1 POP SWAP2 SWAP1 POP JUMP JUMPDEST PUSH2 0x316B DUP2 PUSH2 0x3150 JUMP JUMPDEST DUP2 EQ PUSH2 0x3176 JUMPI PUSH1 0x0 DUP1 REVERT JUMPDEST POP JUMP JUMPDEST PUSH1 0x0 DUP2 CALLDATALOAD SWAP1 POP PUSH2 0x3188 DUP2 PUSH2 0x3162 JUMP JUMPDEST SWAP3 SWAP2 POP POP JUMP JUMPDEST PUSH1 0x0 DUP1 REVERT JUMPDEST PUSH1 0x0 DUP1 REVERT JUMPDEST PUSH32 0x4E487B7100000000000000000000000000000000000000000000000000000000 PUSH1 0x0 MSTORE PUSH1 0x41 PUSH1 0x4 MSTORE PUSH1 0x24 PUSH1 0x0 REVERT JUMPDEST PUSH2 0x31D0 DUP3 PUSH2 0x30BA JUMP JUMPDEST DUP2 ADD DUP2 DUP2 LT PUSH8 0xFFFFFFFFFFFFFFFF DUP3 GT OR ISZERO PUSH2 0x31EF JUMPI PUSH2 0x31EE PUSH2 0x3198 JUMP JUMPDEST JUMPDEST DUP1 PUSH1 0x40 MSTORE POP POP POP JUMP JUMPDEST PUSH1 0x0 PUSH2 0x3202 PUSH2 0x2F5F JUMP JUMPDEST SWAP1 POP PUSH2 0x320E DUP3 DUP3 PUSH2 0x31C7 JUMP JUMPDEST SWAP2 SWAP1 POP JUMP JUMPDEST PUSH1 0x0 PUSH8 0xFFFFFFFFFFFFFFFF DUP3 GT ISZERO PUSH2 0x322E JUMPI PUSH2 0x322D PUSH2 0x3198 JUMP JUMPDEST JUMPDEST PUSH2 0x3237 DUP3 PUSH2 0x30BA JUMP JUMPDEST SWAP1 POP PUSH1 0x20 DUP2 ADD SWAP1 POP SWAP2 SWAP1 POP JUMP JUMPDEST DUP3 DUP2 DUP4 CALLDATACOPY PUSH1 0x0 DUP4 DUP4 ADD MSTORE POP POP POP JUMP JUMPDEST PUSH1 0x0 PUSH2 0x3266 PUSH2 0x3261 DUP5 PUSH2 0x3213 JUMP JUMPDEST PUSH2 0x31F8 JUMP JUMPDEST SWAP1 POP DUP3 DUP2 MSTORE PUSH1 0x20 DUP2 ADD DUP5 DUP5 DUP5 ADD GT ISZERO PUSH2 0x3282 JUMPI PUSH2 0x3281 PUSH2 0x3193 JUMP JUMPDEST JUMPDEST PUSH2 0x328D DUP5 DUP3 DUP6 PUSH2 0x3244 JUMP JUMPDEST POP SWAP4 SWAP3 POP POP POP JUMP JUMPDEST PUSH1 0x0 DUP3 PUSH1 0x1F DUP4 ADD SLT PUSH2 0x32AA JUMPI PUSH2 0x32A9 PUSH2 0x318E JUMP JUMPDEST JUMPDEST DUP2 CALLDATALOAD PUSH2 0x32BA DUP5 DUP3 PUSH1 0x20 DUP7 ADD PUSH2 0x3253 JUMP JUMPDEST SWAP2 POP POP SWAP3 SWAP2 POP POP JUMP JUMPDEST PUSH1 0x0 DUP1 PUSH1 0x0 PUSH1 0x60 DUP5 DUP7 SUB SLT ISZERO PUSH2 0x32DC JUMPI PUSH2 0x32DB PUSH2 0x2F69 JUMP JUMPDEST JUMPDEST PUSH1 0x0 PUSH2 0x32EA DUP7 DUP3 DUP8 ADD PUSH2 0x2F94 JUMP JUMPDEST SWAP4 POP POP PUSH1 0x20 PUSH2 0x32FB DUP7 DUP3 DUP8 ADD PUSH2 0x3179 JUMP JUMPDEST SWAP3 POP POP PUSH1 0x40 DUP5 ADD CALLDATALOAD PUSH8 0xFFFFFFFFFFFFFFFF DUP2 GT ISZERO PUSH2 0x331C JUMPI PUSH2 0x331B PUSH2 0x2F6E JUMP JUMPDEST JUMPDEST PUSH2 0x3328 DUP7 DUP3 DUP8 ADD PUSH2 0x3295 JUMP JUMPDEST SWAP2 POP POP SWAP3 POP SWAP3 POP SWAP3 JUMP JUMPDEST PUSH1 0x0 DUP2 MLOAD SWAP1 POP SWAP2 SWAP1 POP JUMP JUMPDEST PUSH1 0x0 DUP3 DUP3 MSTORE PUSH1 0x20 DUP3 ADD SWAP1 POP SWAP3 SWAP2 POP POP JUMP JUMPDEST PUSH1 0x0 DUP2 SWAP1 POP PUSH1 0x20 DUP3 ADD SWAP1 POP SWAP2 SWAP1 POP JUMP JUMPDEST PUSH2 0x3367 DUP2 PUSH2 0x3009 JUMP JUMPDEST DUP3 MSTORE POP POP JUMP JUMPDEST PUSH1 0x0 PUSH2 0x3379 DUP4 DUP4 PUSH2 0x335E JUMP JUMPDEST PUSH1 0x20 DUP4 ADD SWAP1 POP SWAP3 SWAP2 POP POP JUMP JUMPDEST PUSH1 0x0 PUSH1 0x20 DUP3 ADD SWAP1 POP SWAP2 SWAP1 POP JUMP JUMPDEST PUSH1 0x0 PUSH2 0x339D DUP3 PUSH2 0x3332 JUMP JUMPDEST PUSH2 0x33A7 DUP2 DUP6 PUSH2 0x333D JUMP JUMPDEST SWAP4 POP PUSH2 0x33B2 DUP4 PUSH2 0x334E JUMP JUMPDEST DUP1 PUSH1 0x0 JUMPDEST DUP4 DUP2 LT ISZERO PUSH2 0x33E3 JUMPI DUP2 MLOAD PUSH2 0x33CA DUP9 DUP3 PUSH2 0x336D JUMP JUMPDEST SWAP8 POP PUSH2 0x33D5 DUP4 PUSH2 0x3385 JUMP JUMPDEST SWAP3 POP POP PUSH1 0x1 DUP2 ADD SWAP1 POP PUSH2 0x33B6 JUMP JUMPDEST POP DUP6 SWAP4 POP POP POP POP SWAP3 SWAP2 POP POP JUMP JUMPDEST PUSH1 0x0 PUSH1 0x20 DUP3 ADD SWAP1 POP DUP2 DUP2 SUB PUSH1 0x0 DUP4 ADD MSTORE PUSH2 0x340A DUP2 DUP5 PUSH2 0x3392 JUMP JUMPDEST SWAP1 POP SWAP3 SWAP2 POP POP JUMP JUMPDEST PUSH1 0x0 PUSH1 0x20 DUP3 DUP5 SUB SLT ISZERO PUSH2 0x3428 JUMPI PUSH2 0x3427 PUSH2 0x2F69 JUMP JUMPDEST JUMPDEST PUSH1 0x0 PUSH2 0x3436 DUP5 DUP3 DUP6 ADD PUSH2 0x2F94 JUMP JUMPDEST SWAP2 POP POP SWAP3 SWAP2 POP POP JUMP JUMPDEST PUSH2 0x3448 DUP2 PUSH2 0x3150 JUMP JUMPDEST DUP3 MSTORE POP POP JUMP JUMPDEST PUSH2 0x3457 DUP2 PUSH2 0x3009 JUMP JUMPDEST DUP3 MSTORE POP POP JUMP JUMPDEST PUSH32 0x4E487B7100000000000000000000000000000000000000000000000000000000 PUSH1 0x0 MSTORE PUSH1 0x21 PUSH1 0x4 MSTORE PUSH1 0x24 PUSH1 0x0 REVERT JUMPDEST PUSH1 0x6 DUP2 LT PUSH2 0x349D JUMPI PUSH2 0x349C PUSH2 0x345D JUMP JUMPDEST JUMPDEST POP JUMP JUMPDEST PUSH1 0x0 DUP2 SWAP1 POP PUSH2 0x34AE DUP3 PUSH2 0x348C JUMP JUMPDEST SWAP2 SWAP1 POP JUMP JUMPDEST PUSH1 0x0 PUSH2 0x34BE DUP3 PUSH2 0x34A0 JUMP JUMPDEST SWAP1 POP SWAP2 SWAP1 POP JUMP JUMPDEST PUSH2 0x34CE DUP2 PUSH2 0x34B3 JUMP JUMPDEST DUP3 MSTORE POP POP JUMP JUMPDEST PUSH1 0x0 PUSH2 0x120 DUP3 ADD SWAP1 POP PUSH2 0x34EA PUSH1 0x0 DUP4 ADD DUP13 PUSH2 0x3126 JUMP JUMPDEST PUSH2 0x34F7 PUSH1 0x20 DUP4 ADD DUP12 PUSH2 0x343F JUMP JUMPDEST PUSH2 0x3504 PUSH1 0x40 DUP4 ADD DUP11 PUSH2 0x343F JUMP JUMPDEST PUSH2 0x3511 PUSH1 0x60 DUP4 ADD DUP10 PUSH2 0x343F JUMP JUMPDEST PUSH2 0x351E PUSH1 0x80 DUP4 ADD DUP9 PUSH2 0x344E JUMP JUMPDEST PUSH2 0x352B PUSH1 0xA0 DUP4 ADD DUP8 PUSH2 0x344E JUMP JUMPDEST PUSH2 0x3538 PUSH1 0xC0 DUP4 ADD DUP7 PUSH2 0x3126 JUMP JUMPDEST DUP2 DUP2 SUB PUSH1 0xE0 DUP4 ADD MSTORE PUSH2 0x354A DUP2 DUP6 PUSH2 0x30CB JUMP JUMPDEST SWAP1 POP PUSH2 0x355A PUSH2 0x100 DUP4 ADD DUP5 PUSH2 0x34C5 JUMP JUMPDEST SWAP11 SWAP10 POP POP POP POP POP POP POP POP POP POP JUMP JUMPDEST PUSH1 0x0 PUSH1 0x20 DUP3 ADD SWAP1 POP PUSH2 0x357D PUSH1 0x0 DUP4 ADD DUP5 PUSH2 0x344E JUMP JUMPDEST SWAP3 SWAP2 POP POP JUMP JUMPDEST PUSH1 0x0 DUP1 PUSH1 0x0 PUSH1 0x60 DUP5 DUP7 SUB SLT ISZERO PUSH2 0x359C JUMPI PUSH2 0x359B PUSH2 0x2F69 JUMP JUMPDEST JUMPDEST PUSH1 0x0 PUSH2 0x35AA DUP7 DUP3 DUP8 ADD PUSH2 0x3032 JUMP JUMPDEST SWAP4 POP POP PUSH1 0x20 DUP5 ADD CALLDATALOAD PUSH8 0xFFFFFFFFFFFFFFFF DUP2 GT ISZERO PUSH2 0x35CB JUMPI PUSH2 0x35CA PUSH2 0x2F6E JUMP JUMPDEST JUMPDEST PUSH2 0x35D7 DUP7 DUP3 DUP8 ADD PUSH2 0x3295 JUMP JUMPDEST SWAP3 POP POP PUSH1 0x40 DUP5 ADD CALLDATALOAD PUSH8 0xFFFFFFFFFFFFFFFF DUP2 GT ISZERO PUSH2 0x35F8 JUMPI PUSH2 0x35F7 PUSH2 0x2F6E JUMP JUMPDEST JUMPDEST PUSH2 0x3604 DUP7 DUP3 DUP8 ADD PUSH2 0x3295 JUMP JUMPDEST SWAP2 POP POP SWAP3 POP SWAP3 POP SWAP3 JUMP JUMPDEST PUSH1 0x0 DUP2 MLOAD SWAP1 POP SWAP2 SWAP1 POP JUMP JUMPDEST PUSH1 0x0 DUP3 DUP3 MSTORE PUSH1 0x20 DUP3 ADD SWAP1 POP SWAP3 SWAP2 POP POP JUMP JUMPDEST PUSH1 0x0 DUP2 SWAP1 POP PUSH1 0x20 DUP3 ADD SWAP1 POP SWAP2 SWAP1 POP JUMP JUMPDEST PUSH2 0x3643 DUP2 PUSH2 0x2F73 JUMP JUMPDEST DUP3 MSTORE POP POP JUMP JUMPDEST PUSH2 0x3652 DUP2 PUSH2 0x3150 JUMP JUMPDEST DUP3 MSTORE POP POP JUMP JUMPDEST PUSH1 0x0 PUSH1 0x3 SWAP1 POP SWAP2 SWAP1 POP JUMP JUMPDEST PUSH1 0x0 DUP2 SWAP1 POP SWAP3 SWAP2 POP POP JUMP JUMPDEST PUSH1 0x0 DUP2 SWAP1 POP SWAP2 SWAP1 POP JUMP JUMPDEST PUSH1 0x0 PUSH2 0x3684 DUP4 DUP4 PUSH2 0x363A JUMP JUMPDEST PUSH1 0x20 DUP4 ADD SWAP1 POP SWAP3 SWAP2 POP POP JUMP JUMPDEST PUSH1 0x0 PUSH1 0x20 DUP3 ADD SWAP1 POP SWAP2 SWAP1 POP JUMP JUMPDEST PUSH2 0x36A6 DUP2 PUSH2 0x3658 JUMP JUMPDEST PUSH2 0x36B0 DUP2 DUP5 PUSH2 0x3663 JUMP JUMPDEST SWAP3 POP PUSH2 0x36BB DUP3 PUSH2 0x366E JUMP JUMPDEST DUP1 PUSH1 0x0 JUMPDEST DUP4 DUP2 LT ISZERO PUSH2 0x36EC JUMPI DUP2 MLOAD PUSH2 0x36D3 DUP8 DUP3 PUSH2 0x3678 JUMP JUMPDEST SWAP7 POP PUSH2 0x36DE DUP4 PUSH2 0x3690 JUMP JUMPDEST SWAP3 POP POP PUSH1 0x1 DUP2 ADD SWAP1 POP PUSH2 0x36BF JUMP JUMPDEST POP POP POP POP POP POP JUMP JUMPDEST PUSH1 0x0 DUP3 DUP3 MSTORE PUSH1 0x20 DUP3 ADD SWAP1 POP SWAP3 SWAP2 POP POP JUMP JUMPDEST PUSH1 0x0 PUSH2 0x3710 DUP3 PUSH2 0x3074 JUMP JUMPDEST PUSH2 0x371A DUP2 DUP6 PUSH2 0x36F4 JUMP JUMPDEST SWAP4 POP PUSH2 0x372A DUP2 DUP6 PUSH1 0x20 DUP7 ADD PUSH2 0x3090 JUMP JUMPDEST PUSH2 0x3733 DUP2 PUSH2 0x30BA JUMP JUMPDEST DUP5 ADD SWAP2 POP POP SWAP3 SWAP2 POP POP JUMP JUMPDEST PUSH2 0x3747 DUP2 PUSH2 0x34B3 JUMP JUMPDEST DUP3 MSTORE POP POP JUMP JUMPDEST PUSH1 0x0 PUSH1 0x6 SWAP1 POP SWAP2 SWAP1 POP JUMP JUMPDEST PUSH1 0x0 DUP2 SWAP1 POP SWAP3 SWAP2 POP POP JUMP JUMPDEST PUSH1 0x0 DUP2 SWAP1 POP SWAP2 SWAP1 POP JUMP JUMPDEST PUSH1 0x0 PUSH1 0x20 DUP3 ADD SWAP1 POP SWAP2 SWAP1 POP JUMP JUMPDEST PUSH2 0x3783 DUP2 PUSH2 0x374D JUMP JUMPDEST PUSH2 0x378D DUP2 DUP5 PUSH2 0x3758 JUMP JUMPDEST SWAP3 POP PUSH2 0x3798 DUP3 PUSH2 0x3763 JUMP JUMPDEST DUP1 PUSH1 0x0 JUMPDEST DUP4 DUP2 LT ISZERO PUSH2 0x37C9 JUMPI DUP2 MLOAD PUSH2 0x37B0 DUP8 DUP3 PUSH2 0x3678 JUMP JUMPDEST SWAP7 POP PUSH2 0x37BB DUP4 PUSH2 0x376D JUMP JUMPDEST SWAP3 POP POP PUSH1 0x1 DUP2 ADD SWAP1 POP PUSH2 0x379C JUMP JUMPDEST POP POP POP POP POP POP JUMP JUMPDEST PUSH1 0x0 PUSH2 0x240 DUP4 ADD PUSH1 0x0 DUP4 ADD MLOAD PUSH2 0x37EA PUSH1 0x0 DUP7 ADD DUP3 PUSH2 0x363A JUMP JUMPDEST POP PUSH1 0x20 DUP4 ADD MLOAD PUSH2 0x37FD PUSH1 0x20 DUP7 ADD DUP3 PUSH2 0x3649 JUMP JUMPDEST POP PUSH1 0x40 DUP4 ADD MLOAD PUSH2 0x3810 PUSH1 0x40 DUP7 ADD DUP3 PUSH2 0x3649 JUMP JUMPDEST POP PUSH1 0x60 DUP4 ADD MLOAD PUSH2 0x3823 PUSH1 0x60 DUP7 ADD DUP3 PUSH2 0x3649 JUMP JUMPDEST POP PUSH1 0x80 DUP4 ADD MLOAD PUSH2 0x3836 PUSH1 0x80 DUP7 ADD DUP3 PUSH2 0x335E JUMP JUMPDEST POP PUSH1 0xA0 DUP4 ADD MLOAD PUSH2 0x3849 PUSH1 0xA0 DUP7 ADD DUP3 PUSH2 0x335E JUMP JUMPDEST POP PUSH1 0xC0 DUP4 ADD MLOAD PUSH2 0x385C PUSH1 0xC0 DUP7 ADD DUP3 PUSH2 0x363A JUMP JUMPDEST POP PUSH1 0xE0 DUP4 ADD MLOAD PUSH2 0x386F PUSH1 0xE0 DUP7 ADD DUP3 PUSH2 0x369D JUMP JUMPDEST POP PUSH2 0x100 DUP4 ADD MLOAD DUP5 DUP3 SUB PUSH2 0x140 DUP7 ADD MSTORE PUSH2 0x3889 DUP3 DUP3 PUSH2 0x3705 JUMP JUMPDEST SWAP2 POP POP PUSH2 0x120 DUP4 ADD MLOAD PUSH2 0x38A0 PUSH2 0x160 DUP7 ADD DUP3 PUSH2 0x373E JUMP JUMPDEST POP PUSH2 0x140 DUP4 ADD MLOAD PUSH2 0x38B5 PUSH2 0x180 DUP7 ADD DUP3 PUSH2 0x377A JUMP JUMPDEST POP DUP1 SWAP2 POP POP SWAP3 SWAP2 POP POP JUMP JUMPDEST PUSH1 0x0 PUSH2 0x38CC DUP4 DUP4 PUSH2 0x37D1 JUMP JUMPDEST SWAP1 POP SWAP3 SWAP2 POP POP JUMP JUMPDEST PUSH1 0x0 PUSH1 0x20 DUP3 ADD SWAP1 POP SWAP2 SWAP1 POP JUMP JUMPDEST PUSH1 0x0 PUSH2 0x38EC DUP3 PUSH2 0x360E JUMP JUMPDEST PUSH2 0x38F6 DUP2 DUP6 PUSH2 0x3619 JUMP JUMPDEST SWAP4 POP DUP4 PUSH1 0x20 DUP3 MUL DUP6 ADD PUSH2 0x3908 DUP6 PUSH2 0x362A JUMP JUMPDEST DUP1 PUSH1 0x0 JUMPDEST DUP6 DUP2 LT ISZERO PUSH2 0x3944 JUMPI DUP5 DUP5 SUB DUP10 MSTORE DUP2 MLOAD PUSH2 0x3925 DUP6 DUP3 PUSH2 0x38C0 JUMP JUMPDEST SWAP5 POP PUSH2 0x3930 DUP4 PUSH2 0x38D4 JUMP JUMPDEST SWAP3 POP PUSH1 0x20 DUP11 ADD SWAP10 POP POP PUSH1 0x1 DUP2 ADD SWAP1 POP PUSH2 0x390C JUMP JUMPDEST POP DUP3 SWAP8 POP DUP8 SWAP6 POP POP POP POP POP POP SWAP3 SWAP2 POP POP JUMP JUMPDEST PUSH1 0x0 PUSH1 0x20 DUP3 ADD SWAP1 POP DUP2 DUP2 SUB PUSH1 0x0 DUP4 ADD MSTORE PUSH2 0x3970 DUP2 DUP5 PUSH2 0x38E1 JUMP JUMPDEST SWAP1 POP SWAP3 SWAP2 POP POP JUMP JUMPDEST PUSH1 0x0 DUP2 SWAP1 POP SWAP3 SWAP2 POP POP JUMP JUMPDEST PUSH32 0x4469737472696275746F72000000000000000000000000000000000000000000 PUSH1 0x0 DUP3 ADD MSTORE POP JUMP JUMPDEST PUSH1 0x0 PUSH2 0x39B9 PUSH1 0xB DUP4 PUSH2 0x3978 JUMP JUMPDEST SWAP2 POP PUSH2 0x39C4 DUP3 PUSH2 0x3983 JUMP JUMPDEST PUSH1 0xB DUP3 ADD SWAP1 POP SWAP2 SWAP1 POP JUMP JUMPDEST PUSH1 0x0 PUSH2 0x39DA DUP3 PUSH2 0x39AC JUMP JUMPDEST SWAP2 POP DUP2 SWAP1 POP SWAP2 SWAP1 POP JUMP JUMPDEST PUSH32 0x4E487B7100000000000000000000000000000000000000000000000000000000 PUSH1 0x0 MSTORE PUSH1 0x22 PUSH1 0x4 MSTORE PUSH1 0x24 PUSH1 0x0 REVERT JUMPDEST PUSH1 0x0 PUSH1 0x2 DUP3 DIV SWAP1 POP PUSH1 0x1 DUP3 AND DUP1 PUSH2 0x3A2B JUMPI PUSH1 0x7F DUP3 AND SWAP2 POP JUMPDEST PUSH1 0x20 DUP3 LT DUP2 SUB PUSH2 0x3A3E JUMPI PUSH2 0x3A3D PUSH2 0x39E4 JUMP JUMPDEST JUMPDEST POP SWAP2 SWAP1 POP JUMP JUMPDEST PUSH1 0x0 DUP2 SWAP1 POP DUP2 PUSH1 0x0 MSTORE PUSH1 0x20 PUSH1 0x0 KECCAK256 SWAP1 POP SWAP2 SWAP1 POP JUMP JUMPDEST PUSH1 0x0 DUP2 SLOAD PUSH2 0x3A66 DUP2 PUSH2 0x3A13 JUMP JUMPDEST PUSH2 0x3A70 DUP2 DUP7 PUSH2 0x3978 JUMP JUMPDEST SWAP5 POP PUSH1 0x1 DUP3 AND PUSH1 0x0 DUP2 EQ PUSH2 0x3A8B JUMPI PUSH1 0x1 DUP2 EQ PUSH2 0x3AA0 JUMPI PUSH2 0x3AD3 JUMP JUMPDEST PUSH1 0xFF NOT DUP4 AND DUP7 MSTORE DUP2 ISZERO ISZERO DUP3 MUL DUP7 ADD SWAP4 POP PUSH2 0x3AD3 JUMP JUMPDEST PUSH2 0x3AA9 DUP6 PUSH2 0x3A44 JUMP JUMPDEST PUSH1 0x0 JUMPDEST DUP4 DUP2 LT ISZERO PUSH2 0x3ACB JUMPI DUP2 SLOAD DUP2 DUP10 ADD MSTORE PUSH1 0x1 DUP3 ADD SWAP2 POP PUSH1 0x20 DUP2 ADD SWAP1 POP PUSH2 0x3AAC JUMP JUMPDEST DUP4 DUP9 ADD SWAP6 POP POP POP JUMPDEST POP POP POP SWAP3 SWAP2 POP POP JUMP JUMPDEST PUSH1 0x0 PUSH2 0x3AE8 DUP3 DUP5 PUSH2 0x3A59 JUMP JUMPDEST SWAP2 POP DUP2 SWAP1 POP SWAP3 SWAP2 POP POP JUMP JUMPDEST PUSH32 0x4F6E6C79206469737472696275746F722063616E2063616C6C20746869732066 PUSH1 0x0 DUP3 ADD MSTORE PUSH32 0x756E6374696F6E2E000000000000000000000000000000000000000000000000 PUSH1 0x20 DUP3 ADD MSTORE POP JUMP JUMPDEST PUSH1 0x0 PUSH2 0x3B4F PUSH1 0x28 DUP4 PUSH2 0x307F JUMP JUMPDEST SWAP2 POP PUSH2 0x3B5A DUP3 PUSH2 0x3AF3 JUMP JUMPDEST PUSH1 0x40 DUP3 ADD SWAP1 POP SWAP2 SWAP1 POP JUMP JUMPDEST PUSH1 0x0 PUSH1 0x20 DUP3 ADD SWAP1 POP DUP2 DUP2 SUB PUSH1 0x0 DUP4 ADD MSTORE PUSH2 0x3B7E DUP2 PUSH2 0x3B42 JUMP JUMPDEST SWAP1 POP SWAP2 SWAP1 POP JUMP JUMPDEST PUSH32 0x536F796265616E73206D757374206265207061636B65642066697273742E0000 PUSH1 0x0 DUP3 ADD MSTORE POP JUMP JUMPDEST PUSH1 0x0 PUSH2 0x3BBB PUSH1 0x1E DUP4 PUSH2 0x307F JUMP JUMPDEST SWAP2 POP PUSH2 0x3BC6 DUP3 PUSH2 0x3B85 JUMP JUMPDEST PUSH1 0x20 DUP3 ADD SWAP1 POP SWAP2 SWAP1 POP JUMP JUMPDEST PUSH1 0x0 PUSH1 0x20 DUP3 ADD SWAP1 POP DUP2 DUP2 SUB PUSH1 0x0 DUP4 ADD MSTORE PUSH2 0x3BEA DUP2 PUSH2 0x3BAE JUMP JUMPDEST SWAP1 POP SWAP2 SWAP1 POP JUMP JUMPDEST PUSH32 0x4E487B7100000000000000000000000000000000000000000000000000000000 PUSH1 0x0 MSTORE PUSH1 0x32 PUSH1 0x4 MSTORE PUSH1 0x24 PUSH1 0x0 REVERT JUMPDEST PUSH32 0x4661726D65720000000000000000000000000000000000000000000000000000 PUSH1 0x0 DUP3 ADD MSTORE POP JUMP JUMPDEST PUSH1 0x0 PUSH2 0x3C56 PUSH1 0x6 DUP4 PUSH2 0x3978 JUMP JUMPDEST SWAP2 POP PUSH2 0x3C61 DUP3 PUSH2 0x3C20 JUMP JUMPDEST PUSH1 0x6 DUP3 ADD SWAP1 POP SWAP2 SWAP1 POP JUMP JUMPDEST PUSH1 0x0 PUSH2 0x3C77 DUP3 PUSH2 0x3C49 JUMP JUMPDEST SWAP2 POP DUP2 SWAP1 POP SWAP2 SWAP1 POP JUMP JUMPDEST PUSH32 0x4F6E6C79206661726D6572732063616E20706C616E7420736F796265616E2E00 PUSH1 0x0 DUP3 ADD MSTORE POP JUMP JUMPDEST PUSH1 0x0 PUSH2 0x3CB7 PUSH1 0x1F DUP4 PUSH2 0x307F JUMP JUMPDEST SWAP2 POP PUSH2 0x3CC2 DUP3 PUSH2 0x3C81 JUMP JUMPDEST PUSH1 0x20 DUP3 ADD SWAP1 POP SWAP2 SWAP1 POP JUMP JUMPDEST PUSH1 0x0 PUSH1 0x20 DUP3 ADD SWAP1 POP DUP2 DUP2 SUB PUSH1 0x0 DUP4 ADD MSTORE PUSH2 0x3CE6 DUP2 PUSH2 0x3CAA JUMP JUMPDEST SWAP1 POP SWAP2 SWAP1 POP JUMP JUMPDEST PUSH32 0x536F796265616E73206D75737420626520706C616E7465642066697273742E00 PUSH1 0x0 DUP3 ADD MSTORE POP JUMP JUMPDEST PUSH1 0x0 PUSH2 0x3D23 PUSH1 0x1F DUP4 PUSH2 0x307F JUMP JUMPDEST SWAP2 POP PUSH2 0x3D2E DUP3 PUSH2 0x3CED JUMP JUMPDEST PUSH1 0x20 DUP3 ADD SWAP1 POP SWAP2 SWAP1 POP JUMP JUMPDEST PUSH1 0x0 PUSH1 0x20 DUP3 ADD SWAP1 POP DUP2 DUP2 SUB PUSH1 0x0 DUP4 ADD MSTORE PUSH2 0x3D52 DUP2 PUSH2 0x3D16 JUMP JUMPDEST SWAP1 POP SWAP2 SWAP1 POP JUMP JUMPDEST PUSH32 0x50726F636573736F720000000000000000000000000000000000000000000000 PUSH1 0x0 DUP3 ADD MSTORE POP JUMP JUMPDEST PUSH1 0x0 PUSH2 0x3D8F PUSH1 0x9 DUP4 PUSH2 0x3978 JUMP JUMPDEST SWAP2 POP PUSH2 0x3D9A DUP3 PUSH2 0x3D59 JUMP JUMPDEST PUSH1 0x9 DUP3 ADD SWAP1 POP SWAP2 SWAP1 POP JUMP JUMPDEST PUSH1 0x0 PUSH2 0x3DB0 DUP3 PUSH2 0x3D82 JUMP JUMPDEST SWAP2 POP DUP2 SWAP1 POP SWAP2 SWAP1 POP JUMP JUMPDEST PUSH32 0x4F6E6C792070726F636573736F722063616E2063616C6C20746869732066756E PUSH1 0x0 DUP3 ADD MSTORE PUSH32 0x6374696F6E2E0000000000000000000000000000000000000000000000000000 PUSH1 0x20 DUP3 ADD MSTORE POP JUMP JUMPDEST PUSH1 0x0 PUSH2 0x3E16 PUSH1 0x26 DUP4 PUSH2 0x307F JUMP JUMPDEST SWAP2 POP PUSH2 0x3E21 DUP3 PUSH2 0x3DBA JUMP JUMPDEST PUSH1 0x40 DUP3 ADD SWAP1 POP SWAP2 SWAP1 POP JUMP JUMPDEST PUSH1 0x0 PUSH1 0x20 DUP3 ADD SWAP1 POP DUP2 DUP2 SUB PUSH1 0x0 DUP4 ADD MSTORE PUSH2 0x3E45 DUP2 PUSH2 0x3E09 JUMP JUMPDEST SWAP1 POP SWAP2 SWAP1 POP JUMP JUMPDEST PUSH32 0x536F796265616E73206D75737420626520686172766573746564206669727374 PUSH1 0x0 DUP3 ADD MSTORE PUSH32 0x2E00000000000000000000000000000000000000000000000000000000000000 PUSH1 0x20 DUP3 ADD MSTORE POP JUMP JUMPDEST PUSH1 0x0 PUSH2 0x3EA8 PUSH1 0x21 DUP4 PUSH2 0x307F JUMP JUMPDEST SWAP2 POP PUSH2 0x3EB3 DUP3 PUSH2 0x3E4C JUMP JUMPDEST PUSH1 0x40 DUP3 ADD SWAP1 POP SWAP2 SWAP1 POP JUMP JUMPDEST PUSH1 0x0 PUSH1 0x20 DUP3 ADD SWAP1 POP DUP2 DUP2 SUB PUSH1 0x0 DUP4 ADD MSTORE PUSH2 0x3ED7 DUP2 PUSH2 0x3E9B JUMP JUMPDEST SWAP1 POP SWAP2 SWAP1 POP JUMP JUMPDEST PUSH1 0x0 PUSH1 0x20 PUSH1 0x1F DUP4 ADD DIV SWAP1 POP SWAP2 SWAP1 POP JUMP JUMPDEST PUSH1 0x0 DUP3 DUP3 SHL SWAP1 POP SWAP3 SWAP2 POP POP JUMP JUMPDEST PUSH1 0x0 PUSH1 0x8 DUP4 MUL PUSH2 0x3F2B PUSH32 0xFFFFFFFFFFFFFFFFFFFFFFFFFFFFFFFFFFFFFFFFFFFFFFFFFFFFFFFFFFFFFFFF DUP3 PUSH2 0x3EEE JUMP JUMPDEST PUSH2 0x3F35 DUP7 DUP4 PUSH2 0x3EEE JUMP JUMPDEST SWAP6 POP DUP1 NOT DUP5 AND SWAP4 POP DUP1 DUP7 AND DUP5 OR SWAP3 POP POP POP SWAP4 SWAP3 POP POP POP JUMP JUMPDEST PUSH1 0x0 DUP2 SWAP1 POP SWAP2 SWAP1 POP JUMP JUMPDEST PUSH1 0x0 PUSH2 0x3F72 PUSH2 0x3F6D PUSH2 0x3F68 DUP5 PUSH2 0x2F73 JUMP JUMPDEST PUSH2 0x3F4D JUMP JUMPDEST PUSH2 0x2F73 JUMP JUMPDEST SWAP1 POP SWAP2 SWAP1 POP JUMP JUMPDEST PUSH1 0x0 DUP2 SWAP1 POP SWAP2 SWAP1 POP JUMP JUMPDEST PUSH2 0x3F8C DUP4 PUSH2 0x3F57 JUMP JUMPDEST PUSH2 0x3FA0 PUSH2 0x3F98 DUP3 PUSH2 0x3F79 JUMP JUMPDEST DUP5 DUP5 SLOAD PUSH2 0x3EFB JUMP JUMPDEST DUP3 SSTORE POP POP POP POP JUMP JUMPDEST PUSH1 0x0 SWAP1 JUMP JUMPDEST PUSH2 0x3FB5 PUSH2 0x3FA8 JUMP JUMPDEST PUSH2 0x3FC0 DUP2 DUP5 DUP5 PUSH2 0x3F83 JUMP JUMPDEST POP POP POP JUMP JUMPDEST JUMPDEST DUP2 DUP2 LT ISZERO PUSH2 0x3FE4 JUMPI PUSH2 0x3FD9 PUSH1 0x0 DUP3 PUSH2 0x3FAD JUMP JUMPDEST PUSH1 0x1 DUP2 ADD SWAP1 POP PUSH2 0x3FC6 JUMP JUMPDEST POP POP JUMP JUMPDEST PUSH1 0x1F DUP3 GT ISZERO PUSH2 0x4029 JUMPI PUSH2 0x3FFA DUP2 PUSH2 0x3A44 JUMP JUMPDEST PUSH2 0x4003 DUP5 PUSH2 0x3EDE JUMP JUMPDEST DUP2 ADD PUSH1 0x20 DUP6 LT ISZERO PUSH2 0x4012 JUMPI DUP2 SWAP1 POP JUMPDEST PUSH2 0x4026 PUSH2 0x401E DUP6 PUSH2 0x3EDE JUMP JUMPDEST DUP4 ADD DUP3 PUSH2 0x3FC5 JUMP JUMPDEST POP POP JUMPDEST POP POP POP JUMP JUMPDEST PUSH1 0x0 DUP3 DUP3 SHR SWAP1 POP SWAP3 SWAP2 POP POP JUMP JUMPDEST PUSH1 0x0 PUSH2 0x404C PUSH1 0x0 NOT DUP5 PUSH1 0x8 MUL PUSH2 0x402E JUMP JUMPDEST NOT DUP1 DUP4 AND SWAP2 POP POP SWAP3 SWAP2 POP POP JUMP JUMPDEST PUSH1 0x0 PUSH2 0x4065 DUP4 DUP4 PUSH2 0x403B JUMP JUMPDEST SWAP2 POP DUP3 PUSH1 0x2 MUL DUP3 OR SWAP1 POP SWAP3 SWAP2 POP POP JUMP JUMPDEST PUSH2 0x407E DUP3 PUSH2 0x3074 JUMP JUMPDEST PUSH8 0xFFFFFFFFFFFFFFFF DUP2 GT ISZERO PUSH2 0x4097 JUMPI PUSH2 0x4096 PUSH2 0x3198 JUMP JUMPDEST JUMPDEST PUSH2 0x40A1 DUP3 SLOAD PUSH2 0x3A13 JUMP JUMPDEST PUSH2 0x40AC DUP3 DUP3 DUP6 PUSH2 0x3FE8 JUMP JUMPDEST PUSH1 0x0 PUSH1 0x20 SWAP1 POP PUSH1 0x1F DUP4 GT PUSH1 0x1 DUP2 EQ PUSH2 0x40DF JUMPI PUSH1 0x0 DUP5 ISZERO PUSH2 0x40CD JUMPI DUP3 DUP8 ADD MLOAD SWAP1 POP JUMPDEST PUSH2 0x40D7 DUP6 DUP3 PUSH2 0x4059 JUMP JUMPDEST DUP7 SSTORE POP PUSH2 0x413F JUMP JUMPDEST PUSH1 0x1F NOT DUP5 AND PUSH2 0x40ED DUP7 PUSH2 0x3A44 JUMP JUMPDEST PUSH1 0x0 JUMPDEST DUP3 DUP2 LT ISZERO PUSH2 0x4115 JUMPI DUP5 DUP10 ADD MLOAD DUP3 SSTORE PUSH1 0x1 DUP3 ADD SWAP2 POP PUSH1 0x20 DUP6 ADD SWAP5 POP PUSH1 0x20 DUP2 ADD SWAP1 POP PUSH2 0x40F0 JUMP JUMPDEST DUP7 DUP4 LT ISZERO PUSH2 0x4132 JUMPI DUP5 DUP10 ADD MLOAD PUSH2 0x412E PUSH1 0x1F DUP10 AND DUP3 PUSH2 0x403B JUMP JUMPDEST DUP4 SSTORE POP JUMPDEST PUSH1 0x1 PUSH1 0x2 DUP9 MUL ADD DUP9 SSTORE POP POP POP JUMPDEST POP POP POP POP POP POP JUMP JUMPDEST PUSH32 0x4E487B7100000000000000000000000000000000000000000000000000000000 PUSH1 0x0 MSTORE PUSH1 0x11 PUSH1 0x4 MSTORE PUSH1 0x24 PUSH1 0x0 REVERT JUMPDEST PUSH1 0x0 PUSH2 0x4181 DUP3 PUSH2 0x2F73 JUMP JUMPDEST SWAP2 POP PUSH32 0xFFFFFFFFFFFFFFFFFFFFFFFFFFFFFFFFFFFFFFFFFFFFFFFFFFFFFFFFFFFFFFFF DUP3 SUB PUSH2 0x41B3 JUMPI PUSH2 0x41B2 PUSH2 0x4147 JUMP JUMPDEST JUMPDEST PUSH1 0x1 DUP3 ADD SWAP1 POP SWAP2 SWAP1 POP JUMP JUMPDEST PUSH32 0x536F796265616E73206D7573742062652070726F636573736564206669727374 PUSH1 0x0 DUP3 ADD MSTORE PUSH32 0x2E00000000000000000000000000000000000000000000000000000000000000 PUSH1 0x20 DUP3 ADD MSTORE POP JUMP JUMPDEST PUSH1 0x0 PUSH2 0x421A PUSH1 0x21 DUP4 PUSH2 0x307F JUMP JUMPDEST SWAP2 POP PUSH2 0x4225 DUP3 PUSH2 0x41BE JUMP JUMPDEST PUSH1 0x40 DUP3 ADD SWAP1 POP SWAP2 SWAP1 POP JUMP JUMPDEST PUSH1 0x0 PUSH1 0x20 DUP3 ADD SWAP1 POP DUP2 DUP2 SUB PUSH1 0x0 DUP4 ADD MSTORE PUSH2 0x4249 DUP2 PUSH2 0x420D JUMP JUMPDEST SWAP1 POP SWAP2 SWAP1 POP JUMP JUMPDEST PUSH32 0x496E646578206F7574206F662072616E67650000000000000000000000000000 PUSH1 0x0 DUP3 ADD MSTORE POP JUMP JUMPDEST PUSH1 0x0 PUSH2 0x4286 PUSH1 0x12 DUP4 PUSH2 0x307F JUMP JUMPDEST SWAP2 POP PUSH2 0x4291 DUP3 PUSH2 0x4250 JUMP JUMPDEST PUSH1 0x20 DUP3 ADD SWAP1 POP SWAP2 SWAP1 POP JUMP JUMPDEST PUSH1 0x0 PUSH1 0x20 DUP3 ADD SWAP1 POP DUP2 DUP2 SUB PUSH1 0x0 DUP4 ADD MSTORE PUSH2 0x42B5 DUP2 PUSH2 0x4279 JUMP JUMPDEST SWAP1 POP SWAP2 SWAP1 POP JUMP JUMPDEST PUSH32 0x52657461696C6572000000000000000000000000000000000000000000000000 PUSH1 0x0 DUP3 ADD MSTORE POP JUMP JUMPDEST PUSH1 0x0 PUSH2 0x42F2 PUSH1 0x8 DUP4 PUSH2 0x3978 JUMP JUMPDEST SWAP2 POP PUSH2 0x42FD DUP3 PUSH2 0x42BC JUMP JUMPDEST PUSH1 0x8 DUP3 ADD SWAP1 POP SWAP2 SWAP1 POP JUMP JUMPDEST PUSH1 0x0 PUSH2 0x4313 DUP3 PUSH2 0x42E5 JUMP JUMPDEST SWAP2 POP DUP2 SWAP1 POP SWAP2 SWAP1 POP JUMP JUMPDEST PUSH32 0x4F6E6C792072657461696C65722063616E2063616C6C20746869732066756E63 PUSH1 0x0 DUP3 ADD MSTORE PUSH32 0x74696F6E2E000000000000000000000000000000000000000000000000000000 PUSH1 0x20 DUP3 ADD MSTORE POP JUMP JUMPDEST PUSH1 0x0 PUSH2 0x4379 PUSH1 0x25 DUP4 PUSH2 0x307F JUMP JUMPDEST SWAP2 POP PUSH2 0x4384 DUP3 PUSH2 0x431D JUMP JUMPDEST PUSH1 0x40 DUP3 ADD SWAP1 POP SWAP2 SWAP1 POP JUMP JUMPDEST PUSH1 0x0 PUSH1 0x20 DUP3 ADD SWAP1 POP DUP2 DUP2 SUB PUSH1 0x0 DUP4 ADD MSTORE PUSH2 0x43A8 DUP2 PUSH2 0x436C JUMP JUMPDEST SWAP1 POP SWAP2 SWAP1 POP JUMP JUMPDEST PUSH32 0x536F796265616E73206D75737420626520666F722073616C652066697273742E PUSH1 0x0 DUP3 ADD MSTORE POP JUMP JUMPDEST PUSH1 0x0 PUSH2 0x43E5 PUSH1 0x20 DUP4 PUSH2 0x307F JUMP JUMPDEST SWAP2 POP PUSH2 0x43F0 DUP3 PUSH2 0x43AF JUMP JUMPDEST PUSH1 0x20 DUP3 ADD SWAP1 POP SWAP2 SWAP1 POP JUMP JUMPDEST PUSH1 0x0 PUSH1 0x20 DUP3 ADD SWAP1 POP DUP2 DUP2 SUB PUSH1 0x0 DUP4 ADD MSTORE PUSH2 0x4414 DUP2 PUSH2 0x43D8 JUMP JUMPDEST SWAP1 POP SWAP2 SWAP1 POP JUMP JUMPDEST PUSH32 0x496E636F72726563742070726963652E00000000000000000000000000000000 PUSH1 0x0 DUP3 ADD MSTORE POP JUMP JUMPDEST PUSH1 0x0 PUSH2 0x4451 PUSH1 0x10 DUP4 PUSH2 0x307F JUMP JUMPDEST SWAP2 POP PUSH2 0x445C DUP3 PUSH2 0x441B JUMP JUMPDEST PUSH1 0x20 DUP3 ADD SWAP1 POP SWAP2 SWAP1 POP JUMP JUMPDEST PUSH1 0x0 PUSH1 0x20 DUP3 ADD SWAP1 POP DUP2 DUP2 SUB PUSH1 0x0 DUP4 ADD MSTORE PUSH2 0x4480 DUP2 PUSH2 0x4444 JUMP JUMPDEST SWAP1 POP SWAP2 SWAP1 POP JUMP JUMPDEST PUSH1 0x0 PUSH2 0x4492 DUP3 PUSH2 0x2F73 JUMP JUMPDEST SWAP2 POP PUSH2 0x449D DUP4 PUSH2 0x2F73 JUMP JUMPDEST SWAP3 POP DUP3 DUP3 SUB SWAP1 POP DUP2 DUP2 GT ISZERO PUSH2 0x44B5 JUMPI PUSH2 0x44B4 PUSH2 0x4147 JUMP JUMPDEST JUMPDEST SWAP3 SWAP2 POP POP JUMP INVALID LOG2 PUSH5 0x6970667358 0x22 SLT KECCAK256 0xE0 0x2B MSTORE8 PUSH3 0x59D8F5 0xB7 MSTORE LOG4 SIGNEXTEND LOG0 0xE9 0x29 DUP9 0x28 SWAP3 0xEE 0xCF DUP1 0xDB 0x27 0x2D 0xE1 0xC1 CREATE2 PUSH16 0xD721E1255764736F6C63430008120033 "},"methodIdentifiers":{"addAddress(address)":"38eada1c","admin()":"f851a440","assignRole(address,string,string)":"d3a2ab10","buySoybeans(uint256)":"bed85ead","getAddress(uint256)":"b93f9b0a","getAllAddresses()":"9516a104","getAllSoybeans()":"eef142ac","getName(address)":"5fd4b08a","getRole(address)":"44276733","harvestSoybeans(uint256,uint256)":"15ba42ca","names(address)":"5cf3d346","packSoybeans(uint256,uint256)":"9fdde230","plantSoybeans(uint256)":"99930620","processSoybeans(uint256,address,string)":"888b626d","roles(address)":"99374642","sellSoybeans(uint256,uint256)":"05a76a55","soybeanCounter()":"4770d7af","soybeans(uint256)":"9c1e501c"}}}}}