{
  "_format": "hh-sol-artifact-1",
  "contractName": "SoybeanSupplyChain",
  "sourceName": "contracts/SoybeanSupplyChain.sol",
  "abi": [
    {
      "inputs": [],
      "stateMutability": "nonpayable",
      "type": "constructor"
    },
    {
      "anonymous": false,
      "inputs": [
        {
          "indexed": true,
          "internalType": "address",
          "name": "distributor",
          "type": "address"
        },
        {
          "indexed": false,
          "internalType": "uint256",
          "name": "soybeanId",
          "type": "uint256"
        }
      ],
      "name": "ForSale",
      "type": "event"
    },
    {
      "anonymous": false,
      "inputs": [
        {
          "indexed": true,
          "internalType": "address",
          "name": "farmer",
          "type": "address"
        },
        {
          "indexed": false,
          "internalType": "uint256",
          "name": "soybeanId",
          "type": "uint256"
        }
      ],
      "name": "Harvesting",
      "type": "event"
    },
    {
      "anonymous": false,
      "inputs": [
        {
          "indexed": true,
          "internalType": "address",
          "name": "processor",
          "type": "address"
        },
        {
          "indexed": false,
          "internalType": "uint256",
          "name": "soybeanId",
          "type": "uint256"
        }
      ],
      "name": "Packing",
      "type": "event"
    },
    {
      "anonymous": false,
      "inputs": [
        {
          "indexed": true,
          "internalType": "address",
          "name": "farmer",
          "type": "address"
        },
        {
          "indexed": false,
          "internalType": "uint256",
          "name": "soybeanId",
          "type": "uint256"
        }
      ],
      "name": "Planting",
      "type": "event"
    },
    {
      "anonymous": false,
      "inputs": [
        {
          "indexed": true,
          "internalType": "address",
          "name": "processor",
          "type": "address"
        },
        {
          "indexed": false,
          "internalType": "uint256",
          "name": "soybeanId",
          "type": "uint256"
        }
      ],
      "name": "Processing",
      "type": "event"
    },
    {
      "anonymous": false,
      "inputs": [
        {
          "indexed": true,
          "internalType": "address",
          "name": "retailer",
          "type": "address"
        },
        {
          "indexed": true,
          "internalType": "address",
          "name": "consumer",
          "type": "address"
        },
        {
          "indexed": false,
          "internalType": "uint256",
          "name": "soybeanId",
          "type": "uint256"
        }
      ],
      "name": "Sold",
      "type": "event"
    },
    {
      "inputs": [
        {
          "internalType": "address",
          "name": "_address",
          "type": "address"
        }
      ],
      "name": "addAddress",
      "outputs": [],
      "stateMutability": "nonpayable",
      "type": "function"
    },
    {
      "inputs": [],
      "name": "admin",
      "outputs": [
        {
          "internalType": "address",
          "name": "",
          "type": "address"
        }
      ],
      "stateMutability": "view",
      "type": "function"
    },
    {
      "inputs": [
        {
          "internalType": "address",
          "name": "_address",
          "type": "address"
        },
        {
          "internalType": "string",
          "name": "_role",
          "type": "string"
        },
        {
          "internalType": "string",
          "name": "_name",
          "type": "string"
        }
      ],
      "name": "assignRole",
      "outputs": [],
      "stateMutability": "nonpayable",
      "type": "function"
    },
    {
      "inputs": [
        {
          "internalType": "uint256",
          "name": "_soybeanId",
          "type": "uint256"
        }
      ],
      "name": "buySoybeans",
      "outputs": [],
      "stateMutability": "payable",
      "type": "function"
    },
    {
      "inputs": [
        {
          "internalType": "uint256",
          "name": "index",
          "type": "uint256"
        }
      ],
      "name": "getAddress",
      "outputs": [
        {
          "internalType": "address",
          "name": "",
          "type": "address"
        }
      ],
      "stateMutability": "view",
      "type": "function"
    },
    {
      "inputs": [],
      "name": "getAllAddresses",
      "outputs": [
        {
          "internalType": "address[]",
          "name": "",
          "type": "address[]"
        }
      ],
      "stateMutability": "view",
      "type": "function"
    },
    {
      "inputs": [],
      "name": "getAllSoybeans",
      "outputs": [
        {
          "components": [
            {
              "internalType": "uint256",
              "name": "id",
              "type": "uint256"
            },
            {
              "internalType": "address payable",
              "name": "farmer",
              "type": "address"
            },
            {
              "internalType": "address payable",
              "name": "processor",
              "type": "address"
            },
            {
              "internalType": "address payable",
              "name": "distributor",
              "type": "address"
            },
            {
              "internalType": "address",
              "name": "retailer",
              "type": "address"
            },
            {
              "internalType": "address",
              "name": "consumer",
              "type": "address"
            },
            {
              "internalType": "uint256",
              "name": "quantity",
              "type": "uint256"
            },
            {
              "internalType": "uint256[3]",
              "name": "prices",
              "type": "uint256[3]"
            },
            {
              "internalType": "string",
              "name": "product",
              "type": "string"
            },
            {
              "internalType": "enum SoybeanSupplyChain.State",
              "name": "state",
              "type": "uint8"
            },
            {
              "internalType": "uint256[6]",
              "name": "timestamps",
              "type": "uint256[6]"
            }
          ],
          "internalType": "struct SoybeanSupplyChain.Soybean[]",
          "name": "",
          "type": "tuple[]"
        }
      ],
      "stateMutability": "view",
      "type": "function"
    },
    {
      "inputs": [
        {
          "internalType": "address",
          "name": "_addr",
          "type": "address"
        }
      ],
      "name": "getName",
      "outputs": [
        {
          "internalType": "string",
          "name": "",
          "type": "string"
        }
      ],
      "stateMutability": "view",
      "type": "function"
    },
    {
      "inputs": [
        {
          "internalType": "address",
          "name": "_addr",
          "type": "address"
        }
      ],
      "name": "getRole",
      "outputs": [
        {
          "internalType": "string",
          "name": "",
          "type": "string"
        }
      ],
      "stateMutability": "view",
      "type": "function"
    },
    {
      "inputs": [
        {
          "internalType": "uint256",
          "name": "_soybeanId",
          "type": "uint256"
        },
        {
          "internalType": "uint256",
          "name": "_price",
          "type": "uint256"
        }
      ],
      "name": "harvestSoybeans",
      "outputs": [],
      "stateMutability": "payable",
      "type": "function"
    },
    {
      "inputs": [
        {
          "internalType": "address",
          "name": "",
          "type": "address"
        }
      ],
      "name": "names",
      "outputs": [
        {
          "internalType": "string",
          "name": "",
          "type": "string"
        }
      ],
      "stateMutability": "view",
      "type": "function"
    },
    {
      "inputs": [
        {
          "internalType": "uint256",
          "name": "_soybeanId",
          "type": "uint256"
        },
        {
          "internalType": "uint256",
          "name": "_price",
          "type": "uint256"
        }
      ],
      "name": "packSoybeans",
      "outputs": [],
      "stateMutability": "payable",
      "type": "function"
    },
    {
      "inputs": [
        {
          "internalType": "uint256",
          "name": "_quantity",
          "type": "uint256"
        }
      ],
      "name": "plantSoybeans",
      "outputs": [],
      "stateMutability": "nonpayable",
      "type": "function"
    },
    {
      "inputs": [
        {
          "internalType": "uint256",
          "name": "_soybeanId",
          "type": "uint256"
        },
        {
          "internalType": "address payable",
          "name": "_processor",
          "type": "address"
        },
        {
          "internalType": "string",
          "name": "_product",
          "type": "string"
        }
      ],
      "name": "processSoybeans",
      "outputs": [],
      "stateMutability": "payable",
      "type": "function"
    },
    {
      "inputs": [
        {
          "internalType": "address",
          "name": "",
          "type": "address"
        }
      ],
      "name": "roles",
      "outputs": [
        {
          "internalType": "string",
          "name": "",
          "type": "string"
        }
      ],
      "stateMutability": "view",
      "type": "function"
    },
    {
      "inputs": [
        {
          "internalType": "uint256",
          "name": "_soybeanId",
          "type": "uint256"
        },
        {
          "internalType": "uint256",
          "name": "_price",
          "type": "uint256"
        }
      ],
      "name": "sellSoybeans",
      "outputs": [],
      "stateMutability": "payable",
      "type": "function"
    },
    {
      "inputs": [],
      "name": "soybeanCounter",
      "outputs": [
        {
          "internalType": "uint256",
          "name": "",
          "type": "uint256"
        }
      ],
      "stateMutability": "view",
      "type": "function"
    },
    {
      "inputs": [
        {
          "internalType": "uint256",
          "name": "",
          "type": "uint256"
        }
      ],
      "name": "soybeans",
      "outputs": [
        {
          "internalType": "uint256",
          "name": "id",
          "type": "uint256"
        },
        {
          "internalType": "address payable",
          "name": "farmer",
          "type": "address"
        },
        {
          "internalType": "address payable",
          "name": "processor",
          "type": "address"
        },
        {
          "internalType": "address payable",
          "name": "distributor",
          "type": "address"
        },
        {
          "internalType": "address",
          "name": "retailer",
          "type": "address"
        },
        {
          "internalType": "address",
          "name": "consumer",
          "type": "address"
        },
        {
          "internalType": "uint256",
          "name": "quantity",
          "type": "uint256"
        },
        {
          "internalType": "string",
          "name": "product",
          "type": "string"
        },
        {
          "internalType": "enum SoybeanSupplyChain.State",
          "name": "state",
          "type": "uint8"
        }
      ],
      "stateMutability": "view",
      "type": "function"
    }
  ],
  "bytecode": "0x60806040523480156200001157600080fd5b506200002e67e9a0b053c97c502160c01b6200003460201b60201c565b62000037565b50565b6144f180620000476000396000f3fe6080604052600436106101095760003560e01c80639937464211610095578063b93f9b0a11610064578063b93f9b0a1461035f578063bed85ead1461039c578063d3a2ab10146103b8578063eef142ac146103e1578063f851a4401461040c57610109565b8063993746421461029857806399930620146102d55780639c1e501c146102fe5780639fdde2301461034357610109565b80634770d7af116100dc5780634770d7af146101ac5780635cf3d346146101d75780635fd4b08a14610214578063888b626d146102515780639516a1041461026d57610109565b806305a76a551461010e57806315ba42ca1461012a57806338eada1c14610146578063442767331461016f575b600080fd5b61012860048036038101906101239190612fa9565b610437565b005b610144600480360381019061013f9190612fa9565b6108f0565b005b34801561015257600080fd5b5061016d60048036038101906101689190613047565b610c9b565b005b34801561017b57600080fd5b5061019660048036038101906101919190613047565b610d3d565b6040516101a39190613104565b60405180910390f35b3480156101b857600080fd5b506101c1610e4a565b6040516101ce9190613135565b60405180910390f35b3480156101e357600080fd5b506101fe60048036038101906101f99190613047565b610e50565b60405161020b9190613104565b60405180910390f35b34801561022057600080fd5b5061023b60048036038101906102369190613047565b610ef0565b6040516102489190613104565b60405180910390f35b61026b600480360381019061026691906132c3565b610ffd565b005b34801561027957600080fd5b506102826114ab565b60405161028f91906133f0565b60405180910390f35b3480156102a457600080fd5b506102bf60048036038101906102ba9190613047565b611575565b6040516102cc9190613104565b60405180910390f35b3480156102e157600080fd5b506102fc60048036038101906102f79190613412565b611615565b005b34801561030a57600080fd5b5061032560048036038101906103209190613412565b611b85565b60405161033a999897969594939291906134d4565b60405180910390f35b61035d60048036038101906103589190612fa9565b611d08565b005b34801561036b57600080fd5b5061038660048036038101906103819190613412565b6120b3565b6040516103939190613568565b60405180910390f35b6103b660048036038101906103b19190613412565b6121ce565b005b3480156103c457600080fd5b506103df60048036038101906103da9190613583565b612782565b005b3480156103ed57600080fd5b506103f66128e8565b6040516104039190613956565b60405180910390f35b34801561041857600080fd5b50610421612d71565b60405161042e9190613568565b60405180910390f35b61044b6753422a9181cc20a160c01b612d95565b61045f672517b07a1f673f7660c01b612d95565b61047367d4c1d29a220dc36f60c01b612d95565b6104876754d8535f29023d9a60c01b612d95565b61049b6759ea7c630bd02a8b60c01b612d95565b6040516020016104aa906139cf565b60405160208183030381529060405280519060200120600360003373ffffffffffffffffffffffffffffffffffffffff1673ffffffffffffffffffffffffffffffffffffffff16815260200190815260200160002060405160200161050f9190613adc565b6040516020818303038152906040528051906020012014610565576040517f08c379a000000000000000000000000000000000000000000000000000000000815260040161055c90613b65565b60405180910390fd5b6105796704048231f65e9b2c60c01b612d95565b61058d6755445d503ee50c1b60c01b612d95565b6105a1672b27651bcbeb573860c01b612d95565b6105b5675a90d6344616bebf60c01b612d95565b6105c967f1cd609e4ea68ca960c01b612d95565b6105dd671c6250f7a5b0f5c560c01b612d95565b6105f167cbb94a95802c44d160c01b612d95565b600360058111156106055761060461345d565b5b60026000848152602001908152602001600020600b0160009054906101000a900460ff16600581111561063b5761063a61345d565b5b1461067b576040517f08c379a000000000000000000000000000000000000000000000000000000000815260040161067290613bd1565b60405180910390fd5b61068f67032d24e632e1524260c01b612d95565b6106a3676db50b95fe3851fb60c01b612d95565b336002600084815260200190815260200160002060030160006101000a81548173ffffffffffffffffffffffffffffffffffffffff021916908373ffffffffffffffffffffffffffffffffffffffff16021790555061070c672155553e610a3e3a60c01b612d95565b806002600084815260200190815260200160002060070160026003811061073657610735613bf1565b5b018190555061074f67320ef841e01b692460c01b612d95565b610763679e2dba0f4837a0c160c01b612d95565b6002600083815260200190815260200160002060020160009054906101000a900473ffffffffffffffffffffffffffffffffffffffff1673ffffffffffffffffffffffffffffffffffffffff166108fc349081150290604051600060405180830381858888f193505050501580156107df573d6000803e3d6000fd5b506107f46702df739549fb471d60c01b612d95565b600460026000848152602001908152602001600020600b0160006101000a81548160ff0219169083600581111561082e5761082d61345d565b5b021790555061084767b33fd4c33e72a20660c01b612d95565b4260026000848152602001908152602001600020600c0160046006811061087157610870613bf1565b5b018190555061088a67cb4bb69f7f66eebe60c01b612d95565b61089e67421f14a5d1c2655c60c01b612d95565b3373ffffffffffffffffffffffffffffffffffffffff167fbdeee1f1fbccb405bb11b23aab22fce5084b092d5edb2c16a71dda656df59e87836040516108e49190613135565b60405180910390a25050565b61090467420d0460d6e32ac660c01b612d95565b61091867d3f75c6e0e195d8b60c01b612d95565b61092c676f5162b77689ac8760c01b612d95565b61094067ae01a1a9300f7edd60c01b612d95565b61095467d60cf597e50088c060c01b612d95565b60405160200161096390613c6c565b60405160208183030381529060405280519060200120600360003373ffffffffffffffffffffffffffffffffffffffff1673ffffffffffffffffffffffffffffffffffffffff1681526020019081526020016000206040516020016109c89190613adc565b6040516020818303038152906040528051906020012014610a1e576040517f08c379a0000000000000000000000000000000000000000000000000000000008152600401610a1590613ccd565b60405180910390fd5b610a326721e014a828fb39b860c01b612d95565b610a46676e0e043b0b08fae360c01b612d95565b610a5a671d963723bbfab3d960c01b612d95565b610a6e67f77c34410d77447260c01b612d95565b610a8267ea9371d6b76d6cd960c01b612d95565b610a966727e0dac40b05c4d860c01b612d95565b610aaa67ab467123fa369e4e60c01b612d95565b60006005811115610abe57610abd61345d565b5b60026000848152602001908152602001600020600b0160009054906101000a900460ff166005811115610af457610af361345d565b5b14610b34576040517f08c379a0000000000000000000000000000000000000000000000000000000008152600401610b2b90613d39565b60405180910390fd5b610b48670ec78fecc260b0a360c01b612d95565b610b5c677ee72330ceccab0f60c01b612d95565b600160026000848152602001908152602001600020600b0160006101000a81548160ff02191690836005811115610b9657610b9561345d565b5b0217905550610baf679b47edf1bfd4340c60c01b612d95565b8060026000848152602001908152602001600020600701600060038110610bd957610bd8613bf1565b5b0181905550610bf267bef288bc69c9919060c01b612d95565b4260026000848152602001908152602001600020600c01600160068110610c1c57610c1b613bf1565b5b0181905550610c3567a22e619d88265f2960c01b612d95565b610c49676cc363acb6eb0c5760c01b612d95565b3373ffffffffffffffffffffffffffffffffffffffff167f801ffc6837367a06890ec387f235b8ed31cdc72d39eb94be7424abeac4191bc883604051610c8f9190613135565b60405180910390a25050565b610caf67991074d1342b982060c01b612d95565b610cc3673e7f5d28a9df698960c01b612d95565b610cd7672bc6323ba690d61760c01b612d95565b6005819080600181540180825580915050600190039060005260206000200160009091909190916101000a81548173ffffffffffffffffffffffffffffffffffffffff021916908373ffffffffffffffffffffffffffffffffffffffff16021790555050565b6060610d53670d97f36b482fce7860c01b612d95565b610d6767db0a74ff691589c160c01b612d95565b610d7b672dad4296f045cbc560c01b612d95565b600360008373ffffffffffffffffffffffffffffffffffffffff1673ffffffffffffffffffffffffffffffffffffffff1681526020019081526020016000208054610dc590613a13565b80601f0160208091040260200160405190810160405280929190818152602001828054610df190613a13565b8015610e3e5780601f10610e1357610100808354040283529160200191610e3e565b820191906000526020600020905b815481529060010190602001808311610e2157829003601f168201915b50505050509050919050565b60015481565b60046020528060005260406000206000915090508054610e6f90613a13565b80601f0160208091040260200160405190810160405280929190818152602001828054610e9b90613a13565b8015610ee85780601f10610ebd57610100808354040283529160200191610ee8565b820191906000526020600020905b815481529060010190602001808311610ecb57829003601f168201915b505050505081565b6060610f0667297551a92af9e89d60c01b612d95565b610f1a6759b0909e952511f860c01b612d95565b610f2e67d6143c3192abb76860c01b612d95565b600460008373ffffffffffffffffffffffffffffffffffffffff1673ffffffffffffffffffffffffffffffffffffffff1681526020019081526020016000208054610f7890613a13565b80601f0160208091040260200160405190810160405280929190818152602001828054610fa490613a13565b8015610ff15780601f10610fc657610100808354040283529160200191610ff1565b820191906000526020600020905b815481529060010190602001808311610fd457829003601f168201915b50505050509050919050565b6110116720e20dd2ed149d0e60c01b612d95565b6110256753f2735d6e23a93760c01b612d95565b61103967026742436b5da63660c01b612d95565b61104d679e10b93b9b00a99e60c01b612d95565b61106167b7e202dee4aba48e60c01b612d95565b60405160200161107090613da5565b60405160208183030381529060405280519060200120600360003373ffffffffffffffffffffffffffffffffffffffff1673ffffffffffffffffffffffffffffffffffffffff1681526020019081526020016000206040516020016110d59190613adc565b604051602081830303815290604052805190602001201461112b576040517f08c379a000000000000000000000000000000000000000000000000000000000815260040161112290613e2c565b60405180910390fd5b61113f6721d42a64f025b5d260c01b612d95565b61115367f32d558b33a9096760c01b612d95565b61116767d3a59cd3977852fe60c01b612d95565b61117b67f84a83335134cb2d60c01b612d95565b61118f6722e15575b057a47a60c01b612d95565b6111a367f27713b793fe035e60c01b612d95565b6111b76789ebe50ba621aa2560c01b612d95565b600160058111156111cb576111ca61345d565b5b60026000858152602001908152602001600020600b0160009054906101000a900460ff1660058111156112015761120061345d565b5b14611241576040517f08c379a000000000000000000000000000000000000000000000000000000000815260040161123890613ebe565b60405180910390fd5b611255678085a1c999da047e60c01b612d95565b611269671e06ca3cb3c5909f60c01b612d95565b816002600085815260200190815260200160002060020160006101000a81548173ffffffffffffffffffffffffffffffffffffffff021916908373ffffffffffffffffffffffffffffffffffffffff1602179055506112d2671d72a30c87ced1db60c01b612d95565b6002806000858152602001908152602001600020600b0160006101000a81548160ff0219169083600581111561130b5761130a61345d565b5b02179055506113246743be15cdd1fcb8fd60c01b612d95565b8060026000858152602001908152602001600020600a0190816113479190614075565b5061135c676d81f694556c5de760c01b612d95565b611370677f66a7c051e39a1b60c01b612d95565b6002600084815260200190815260200160002060010160009054906101000a900473ffffffffffffffffffffffffffffffffffffffff1673ffffffffffffffffffffffffffffffffffffffff166108fc349081150290604051600060405180830381858888f193505050501580156113ec573d6000803e3d6000fd5b5061140167b8a3e7755611810260c01b612d95565b4260026000858152602001908152602001600020600c0160026006811061142b5761142a613bf1565b5b018190555061144467d0c835f71378835660c01b612d95565b6114586780328d84c5d9077e60c01b612d95565b8173ffffffffffffffffffffffffffffffffffffffff167f14cc943c2064293b374b4fa45a792ab03feab6d8c06b398296b52a76299166248460405161149e9190613135565b60405180910390a2505050565b60606114c167ff8dc20adf267ae860c01b612d95565b6114d5670586fdaa11afaed860c01b612d95565b6114e967ee99a91363109c3c60c01b612d95565b600580548060200260200160405190810160405280929190818152602001828054801561156b57602002820191906000526020600020905b8160009054906101000a900473ffffffffffffffffffffffffffffffffffffffff1673ffffffffffffffffffffffffffffffffffffffff1681526020019060010190808311611521575b5050505050905090565b6003602052806000526040600020600091509050805461159490613a13565b80601f01602080910402602001604051908101604052809291908181526020018280546115c090613a13565b801561160d5780601f106115e25761010080835404028352916020019161160d565b820191906000526020600020905b8154815290600101906020018083116115f057829003601f168201915b505050505081565b611629677a6373015a9ff47d60c01b612d95565b61163d67d3f75c6e0e195d8b60c01b612d95565b611651676f5162b77689ac8760c01b612d95565b61166567ae01a1a9300f7edd60c01b612d95565b61167967d60cf597e50088c060c01b612d95565b60405160200161168890613c6c565b60405160208183030381529060405280519060200120600360003373ffffffffffffffffffffffffffffffffffffffff1673ffffffffffffffffffffffffffffffffffffffff1681526020019081526020016000206040516020016116ed9190613adc565b6040516020818303038152906040528051906020012014611743576040517f08c379a000000000000000000000000000000000000000000000000000000000815260040161173a90613ccd565b60405180910390fd5b6117576721e014a828fb39b860c01b612d95565b61176b676e0e043b0b08fae360c01b612d95565b61177f670628e9e6ffbadbfb60c01b612d95565b611793675424f418d912a2d460c01b612d95565b6117a76786efc397eddcd44860c01b612d95565b600160008154809291906117ba90614176565b91905055506117d36741f39bb189c145b060c01b612d95565b60405180610160016040528060015481526020013373ffffffffffffffffffffffffffffffffffffffff168152602001600073ffffffffffffffffffffffffffffffffffffffff168152602001600073ffffffffffffffffffffffffffffffffffffffff168152602001600073ffffffffffffffffffffffffffffffffffffffff168152602001600073ffffffffffffffffffffffffffffffffffffffff16815260200182815260200160405180606001604052804281526020016000815260200160008152508152602001604051806020016040528060008152508152602001600060058111156118c8576118c761345d565b5b81526020016040518060c001604052804281526020016000815260200160008152602001600081526020016000815260200160008152508152506002600060015481526020019081526020016000206000820151816000015560208201518160010160006101000a81548173ffffffffffffffffffffffffffffffffffffffff021916908373ffffffffffffffffffffffffffffffffffffffff16021790555060408201518160020160006101000a81548173ffffffffffffffffffffffffffffffffffffffff021916908373ffffffffffffffffffffffffffffffffffffffff16021790555060608201518160030160006101000a81548173ffffffffffffffffffffffffffffffffffffffff021916908373ffffffffffffffffffffffffffffffffffffffff16021790555060808201518160040160006101000a81548173ffffffffffffffffffffffffffffffffffffffff021916908373ffffffffffffffffffffffffffffffffffffffff16021790555060a08201518160050160006101000a81548173ffffffffffffffffffffffffffffffffffffffff021916908373ffffffffffffffffffffffffffffffffffffffff16021790555060c0820151816006015560e082015181600701906003611aa5929190612d98565b5061010082015181600a019081611abc9190614075565b5061012082015181600b0160006101000a81548160ff02191690836005811115611ae957611ae861345d565b5b021790555061014082015181600c01906006611b06929190612dd8565b50905050611b1e673d7ad12283ef461960c01b612d95565b611b3267be5387c12ce844f660c01b612d95565b3373ffffffffffffffffffffffffffffffffffffffff167f586abcf7dbfbb5987208ae52757e459ec686b28c6b758884c4ba3db92ecaa350600154604051611b7a9190613135565b60405180910390a250565b60026020528060005260406000206000915090508060000154908060010160009054906101000a900473ffffffffffffffffffffffffffffffffffffffff16908060020160009054906101000a900473ffffffffffffffffffffffffffffffffffffffff16908060030160009054906101000a900473ffffffffffffffffffffffffffffffffffffffff16908060040160009054906101000a900473ffffffffffffffffffffffffffffffffffffffff16908060050160009054906101000a900473ffffffffffffffffffffffffffffffffffffffff169080600601549080600a018054611c7290613a13565b80601f0160208091040260200160405190810160405280929190818152602001828054611c9e90613a13565b8015611ceb5780601f10611cc057610100808354040283529160200191611ceb565b820191906000526020600020905b815481529060010190602001808311611cce57829003601f168201915b50505050509080600b0160009054906101000a900460ff16905089565b611d1c67d1b40580bf0bee5960c01b612d95565b611d306753f2735d6e23a93760c01b612d95565b611d4467026742436b5da63660c01b612d95565b611d58679e10b93b9b00a99e60c01b612d95565b611d6c67b7e202dee4aba48e60c01b612d95565b604051602001611d7b90613da5565b60405160208183030381529060405280519060200120600360003373ffffffffffffffffffffffffffffffffffffffff1673ffffffffffffffffffffffffffffffffffffffff168152602001908152602001600020604051602001611de09190613adc565b6040516020818303038152906040528051906020012014611e36576040517f08c379a0000000000000000000000000000000000000000000000000000000008152600401611e2d90613e2c565b60405180910390fd5b611e4a6721d42a64f025b5d260c01b612d95565b611e5e67f32d558b33a9096760c01b612d95565b611e72670f09971774d0d92560c01b612d95565b611e8667497c7b8a74a3d93a60c01b612d95565b611e9a67ead455e0c2b07e2760c01b612d95565b611eae671440eae2ebffcc2160c01b612d95565b611ec2673c53f3b63acc223860c01b612d95565b60026005811115611ed657611ed561345d565b5b60026000848152602001908152602001600020600b0160009054906101000a900460ff166005811115611f0c57611f0b61345d565b5b14611f4c576040517f08c379a0000000000000000000000000000000000000000000000000000000008152600401611f4390614230565b60405180910390fd5b611f60670d71170d107c7ac860c01b612d95565b611f7467a4249150961e21f960c01b612d95565b600360026000848152602001908152602001600020600b0160006101000a81548160ff02191690836005811115611fae57611fad61345d565b5b0217905550611fc767fd9e81c3297ecf7160c01b612d95565b8060026000848152602001908152602001600020600701600160038110611ff157611ff0613bf1565b5b018190555061200a67906a9a2151598c0560c01b612d95565b4260026000848152602001908152602001600020600c0160036006811061203457612033613bf1565b5b018190555061204d67934584ab37c59b9260c01b612d95565b612061674818637f352d01a260c01b612d95565b3373ffffffffffffffffffffffffffffffffffffffff167fbe1568abc3183a5a97c7569bcba82cfe15c75fd66c0aa496a9af61d0e3d81050836040516120a79190613135565b60405180910390a25050565b60006120c96794830a13c437d4cc60c01b612d95565b6120dd676f537882220b5f0b60c01b612d95565b6120f16719430eacb5e34efe60c01b612d95565b612105679b55a78aedb4f98760c01b612d95565b600580549050821061214c576040517f08c379a00000000000000000000000000000000000000000000000000000000081526004016121439061429c565b60405180910390fd5b61216067676bd501f99c6d3b60c01b612d95565b612174676bc088a265183ac360c01b612d95565b61218867ad8a393a4bc9ca7c60c01b612d95565b6005828154811061219c5761219b613bf1565b5b9060005260206000200160009054906101000a900473ffffffffffffffffffffffffffffffffffffffff169050919050565b6121e267c9df20fd40ccb19360c01b612d95565b6121f6679100237d386d60d360c01b612d95565b61220a67b2e352d97b1a17d360c01b612d95565b61221e67d0fa717024528e2260c01b612d95565b61223267f2ced0171a119f2560c01b612d95565b60405160200161224190614308565b60405160208183030381529060405280519060200120600360003373ffffffffffffffffffffffffffffffffffffffff1673ffffffffffffffffffffffffffffffffffffffff1681526020019081526020016000206040516020016122a69190613adc565b60405160208183030381529060405280519060200120146122fc576040517f08c379a00000000000000000000000000000000000000000000000000000000081526004016122f39061438f565b60405180910390fd5b6123106744a21808fa999dae60c01b612d95565b6123246751512f8d9fca3acf60c01b612d95565b61233867e80543560db5922e60c01b612d95565b61234c679b9410aac83a31e760c01b612d95565b61236067016d0541ff3dc60060c01b612d95565b61237467dbed367293fe629660c01b612d95565b61238867ece5d2007b6eb09c60c01b612d95565b6004600581111561239c5761239b61345d565b5b60026000838152602001908152602001600020600b0160009054906101000a900460ff1660058111156123d2576123d161345d565b5b14612412576040517f08c379a0000000000000000000000000000000000000000000000000000000008152600401612409906143fb565b60405180910390fd5b61242667d48130598b301b8e60c01b612d95565b61243a677683c4457de932ad60c01b612d95565b61244e67ccfc35c5edb71be360c01b612d95565b6124626745a71afa733e364d60c01b612d95565b6002600082815260200190815260200160002060070160026003811061248b5761248a613bf1565b5b015434146124ce576040517f08c379a00000000000000000000000000000000000000000000000000000000081526004016124c590614467565b60405180910390fd5b6124e2678a51e27a4d0fdecb60c01b612d95565b6124f66758fcf478eb1bd18260c01b612d95565b336002600083815260200190815260200160002060040160006101000a81548173ffffffffffffffffffffffffffffffffffffffff021916908373ffffffffffffffffffffffffffffffffffffffff16021790555061255f679f62eb5d41f8883360c01b612d95565b612573673f4200f1578138fb60c01b612d95565b6002600082815260200190815260200160002060030160009054906101000a900473ffffffffffffffffffffffffffffffffffffffff1673ffffffffffffffffffffffffffffffffffffffff166108fc349081150290604051600060405180830381858888f193505050501580156125ef573d6000803e3d6000fd5b5061260467805dee6bbf7f3db760c01b612d95565b600560026000838152602001908152602001600020600b0160006101000a81548160ff0219169083600581111561263e5761263d61345d565b5b0217905550612657678870785b1feac87160c01b612d95565b4260026000838152602001908152602001600020600c0160056006811061268157612680613bf1565b5b018190555061269a6757fed87d7416c10060c01b612d95565b6126ae67be045055dc0f01fb60c01b612d95565b6002600082815260200190815260200160002060050160009054906101000a900473ffffffffffffffffffffffffffffffffffffffff1673ffffffffffffffffffffffffffffffffffffffff166002600083815260200190815260200160002060040160009054906101000a900473ffffffffffffffffffffffffffffffffffffffff1673ffffffffffffffffffffffffffffffffffffffff167ff3ecb4dab83f41da3035ff9cb3a2ef0c3027ebb89ae4e4b822d7c109e869a2fc836040516127779190613135565b60405180910390a350565b61279667100aa198179791a660c01b612d95565b6127aa67591b6449218ebcbd60c01b612d95565b81600360008573ffffffffffffffffffffffffffffffffffffffff1673ffffffffffffffffffffffffffffffffffffffff16815260200190815260200160002090816127f69190614075565b5061280b67833e79341374c5d460c01b612d95565b80600460008573ffffffffffffffffffffffffffffffffffffffff1673ffffffffffffffffffffffffffffffffffffffff16815260200190815260200160002090816128579190614075565b5061286c676a2d796e8cd7ea0b60c01b612d95565b61288067c69da43fd5b6238f60c01b612d95565b6005839080600181540180825580915050600190039060005260206000200160009091909190916101000a81548173ffffffffffffffffffffffffffffffffffffffff021916908373ffffffffffffffffffffffffffffffffffffffff160217905550505050565b60606128fe6753b2446b1c08da1860c01b612d95565b61291267ccbdb00df31f3eb160c01b612d95565b6129266782622782bde8d78860c01b612d95565b600060015467ffffffffffffffff81111561294457612943613198565b5b60405190808252806020026020018201604052801561297d57816020015b61296a612e18565b8152602001906001900390816129625790505b50905061299467ca05e503344f138260c01b612d95565b6129a867326102e171c7b60a60c01b612d95565b6000600190505b6001548111612d41576129cc67e6327bb83799f15760c01b612d95565b6002600082815260200190815260200160002060405180610160016040529081600082015481526020016001820160009054906101000a900473ffffffffffffffffffffffffffffffffffffffff1673ffffffffffffffffffffffffffffffffffffffff1673ffffffffffffffffffffffffffffffffffffffff1681526020016002820160009054906101000a900473ffffffffffffffffffffffffffffffffffffffff1673ffffffffffffffffffffffffffffffffffffffff1673ffffffffffffffffffffffffffffffffffffffff1681526020016003820160009054906101000a900473ffffffffffffffffffffffffffffffffffffffff1673ffffffffffffffffffffffffffffffffffffffff1673ffffffffffffffffffffffffffffffffffffffff1681526020016004820160009054906101000a900473ffffffffffffffffffffffffffffffffffffffff1673ffffffffffffffffffffffffffffffffffffffff1673ffffffffffffffffffffffffffffffffffffffff1681526020016005820160009054906101000a900473ffffffffffffffffffffffffffffffffffffffff1673ffffffffffffffffffffffffffffffffffffffff1673ffffffffffffffffffffffffffffffffffffffff1681526020016006820154815260200160078201600380602002604051908101604052809291908260038015612be9576020028201915b815481526020019060010190808311612bd5575b50505050508152602001600a82018054612c0290613a13565b80601f0160208091040260200160405190810160405280929190818152602001828054612c2e90613a13565b8015612c7b5780601f10612c5057610100808354040283529160200191612c7b565b820191906000526020600020905b815481529060010190602001808311612c5e57829003601f168201915b50505050508152602001600b820160009054906101000a900460ff166005811115612ca957612ca861345d565b5b6005811115612cbb57612cba61345d565b5b8152602001600c8201600680602002604051908101604052809291908260068015612cfb576020028201915b815481526020019060010190808311612ce7575b50505050508152505082600183612d129190614487565b81518110612d2357612d22613bf1565b5b60200260200101819052508080612d3990614176565b9150506129af565b50612d5667b0d8959f018bb61060c01b612d95565b612d6a67cd446fec1818072b60c01b612d95565b8091505090565b60008054906101000a900473ffffffffffffffffffffffffffffffffffffffff1681565b50565b8260038101928215612dc7579160200282015b82811115612dc6578251825591602001919060010190612dab565b5b509050612dd49190612efe565b5090565b8260068101928215612e07579160200282015b82811115612e06578251825591602001919060010190612deb565b5b509050612e149190612efe565b5090565b60405180610160016040528060008152602001600073ffffffffffffffffffffffffffffffffffffffff168152602001600073ffffffffffffffffffffffffffffffffffffffff168152602001600073ffffffffffffffffffffffffffffffffffffffff168152602001600073ffffffffffffffffffffffffffffffffffffffff168152602001600073ffffffffffffffffffffffffffffffffffffffff16815260200160008152602001612ecb612f1b565b81526020016060815260200160006005811115612eeb57612eea61345d565b5b8152602001612ef8612f3d565b81525090565b5b80821115612f17576000816000905550600101612eff565b5090565b6040518060600160405280600390602082028036833780820191505090505090565b6040518060c00160405280600690602082028036833780820191505090505090565b6000604051905090565b600080fd5b600080fd5b6000819050919050565b612f8681612f73565b8114612f9157600080fd5b50565b600081359050612fa381612f7d565b92915050565b60008060408385031215612fc057612fbf612f69565b5b6000612fce85828601612f94565b9250506020612fdf85828601612f94565b9150509250929050565b600073ffffffffffffffffffffffffffffffffffffffff82169050919050565b600061301482612fe9565b9050919050565b61302481613009565b811461302f57600080fd5b50565b6000813590506130418161301b565b92915050565b60006020828403121561305d5761305c612f69565b5b600061306b84828501613032565b91505092915050565b600081519050919050565b600082825260208201905092915050565b60005b838110156130ae578082015181840152602081019050613093565b60008484015250505050565b6000601f19601f8301169050919050565b60006130d682613074565b6130e0818561307f565b93506130f0818560208601613090565b6130f9816130ba565b840191505092915050565b6000602082019050818103600083015261311e81846130cb565b905092915050565b61312f81612f73565b82525050565b600060208201905061314a6000830184613126565b92915050565b600061315b82612fe9565b9050919050565b61316b81613150565b811461317657600080fd5b50565b60008135905061318881613162565b92915050565b600080fd5b600080fd5b7f4e487b7100000000000000000000000000000000000000000000000000000000600052604160045260246000fd5b6131d0826130ba565b810181811067ffffffffffffffff821117156131ef576131ee613198565b5b80604052505050565b6000613202612f5f565b905061320e82826131c7565b919050565b600067ffffffffffffffff82111561322e5761322d613198565b5b613237826130ba565b9050602081019050919050565b82818337600083830152505050565b600061326661326184613213565b6131f8565b90508281526020810184848401111561328257613281613193565b5b61328d848285613244565b509392505050565b600082601f8301126132aa576132a961318e565b5b81356132ba848260208601613253565b91505092915050565b6000806000606084860312156132dc576132db612f69565b5b60006132ea86828701612f94565b93505060206132fb86828701613179565b925050604084013567ffffffffffffffff81111561331c5761331b612f6e565b5b61332886828701613295565b9150509250925092565b600081519050919050565b600082825260208201905092915050565b6000819050602082019050919050565b61336781613009565b82525050565b6000613379838361335e565b60208301905092915050565b6000602082019050919050565b600061339d82613332565b6133a7818561333d565b93506133b28361334e565b8060005b838110156133e35781516133ca888261336d565b97506133d583613385565b9250506001810190506133b6565b5085935050505092915050565b6000602082019050818103600083015261340a8184613392565b905092915050565b60006020828403121561342857613427612f69565b5b600061343684828501612f94565b91505092915050565b61344881613150565b82525050565b61345781613009565b82525050565b7f4e487b7100000000000000000000000000000000000000000000000000000000600052602160045260246000fd5b6006811061349d5761349c61345d565b5b50565b60008190506134ae8261348c565b919050565b60006134be826134a0565b9050919050565b6134ce816134b3565b82525050565b6000610120820190506134ea600083018c613126565b6134f7602083018b61343f565b613504604083018a61343f565b613511606083018961343f565b61351e608083018861344e565b61352b60a083018761344e565b61353860c0830186613126565b81810360e083015261354a81856130cb565b905061355a6101008301846134c5565b9a9950505050505050505050565b600060208201905061357d600083018461344e565b92915050565b60008060006060848603121561359c5761359b612f69565b5b60006135aa86828701613032565b935050602084013567ffffffffffffffff8111156135cb576135ca612f6e565b5b6135d786828701613295565b925050604084013567ffffffffffffffff8111156135f8576135f7612f6e565b5b61360486828701613295565b9150509250925092565b600081519050919050565b600082825260208201905092915050565b6000819050602082019050919050565b61364381612f73565b82525050565b61365281613150565b82525050565b600060039050919050565b600081905092915050565b6000819050919050565b6000613684838361363a565b60208301905092915050565b6000602082019050919050565b6136a681613658565b6136b08184613663565b92506136bb8261366e565b8060005b838110156136ec5781516136d38782613678565b96506136de83613690565b9250506001810190506136bf565b505050505050565b600082825260208201905092915050565b600061371082613074565b61371a81856136f4565b935061372a818560208601613090565b613733816130ba565b840191505092915050565b613747816134b3565b82525050565b600060069050919050565b600081905092915050565b6000819050919050565b6000602082019050919050565b6137838161374d565b61378d8184613758565b925061379882613763565b8060005b838110156137c95781516137b08782613678565b96506137bb8361376d565b92505060018101905061379c565b505050505050565b6000610240830160008301516137ea600086018261363a565b5060208301516137fd6020860182613649565b5060408301516138106040860182613649565b5060608301516138236060860182613649565b506080830151613836608086018261335e565b5060a083015161384960a086018261335e565b5060c083015161385c60c086018261363a565b5060e083015161386f60e086018261369d565b506101008301518482036101408601526138898282613705565b9150506101208301516138a061016086018261373e565b506101408301516138b561018086018261377a565b508091505092915050565b60006138cc83836137d1565b905092915050565b6000602082019050919050565b60006138ec8261360e565b6138f68185613619565b9350836020820285016139088561362a565b8060005b85811015613944578484038952815161392585826138c0565b9450613930836138d4565b925060208a0199505060018101905061390c565b50829750879550505050505092915050565b6000602082019050818103600083015261397081846138e1565b905092915050565b600081905092915050565b7f4469737472696275746f72000000000000000000000000000000000000000000600082015250565b60006139b9600b83613978565b91506139c482613983565b600b82019050919050565b60006139da826139ac565b9150819050919050565b7f4e487b7100000000000000000000000000000000000000000000000000000000600052602260045260246000fd5b60006002820490506001821680613a2b57607f821691505b602082108103613a3e57613a3d6139e4565b5b50919050565b60008190508160005260206000209050919050565b60008154613a6681613a13565b613a708186613978565b94506001821660008114613a8b5760018114613aa057613ad3565b60ff1983168652811515820286019350613ad3565b613aa985613a44565b60005b83811015613acb57815481890152600182019150602081019050613aac565b838801955050505b50505092915050565b6000613ae88284613a59565b915081905092915050565b7f4f6e6c79206469737472696275746f722063616e2063616c6c2074686973206660008201527f756e6374696f6e2e000000000000000000000000000000000000000000000000602082015250565b6000613b4f60288361307f565b9150613b5a82613af3565b604082019050919050565b60006020820190508181036000830152613b7e81613b42565b9050919050565b7f536f796265616e73206d757374206265207061636b65642066697273742e0000600082015250565b6000613bbb601e8361307f565b9150613bc682613b85565b602082019050919050565b60006020820190508181036000830152613bea81613bae565b9050919050565b7f4e487b7100000000000000000000000000000000000000000000000000000000600052603260045260246000fd5b7f4661726d65720000000000000000000000000000000000000000000000000000600082015250565b6000613c56600683613978565b9150613c6182613c20565b600682019050919050565b6000613c7782613c49565b9150819050919050565b7f4f6e6c79206661726d6572732063616e20706c616e7420736f796265616e2e00600082015250565b6000613cb7601f8361307f565b9150613cc282613c81565b602082019050919050565b60006020820190508181036000830152613ce681613caa565b9050919050565b7f536f796265616e73206d75737420626520706c616e7465642066697273742e00600082015250565b6000613d23601f8361307f565b9150613d2e82613ced565b602082019050919050565b60006020820190508181036000830152613d5281613d16565b9050919050565b7f50726f636573736f720000000000000000000000000000000000000000000000600082015250565b6000613d8f600983613978565b9150613d9a82613d59565b600982019050919050565b6000613db082613d82565b9150819050919050565b7f4f6e6c792070726f636573736f722063616e2063616c6c20746869732066756e60008201527f6374696f6e2e0000000000000000000000000000000000000000000000000000602082015250565b6000613e1660268361307f565b9150613e2182613dba565b604082019050919050565b60006020820190508181036000830152613e4581613e09565b9050919050565b7f536f796265616e73206d7573742062652068617276657374656420666972737460008201527f2e00000000000000000000000000000000000000000000000000000000000000602082015250565b6000613ea860218361307f565b9150613eb382613e4c565b604082019050919050565b60006020820190508181036000830152613ed781613e9b565b9050919050565b60006020601f8301049050919050565b600082821b905092915050565b600060088302613f2b7fffffffffffffffffffffffffffffffffffffffffffffffffffffffffffffffff82613eee565b613f358683613eee565b95508019841693508086168417925050509392505050565b6000819050919050565b6000613f72613f6d613f6884612f73565b613f4d565b612f73565b9050919050565b6000819050919050565b613f8c83613f57565b613fa0613f9882613f79565b848454613efb565b825550505050565b600090565b613fb5613fa8565b613fc0818484613f83565b505050565b5b81811015613fe457613fd9600082613fad565b600181019050613fc6565b5050565b601f82111561402957613ffa81613a44565b61400384613ede565b81016020851015614012578190505b61402661401e85613ede565b830182613fc5565b50505b505050565b600082821c905092915050565b600061404c6000198460080261402e565b1980831691505092915050565b6000614065838361403b565b9150826002028217905092915050565b61407e82613074565b67ffffffffffffffff81111561409757614096613198565b5b6140a18254613a13565b6140ac828285613fe8565b600060209050601f8311600181146140df57600084156140cd578287015190505b6140d78582614059565b86555061413f565b601f1984166140ed86613a44565b60005b82811015614115578489015182556001820191506020850194506020810190506140f0565b86831015614132578489015161412e601f89168261403b565b8355505b6001600288020188555050505b505050505050565b7f4e487b7100000000000000000000000000000000000000000000000000000000600052601160045260246000fd5b600061418182612f73565b91507fffffffffffffffffffffffffffffffffffffffffffffffffffffffffffffffff82036141b3576141b2614147565b5b600182019050919050565b7f536f796265616e73206d7573742062652070726f63657373656420666972737460008201527f2e00000000000000000000000000000000000000000000000000000000000000602082015250565b600061421a60218361307f565b9150614225826141be565b604082019050919050565b600060208201905081810360008301526142498161420d565b9050919050565b7f496e646578206f7574206f662072616e67650000000000000000000000000000600082015250565b600061428660128361307f565b915061429182614250565b602082019050919050565b600060208201905081810360008301526142b581614279565b9050919050565b7f52657461696c6572000000000000000000000000000000000000000000000000600082015250565b60006142f2600883613978565b91506142fd826142bc565b600882019050919050565b6000614313826142e5565b9150819050919050565b7f4f6e6c792072657461696c65722063616e2063616c6c20746869732066756e6360008201527f74696f6e2e000000000000000000000000000000000000000000000000000000602082015250565b600061437960258361307f565b91506143848261431d565b604082019050919050565b600060208201905081810360008301526143a88161436c565b9050919050565b7f536f796265616e73206d75737420626520666f722073616c652066697273742e600082015250565b60006143e560208361307f565b91506143f0826143af565b602082019050919050565b60006020820190508181036000830152614414816143d8565b9050919050565b7f496e636f72726563742070726963652e00000000000000000000000000000000600082015250565b600061445160108361307f565b915061445c8261441b565b602082019050919050565b6000602082019050818103600083015261448081614444565b9050919050565b600061449282612f73565b915061449d83612f73565b92508282039050818111156144b5576144b4614147565b5b9291505056fea2646970667358221220e02b536259d8f5b752a40ba0e929882892eecf80db272de1c1f56fd721e1255764736f6c63430008120033",
  "linkReferences": {},
  "deployedLinkReferences": {}
}