{
  "contractName": "SoybeanSupplyChain",
  "abi": [
    {
      "inputs": [],
      "stateMutability": "nonpayable",
      "type": "constructor"
    },
    {
      "anonymous": false,
      "inputs": [
        {
          "indexed": true,
          "internalType": "address",
          "name": "distributor",
          "type": "address"
        },
        {
          "indexed": false,
          "internalType": "uint256",
          "name": "soybeanId",
          "type": "uint256"
        }
      ],
      "name": "ForSale",
      "type": "event"
    },
    {
      "anonymous": false,
      "inputs": [
        {
          "indexed": true,
          "internalType": "address",
          "name": "farmer",
          "type": "address"
        },
        {
          "indexed": false,
          "internalType": "uint256",
          "name": "soybeanId",
          "type": "uint256"
        }
      ],
      "name": "Harvesting",
      "type": "event"
    },
    {
      "anonymous": false,
      "inputs": [
        {
          "indexed": true,
          "internalType": "address",
          "name": "processor",
          "type": "address"
        },
        {
          "indexed": false,
          "internalType": "uint256",
          "name": "soybeanId",
          "type": "uint256"
        }
      ],
      "name": "Packing",
      "type": "event"
    },
    {
      "anonymous": false,
      "inputs": [
        {
          "indexed": true,
          "internalType": "address",
          "name": "farmer",
          "type": "address"
        },
        {
          "indexed": false,
          "internalType": "uint256",
          "name": "soybeanId",
          "type": "uint256"
        }
      ],
      "name": "Planting",
      "type": "event"
    },
    {
      "anonymous": false,
      "inputs": [
        {
          "indexed": true,
          "internalType": "address",
          "name": "processor",
          "type": "address"
        },
        {
          "indexed": false,
          "internalType": "uint256",
          "name": "soybeanId",
          "type": "uint256"
        }
      ],
      "name": "Processing",
      "type": "event"
    },
    {
      "anonymous": false,
      "inputs": [
        {
          "indexed": true,
          "internalType": "address",
          "name": "retailer",
          "type": "address"
        },
        {
          "indexed": true,
          "internalType": "address",
          "name": "consumer",
          "type": "address"
        },
        {
          "indexed": false,
          "internalType": "uint256",
          "name": "soybeanId",
          "type": "uint256"
        }
      ],
      "name": "Sold",
      "type": "event"
    },
    {
      "inputs": [],
      "name": "admin",
      "outputs": [
        {
          "internalType": "address",
          "name": "",
          "type": "address"
        }
      ],
      "stateMutability": "view",
      "type": "function",
      "constant": true
    },
    {
      "inputs": [
        {
          "internalType": "address",
          "name": "",
          "type": "address"
        }
      ],
      "name": "names",
      "outputs": [
        {
          "internalType": "string",
          "name": "",
          "type": "string"
        }
      ],
      "stateMutability": "view",
      "type": "function",
      "constant": true
    },
    {
      "inputs": [
        {
          "internalType": "address",
          "name": "",
          "type": "address"
        }
      ],
      "name": "roles",
      "outputs": [
        {
          "internalType": "string",
          "name": "",
          "type": "string"
        }
      ],
      "stateMutability": "view",
      "type": "function",
      "constant": true
    },
    {
      "inputs": [],
      "name": "soybeanCounter",
      "outputs": [
        {
          "internalType": "uint256",
          "name": "",
          "type": "uint256"
        }
      ],
      "stateMutability": "view",
      "type": "function",
      "constant": true
    },
    {
      "inputs": [
        {
          "internalType": "uint256",
          "name": "",
          "type": "uint256"
        }
      ],
      "name": "soybeans",
      "outputs": [
        {
          "internalType": "uint256",
          "name": "id",
          "type": "uint256"
        },
        {
          "internalType": "address payable",
          "name": "farmer",
          "type": "address"
        },
        {
          "internalType": "address payable",
          "name": "processor",
          "type": "address"
        },
        {
          "internalType": "address payable",
          "name": "distributor",
          "type": "address"
        },
        {
          "internalType": "address",
          "name": "retailer",
          "type": "address"
        },
        {
          "internalType": "address",
          "name": "consumer",
          "type": "address"
        },
        {
          "internalType": "uint256",
          "name": "quantity",
          "type": "uint256"
        },
        {
          "internalType": "string",
          "name": "product",
          "type": "string"
        },
        {
          "internalType": "enum SoybeanSupplyChain.State",
          "name": "state",
          "type": "uint8"
        }
      ],
      "stateMutability": "view",
      "type": "function",
      "constant": true
    },
    {
      "inputs": [
        {
          "internalType": "address",
          "name": "_address",
          "type": "address"
        },
        {
          "internalType": "string",
          "name": "_role",
          "type": "string"
        },
        {
          "internalType": "string",
          "name": "_name",
          "type": "string"
        }
      ],
      "name": "assignRole",
      "outputs": [],
      "stateMutability": "nonpayable",
      "type": "function"
    },
    {
      "inputs": [
        {
          "internalType": "address",
          "name": "_addr",
          "type": "address"
        }
      ],
      "name": "getRole",
      "outputs": [
        {
          "internalType": "string",
          "name": "",
          "type": "string"
        }
      ],
      "stateMutability": "view",
      "type": "function",
      "constant": true
    },
    {
      "inputs": [
        {
          "internalType": "address",
          "name": "_addr",
          "type": "address"
        }
      ],
      "name": "getName",
      "outputs": [
        {
          "internalType": "string",
          "name": "",
          "type": "string"
        }
      ],
      "stateMutability": "view",
      "type": "function",
      "constant": true
    },
    {
      "inputs": [
        {
          "internalType": "address",
          "name": "_address",
          "type": "address"
        }
      ],
      "name": "addAddress",
      "outputs": [],
      "stateMutability": "nonpayable",
      "type": "function"
    },
    {
      "inputs": [
        {
          "internalType": "uint256",
          "name": "index",
          "type": "uint256"
        }
      ],
      "name": "getAddress",
      "outputs": [
        {
          "internalType": "address",
          "name": "",
          "type": "address"
        }
      ],
      "stateMutability": "view",
      "type": "function",
      "constant": true
    },
    {
      "inputs": [],
      "name": "getAllAddresses",
      "outputs": [
        {
          "internalType": "address[]",
          "name": "",
          "type": "address[]"
        }
      ],
      "stateMutability": "view",
      "type": "function",
      "constant": true
    },
    {
      "inputs": [
        {
          "internalType": "uint256",
          "name": "_quantity",
          "type": "uint256"
        }
      ],
      "name": "plantSoybeans",
      "outputs": [],
      "stateMutability": "nonpayable",
      "type": "function"
    },
    {
      "inputs": [
        {
          "internalType": "uint256",
          "name": "_soybeanId",
          "type": "uint256"
        },
        {
          "internalType": "uint256",
          "name": "_price",
          "type": "uint256"
        }
      ],
      "name": "harvestSoybeans",
      "outputs": [],
      "stateMutability": "payable",
      "type": "function",
      "payable": true
    },
    {
      "inputs": [
        {
          "internalType": "uint256",
          "name": "_soybeanId",
          "type": "uint256"
        },
        {
          "internalType": "address payable",
          "name": "_processor",
          "type": "address"
        },
        {
          "internalType": "string",
          "name": "_product",
          "type": "string"
        }
      ],
      "name": "processSoybeans",
      "outputs": [],
      "stateMutability": "payable",
      "type": "function",
      "payable": true
    },
    {
      "inputs": [
        {
          "internalType": "uint256",
          "name": "_soybeanId",
          "type": "uint256"
        },
        {
          "internalType": "uint256",
          "name": "_price",
          "type": "uint256"
        }
      ],
      "name": "packSoybeans",
      "outputs": [],
      "stateMutability": "payable",
      "type": "function",
      "payable": true
    },
    {
      "inputs": [
        {
          "internalType": "uint256",
          "name": "_soybeanId",
          "type": "uint256"
        },
        {
          "internalType": "uint256",
          "name": "_price",
          "type": "uint256"
        }
      ],
      "name": "sellSoybeans",
      "outputs": [],
      "stateMutability": "payable",
      "type": "function",
      "payable": true
    },
    {
      "inputs": [
        {
          "internalType": "uint256",
          "name": "_soybeanId",
          "type": "uint256"
        }
      ],
      "name": "buySoybeans",
      "outputs": [],
      "stateMutability": "payable",
      "type": "function",
      "payable": true
    },
    {
      "inputs": [],
      "name": "getAllSoybeans",
      "outputs": [
        {
          "components": [
            {
              "internalType": "uint256",
              "name": "id",
              "type": "uint256"
            },
            {
              "internalType": "address payable",
              "name": "farmer",
              "type": "address"
            },
            {
              "internalType": "address payable",
              "name": "processor",
              "type": "address"
            },
            {
              "internalType": "address payable",
              "name": "distributor",
              "type": "address"
            },
            {
              "internalType": "address",
              "name": "retailer",
              "type": "address"
            },
            {
              "internalType": "address",
              "name": "consumer",
              "type": "address"
            },
            {
              "internalType": "uint256",
              "name": "quantity",
              "type": "uint256"
            },
            {
              "internalType": "uint256[3]",
              "name": "prices",
              "type": "uint256[3]"
            },
            {
              "internalType": "string",
              "name": "product",
              "type": "string"
            },
            {
              "internalType": "enum SoybeanSupplyChain.State",
              "name": "state",
              "type": "uint8"
            },
            {
              "internalType": "uint256[6]",
              "name": "timestamps",
              "type": "uint256[6]"
            }
          ],
          "internalType": "struct SoybeanSupplyChain.Soybean[]",
          "name": "",
          "type": "tuple[]"
        }
      ],
      "stateMutability": "view",
      "type": "function",
      "constant": true
    }
  ],
  "bytecode": "0x608060405234801561001057600080fd5b50613972806100206000396000f3fe6080604052600436106101095760003560e01c80639937464211610095578063b93f9b0a11610064578063b93f9b0a1461035f578063bed85ead1461039c578063d3a2ab10146103b8578063eef142ac146103e1578063f851a4401461040c57610109565b8063993746421461029857806399930620146102d55780639c1e501c146102fe5780639fdde2301461034357610109565b80634770d7af116100dc5780634770d7af146101ac5780635cf3d346146101d75780635fd4b08a14610214578063888b626d146102515780639516a1041461026d57610109565b806305a76a551461010e57806315ba42ca1461012a57806338eada1c14610146578063442767331461016f575b600080fd5b6101286004803603810190610123919061242a565b610437565b005b610144600480360381019061013f919061242a565b61074c565b005b34801561015257600080fd5b5061016d600480360381019061016891906124c8565b61098f565b005b34801561017b57600080fd5b50610196600480360381019061019191906124c8565b6109f5565b6040516101a39190612585565b60405180910390f35b3480156101b857600080fd5b506101c1610ac6565b6040516101ce91906125b6565b60405180910390f35b3480156101e357600080fd5b506101fe60048036038101906101f991906124c8565b610acc565b60405161020b9190612585565b60405180910390f35b34801561022057600080fd5b5061023b600480360381019061023691906124c8565b610b6c565b6040516102489190612585565b60405180910390f35b61026b60048036038101906102669190612744565b610c3d565b005b34801561027957600080fd5b50610282610f47565b60405161028f9190612871565b60405180910390f35b3480156102a457600080fd5b506102bf60048036038101906102ba91906124c8565b610fd5565b6040516102cc9190612585565b60405180910390f35b3480156102e157600080fd5b506102fc60048036038101906102f79190612893565b611075565b005b34801561030a57600080fd5b5061032560048036038101906103209190612893565b6114e1565b60405161033a99989796959493929190612955565b60405180910390f35b61035d6004803603810190610358919061242a565b611664565b005b34801561036b57600080fd5b5061038660048036038101906103819190612893565b6118a7565b60405161039391906129e9565b60405180910390f35b6103b660048036038101906103b19190612893565b611936565b005b3480156103c457600080fd5b506103df60048036038101906103da9190612a04565b611d0a565b005b3480156103ed57600080fd5b506103f6611e0c565b6040516104039190612dd7565b60405180910390f35b34801561041857600080fd5b506104216121f5565b60405161042e91906129e9565b60405180910390f35b60405160200161044690612e50565b60405160208183030381529060405280519060200120600360003373ffffffffffffffffffffffffffffffffffffffff1673ffffffffffffffffffffffffffffffffffffffff1681526020019081526020016000206040516020016104ab9190612f5d565b6040516020818303038152906040528051906020012014610501576040517f08c379a00000000000000000000000000000000000000000000000000000000081526004016104f890612fe6565b60405180910390fd5b60036005811115610515576105146128de565b5b60026000848152602001908152602001600020600b0160009054906101000a900460ff16600581111561054b5761054a6128de565b5b1461058b576040517f08c379a000000000000000000000000000000000000000000000000000000000815260040161058290613052565b60405180910390fd5b336002600084815260200190815260200160002060030160006101000a81548173ffffffffffffffffffffffffffffffffffffffff021916908373ffffffffffffffffffffffffffffffffffffffff160217905550806002600084815260200190815260200160002060070160026003811061060a57610609613072565b5b01819055506002600083815260200190815260200160002060020160009054906101000a900473ffffffffffffffffffffffffffffffffffffffff1673ffffffffffffffffffffffffffffffffffffffff166108fc349081150290604051600060405180830381858888f1935050505015801561068b573d6000803e3d6000fd5b50600460026000848152602001908152602001600020600b0160006101000a81548160ff021916908360058111156106c6576106c56128de565b5b02179055504260026000848152602001908152602001600020600c016004600681106106f5576106f4613072565b5b01819055503373ffffffffffffffffffffffffffffffffffffffff167fbdeee1f1fbccb405bb11b23aab22fce5084b092d5edb2c16a71dda656df59e878360405161074091906125b6565b60405180910390a25050565b60405160200161075b906130ed565b60405160208183030381529060405280519060200120600360003373ffffffffffffffffffffffffffffffffffffffff1673ffffffffffffffffffffffffffffffffffffffff1681526020019081526020016000206040516020016107c09190612f5d565b6040516020818303038152906040528051906020012014610816576040517f08c379a000000000000000000000000000000000000000000000000000000000815260040161080d9061314e565b60405180910390fd5b6000600581111561082a576108296128de565b5b60026000848152602001908152602001600020600b0160009054906101000a900460ff1660058111156108605761085f6128de565b5b146108a0576040517f08c379a0000000000000000000000000000000000000000000000000000000008152600401610897906131ba565b60405180910390fd5b600160026000848152602001908152602001600020600b0160006101000a81548160ff021916908360058111156108da576108d96128de565b5b0217905550806002600084815260200190815260200160002060070160006003811061090957610908613072565b5b01819055504260026000848152602001908152602001600020600c0160016006811061093857610937613072565b5b01819055503373ffffffffffffffffffffffffffffffffffffffff167f801ffc6837367a06890ec387f235b8ed31cdc72d39eb94be7424abeac4191bc88360405161098391906125b6565b60405180910390a25050565b6005819080600181540180825580915050600190039060005260206000200160009091909190916101000a81548173ffffffffffffffffffffffffffffffffffffffff021916908373ffffffffffffffffffffffffffffffffffffffff16021790555050565b6060600360008373ffffffffffffffffffffffffffffffffffffffff1673ffffffffffffffffffffffffffffffffffffffff1681526020019081526020016000208054610a4190612e94565b80601f0160208091040260200160405190810160405280929190818152602001828054610a6d90612e94565b8015610aba5780601f10610a8f57610100808354040283529160200191610aba565b820191906000526020600020905b815481529060010190602001808311610a9d57829003601f168201915b50505050509050919050565b60015481565b60046020528060005260406000206000915090508054610aeb90612e94565b80601f0160208091040260200160405190810160405280929190818152602001828054610b1790612e94565b8015610b645780601f10610b3957610100808354040283529160200191610b64565b820191906000526020600020905b815481529060010190602001808311610b4757829003601f168201915b505050505081565b6060600460008373ffffffffffffffffffffffffffffffffffffffff1673ffffffffffffffffffffffffffffffffffffffff1681526020019081526020016000208054610bb890612e94565b80601f0160208091040260200160405190810160405280929190818152602001828054610be490612e94565b8015610c315780601f10610c0657610100808354040283529160200191610c31565b820191906000526020600020905b815481529060010190602001808311610c1457829003601f168201915b50505050509050919050565b604051602001610c4c90613226565b60405160208183030381529060405280519060200120600360003373ffffffffffffffffffffffffffffffffffffffff1673ffffffffffffffffffffffffffffffffffffffff168152602001908152602001600020604051602001610cb19190612f5d565b6040516020818303038152906040528051906020012014610d07576040517f08c379a0000000000000000000000000000000000000000000000000000000008152600401610cfe906132ad565b60405180910390fd5b60016005811115610d1b57610d1a6128de565b5b60026000858152602001908152602001600020600b0160009054906101000a900460ff166005811115610d5157610d506128de565b5b14610d91576040517f08c379a0000000000000000000000000000000000000000000000000000000008152600401610d889061333f565b60405180910390fd5b816002600085815260200190815260200160002060020160006101000a81548173ffffffffffffffffffffffffffffffffffffffff021916908373ffffffffffffffffffffffffffffffffffffffff1602179055506002806000858152602001908152602001600020600b0160006101000a81548160ff02191690836005811115610e1f57610e1e6128de565b5b02179055508060026000858152602001908152602001600020600a019081610e4791906134f6565b506002600084815260200190815260200160002060010160009054906101000a900473ffffffffffffffffffffffffffffffffffffffff1673ffffffffffffffffffffffffffffffffffffffff166108fc349081150290604051600060405180830381858888f19350505050158015610ec4573d6000803e3d6000fd5b504260026000858152602001908152602001600020600c01600260068110610eef57610eee613072565b5b01819055508173ffffffffffffffffffffffffffffffffffffffff167f14cc943c2064293b374b4fa45a792ab03feab6d8c06b398296b52a762991662484604051610f3a91906125b6565b60405180910390a2505050565b60606005805480602002602001604051908101604052809291908181526020018280548015610fcb57602002820191906000526020600020905b8160009054906101000a900473ffffffffffffffffffffffffffffffffffffffff1673ffffffffffffffffffffffffffffffffffffffff1681526020019060010190808311610f81575b5050505050905090565b60036020528060005260406000206000915090508054610ff490612e94565b80601f016020809104026020016040519081016040528092919081815260200182805461102090612e94565b801561106d5780601f106110425761010080835404028352916020019161106d565b820191906000526020600020905b81548152906001019060200180831161105057829003601f168201915b505050505081565b604051602001611084906130ed565b60405160208183030381529060405280519060200120600360003373ffffffffffffffffffffffffffffffffffffffff1673ffffffffffffffffffffffffffffffffffffffff1681526020019081526020016000206040516020016110e99190612f5d565b604051602081830303815290604052805190602001201461113f576040517f08c379a00000000000000000000000000000000000000000000000000000000081526004016111369061314e565b60405180910390fd5b60016000815480929190611152906135f7565b919050555060405180610160016040528060015481526020013373ffffffffffffffffffffffffffffffffffffffff168152602001600073ffffffffffffffffffffffffffffffffffffffff168152602001600073ffffffffffffffffffffffffffffffffffffffff168152602001600073ffffffffffffffffffffffffffffffffffffffff168152602001600073ffffffffffffffffffffffffffffffffffffffff168152602001828152602001604051806060016040528042815260200160008152602001600081525081526020016040518060200160405280600081525081526020016000600581111561124c5761124b6128de565b5b81526020016040518060c001604052804281526020016000815260200160008152602001600081526020016000815260200160008152508152506002600060015481526020019081526020016000206000820151816000015560208201518160010160006101000a81548173ffffffffffffffffffffffffffffffffffffffff021916908373ffffffffffffffffffffffffffffffffffffffff16021790555060408201518160020160006101000a81548173ffffffffffffffffffffffffffffffffffffffff021916908373ffffffffffffffffffffffffffffffffffffffff16021790555060608201518160030160006101000a81548173ffffffffffffffffffffffffffffffffffffffff021916908373ffffffffffffffffffffffffffffffffffffffff16021790555060808201518160040160006101000a81548173ffffffffffffffffffffffffffffffffffffffff021916908373ffffffffffffffffffffffffffffffffffffffff16021790555060a08201518160050160006101000a81548173ffffffffffffffffffffffffffffffffffffffff021916908373ffffffffffffffffffffffffffffffffffffffff16021790555060c0820151816006015560e082015181600701906003611429929190612219565b5061010082015181600a01908161144091906134f6565b5061012082015181600b0160006101000a81548160ff0219169083600581111561146d5761146c6128de565b5b021790555061014082015181600c0190600661148a929190612259565b509050503373ffffffffffffffffffffffffffffffffffffffff167f586abcf7dbfbb5987208ae52757e459ec686b28c6b758884c4ba3db92ecaa3506001546040516114d691906125b6565b60405180910390a250565b60026020528060005260406000206000915090508060000154908060010160009054906101000a900473ffffffffffffffffffffffffffffffffffffffff16908060020160009054906101000a900473ffffffffffffffffffffffffffffffffffffffff16908060030160009054906101000a900473ffffffffffffffffffffffffffffffffffffffff16908060040160009054906101000a900473ffffffffffffffffffffffffffffffffffffffff16908060050160009054906101000a900473ffffffffffffffffffffffffffffffffffffffff169080600601549080600a0180546115ce90612e94565b80601f01602080910402602001604051908101604052809291908181526020018280546115fa90612e94565b80156116475780601f1061161c57610100808354040283529160200191611647565b820191906000526020600020905b81548152906001019060200180831161162a57829003601f168201915b50505050509080600b0160009054906101000a900460ff16905089565b60405160200161167390613226565b60405160208183030381529060405280519060200120600360003373ffffffffffffffffffffffffffffffffffffffff1673ffffffffffffffffffffffffffffffffffffffff1681526020019081526020016000206040516020016116d89190612f5d565b604051602081830303815290604052805190602001201461172e576040517f08c379a0000000000000000000000000000000000000000000000000000000008152600401611725906132ad565b60405180910390fd5b60026005811115611742576117416128de565b5b60026000848152602001908152602001600020600b0160009054906101000a900460ff166005811115611778576117776128de565b5b146117b8576040517f08c379a00000000000000000000000000000000000000000000000000000000081526004016117af906136b1565b60405180910390fd5b600360026000848152602001908152602001600020600b0160006101000a81548160ff021916908360058111156117f2576117f16128de565b5b0217905550806002600084815260200190815260200160002060070160016003811061182157611820613072565b5b01819055504260026000848152602001908152602001600020600c016003600681106118505761184f613072565b5b01819055503373ffffffffffffffffffffffffffffffffffffffff167fbe1568abc3183a5a97c7569bcba82cfe15c75fd66c0aa496a9af61d0e3d810508360405161189b91906125b6565b60405180910390a25050565b600060058054905082106118f0576040517f08c379a00000000000000000000000000000000000000000000000000000000081526004016118e79061371d565b60405180910390fd5b6005828154811061190457611903613072565b5b9060005260206000200160009054906101000a900473ffffffffffffffffffffffffffffffffffffffff169050919050565b60405160200161194590613789565b60405160208183030381529060405280519060200120600360003373ffffffffffffffffffffffffffffffffffffffff1673ffffffffffffffffffffffffffffffffffffffff1681526020019081526020016000206040516020016119aa9190612f5d565b6040516020818303038152906040528051906020012014611a00576040517f08c379a00000000000000000000000000000000000000000000000000000000081526004016119f790613810565b60405180910390fd5b60046005811115611a1457611a136128de565b5b60026000838152602001908152602001600020600b0160009054906101000a900460ff166005811115611a4a57611a496128de565b5b14611a8a576040517f08c379a0000000000000000000000000000000000000000000000000000000008152600401611a819061387c565b60405180910390fd5b60026000828152602001908152602001600020600701600260038110611ab357611ab2613072565b5b01543414611af6576040517f08c379a0000000000000000000000000000000000000000000000000000000008152600401611aed906138e8565b60405180910390fd5b336002600083815260200190815260200160002060040160006101000a81548173ffffffffffffffffffffffffffffffffffffffff021916908373ffffffffffffffffffffffffffffffffffffffff1602179055506002600082815260200190815260200160002060030160009054906101000a900473ffffffffffffffffffffffffffffffffffffffff1673ffffffffffffffffffffffffffffffffffffffff166108fc349081150290604051600060405180830381858888f19350505050158015611bc7573d6000803e3d6000fd5b50600560026000838152602001908152602001600020600b0160006101000a81548160ff02191690836005811115611c0257611c016128de565b5b02179055504260026000838152602001908152602001600020600c01600560068110611c3157611c30613072565b5b01819055506002600082815260200190815260200160002060050160009054906101000a900473ffffffffffffffffffffffffffffffffffffffff1673ffffffffffffffffffffffffffffffffffffffff166002600083815260200190815260200160002060040160009054906101000a900473ffffffffffffffffffffffffffffffffffffffff1673ffffffffffffffffffffffffffffffffffffffff167ff3ecb4dab83f41da3035ff9cb3a2ef0c3027ebb89ae4e4b822d7c109e869a2fc83604051611cff91906125b6565b60405180910390a350565b81600360008573ffffffffffffffffffffffffffffffffffffffff1673ffffffffffffffffffffffffffffffffffffffff1681526020019081526020016000209081611d5691906134f6565b5080600460008573ffffffffffffffffffffffffffffffffffffffff1673ffffffffffffffffffffffffffffffffffffffff1681526020019081526020016000209081611da391906134f6565b506005839080600181540180825580915050600190039060005260206000200160009091909190916101000a81548173ffffffffffffffffffffffffffffffffffffffff021916908373ffffffffffffffffffffffffffffffffffffffff160217905550505050565b6060600060015467ffffffffffffffff811115611e2c57611e2b612619565b5b604051908082528060200260200182016040528015611e6557816020015b611e52612299565b815260200190600190039081611e4a5790505b5090506000600190505b60015481116121ed576002600082815260200190815260200160002060405180610160016040529081600082015481526020016001820160009054906101000a900473ffffffffffffffffffffffffffffffffffffffff1673ffffffffffffffffffffffffffffffffffffffff1673ffffffffffffffffffffffffffffffffffffffff1681526020016002820160009054906101000a900473ffffffffffffffffffffffffffffffffffffffff1673ffffffffffffffffffffffffffffffffffffffff1673ffffffffffffffffffffffffffffffffffffffff1681526020016003820160009054906101000a900473ffffffffffffffffffffffffffffffffffffffff1673ffffffffffffffffffffffffffffffffffffffff1673ffffffffffffffffffffffffffffffffffffffff1681526020016004820160009054906101000a900473ffffffffffffffffffffffffffffffffffffffff1673ffffffffffffffffffffffffffffffffffffffff1673ffffffffffffffffffffffffffffffffffffffff1681526020016005820160009054906101000a900473ffffffffffffffffffffffffffffffffffffffff1673ffffffffffffffffffffffffffffffffffffffff1673ffffffffffffffffffffffffffffffffffffffff1681526020016006820154815260200160078201600380602002604051908101604052809291908260038015612095576020028201915b815481526020019060010190808311612081575b50505050508152602001600a820180546120ae90612e94565b80601f01602080910402602001604051908101604052809291908181526020018280546120da90612e94565b80156121275780601f106120fc57610100808354040283529160200191612127565b820191906000526020600020905b81548152906001019060200180831161210a57829003601f168201915b50505050508152602001600b820160009054906101000a900460ff166005811115612155576121546128de565b5b6005811115612167576121666128de565b5b8152602001600c82016006806020026040519081016040528092919082600680156121a7576020028201915b815481526020019060010190808311612193575b505050505081525050826001836121be9190613908565b815181106121cf576121ce613072565b5b602002602001018190525080806121e5906135f7565b915050611e6f565b508091505090565b60008054906101000a900473ffffffffffffffffffffffffffffffffffffffff1681565b8260038101928215612248579160200282015b8281111561224757825182559160200191906001019061222c565b5b509050612255919061237f565b5090565b8260068101928215612288579160200282015b8281111561228757825182559160200191906001019061226c565b5b509050612295919061237f565b5090565b60405180610160016040528060008152602001600073ffffffffffffffffffffffffffffffffffffffff168152602001600073ffffffffffffffffffffffffffffffffffffffff168152602001600073ffffffffffffffffffffffffffffffffffffffff168152602001600073ffffffffffffffffffffffffffffffffffffffff168152602001600073ffffffffffffffffffffffffffffffffffffffff1681526020016000815260200161234c61239c565b8152602001606081526020016000600581111561236c5761236b6128de565b5b81526020016123796123be565b81525090565b5b80821115612398576000816000905550600101612380565b5090565b6040518060600160405280600390602082028036833780820191505090505090565b6040518060c00160405280600690602082028036833780820191505090505090565b6000604051905090565b600080fd5b600080fd5b6000819050919050565b612407816123f4565b811461241257600080fd5b50565b600081359050612424816123fe565b92915050565b60008060408385031215612441576124406123ea565b5b600061244f85828601612415565b925050602061246085828601612415565b9150509250929050565b600073ffffffffffffffffffffffffffffffffffffffff82169050919050565b60006124958261246a565b9050919050565b6124a58161248a565b81146124b057600080fd5b50565b6000813590506124c28161249c565b92915050565b6000602082840312156124de576124dd6123ea565b5b60006124ec848285016124b3565b91505092915050565b600081519050919050565b600082825260208201905092915050565b60005b8381101561252f578082015181840152602081019050612514565b60008484015250505050565b6000601f19601f8301169050919050565b6000612557826124f5565b6125618185612500565b9350612571818560208601612511565b61257a8161253b565b840191505092915050565b6000602082019050818103600083015261259f818461254c565b905092915050565b6125b0816123f4565b82525050565b60006020820190506125cb60008301846125a7565b92915050565b60006125dc8261246a565b9050919050565b6125ec816125d1565b81146125f757600080fd5b50565b600081359050612609816125e3565b92915050565b600080fd5b600080fd5b7f4e487b7100000000000000000000000000000000000000000000000000000000600052604160045260246000fd5b6126518261253b565b810181811067ffffffffffffffff821117156126705761266f612619565b5b80604052505050565b60006126836123e0565b905061268f8282612648565b919050565b600067ffffffffffffffff8211156126af576126ae612619565b5b6126b88261253b565b9050602081019050919050565b82818337600083830152505050565b60006126e76126e284612694565b612679565b90508281526020810184848401111561270357612702612614565b5b61270e8482856126c5565b509392505050565b600082601f83011261272b5761272a61260f565b5b813561273b8482602086016126d4565b91505092915050565b60008060006060848603121561275d5761275c6123ea565b5b600061276b86828701612415565b935050602061277c868287016125fa565b925050604084013567ffffffffffffffff81111561279d5761279c6123ef565b5b6127a986828701612716565b9150509250925092565b600081519050919050565b600082825260208201905092915050565b6000819050602082019050919050565b6127e88161248a565b82525050565b60006127fa83836127df565b60208301905092915050565b6000602082019050919050565b600061281e826127b3565b61282881856127be565b9350612833836127cf565b8060005b8381101561286457815161284b88826127ee565b975061285683612806565b925050600181019050612837565b5085935050505092915050565b6000602082019050818103600083015261288b8184612813565b905092915050565b6000602082840312156128a9576128a86123ea565b5b60006128b784828501612415565b91505092915050565b6128c9816125d1565b82525050565b6128d88161248a565b82525050565b7f4e487b7100000000000000000000000000000000000000000000000000000000600052602160045260246000fd5b6006811061291e5761291d6128de565b5b50565b600081905061292f8261290d565b919050565b600061293f82612921565b9050919050565b61294f81612934565b82525050565b60006101208201905061296b600083018c6125a7565b612978602083018b6128c0565b612985604083018a6128c0565b61299260608301896128c0565b61299f60808301886128cf565b6129ac60a08301876128cf565b6129b960c08301866125a7565b81810360e08301526129cb818561254c565b90506129db610100830184612946565b9a9950505050505050505050565b60006020820190506129fe60008301846128cf565b92915050565b600080600060608486031215612a1d57612a1c6123ea565b5b6000612a2b868287016124b3565b935050602084013567ffffffffffffffff811115612a4c57612a4b6123ef565b5b612a5886828701612716565b925050604084013567ffffffffffffffff811115612a7957612a786123ef565b5b612a8586828701612716565b9150509250925092565b600081519050919050565b600082825260208201905092915050565b6000819050602082019050919050565b612ac4816123f4565b82525050565b612ad3816125d1565b82525050565b600060039050919050565b600081905092915050565b6000819050919050565b6000612b058383612abb565b60208301905092915050565b6000602082019050919050565b612b2781612ad9565b612b318184612ae4565b9250612b3c82612aef565b8060005b83811015612b6d578151612b548782612af9565b9650612b5f83612b11565b925050600181019050612b40565b505050505050565b600082825260208201905092915050565b6000612b91826124f5565b612b9b8185612b75565b9350612bab818560208601612511565b612bb48161253b565b840191505092915050565b612bc881612934565b82525050565b600060069050919050565b600081905092915050565b6000819050919050565b6000602082019050919050565b612c0481612bce565b612c0e8184612bd9565b9250612c1982612be4565b8060005b83811015612c4a578151612c318782612af9565b9650612c3c83612bee565b925050600181019050612c1d565b505050505050565b600061024083016000830151612c6b6000860182612abb565b506020830151612c7e6020860182612aca565b506040830151612c916040860182612aca565b506060830151612ca46060860182612aca565b506080830151612cb760808601826127df565b5060a0830151612cca60a08601826127df565b5060c0830151612cdd60c0860182612abb565b5060e0830151612cf060e0860182612b1e565b50610100830151848203610140860152612d0a8282612b86565b915050610120830151612d21610160860182612bbf565b50610140830151612d36610180860182612bfb565b508091505092915050565b6000612d4d8383612c52565b905092915050565b6000602082019050919050565b6000612d6d82612a8f565b612d778185612a9a565b935083602082028501612d8985612aab565b8060005b85811015612dc55784840389528151612da68582612d41565b9450612db183612d55565b925060208a01995050600181019050612d8d565b50829750879550505050505092915050565b60006020820190508181036000830152612df18184612d62565b905092915050565b600081905092915050565b7f4469737472696275746f72000000000000000000000000000000000000000000600082015250565b6000612e3a600b83612df9565b9150612e4582612e04565b600b82019050919050565b6000612e5b82612e2d565b9150819050919050565b7f4e487b7100000000000000000000000000000000000000000000000000000000600052602260045260246000fd5b60006002820490506001821680612eac57607f821691505b602082108103612ebf57612ebe612e65565b5b50919050565b60008190508160005260206000209050919050565b60008154612ee781612e94565b612ef18186612df9565b94506001821660008114612f0c5760018114612f2157612f54565b60ff1983168652811515820286019350612f54565b612f2a85612ec5565b60005b83811015612f4c57815481890152600182019150602081019050612f2d565b838801955050505b50505092915050565b6000612f698284612eda565b915081905092915050565b7f4f6e6c79206469737472696275746f722063616e2063616c6c2074686973206660008201527f756e6374696f6e2e000000000000000000000000000000000000000000000000602082015250565b6000612fd0602883612500565b9150612fdb82612f74565b604082019050919050565b60006020820190508181036000830152612fff81612fc3565b9050919050565b7f536f796265616e73206d757374206265207061636b65642066697273742e0000600082015250565b600061303c601e83612500565b915061304782613006565b602082019050919050565b6000602082019050818103600083015261306b8161302f565b9050919050565b7f4e487b7100000000000000000000000000000000000000000000000000000000600052603260045260246000fd5b7f4661726d65720000000000000000000000000000000000000000000000000000600082015250565b60006130d7600683612df9565b91506130e2826130a1565b600682019050919050565b60006130f8826130ca565b9150819050919050565b7f4f6e6c79206661726d6572732063616e20706c616e7420736f796265616e2e00600082015250565b6000613138601f83612500565b915061314382613102565b602082019050919050565b600060208201905081810360008301526131678161312b565b9050919050565b7f536f796265616e73206d75737420626520706c616e7465642066697273742e00600082015250565b60006131a4601f83612500565b91506131af8261316e565b602082019050919050565b600060208201905081810360008301526131d381613197565b9050919050565b7f50726f636573736f720000000000000000000000000000000000000000000000600082015250565b6000613210600983612df9565b915061321b826131da565b600982019050919050565b600061323182613203565b9150819050919050565b7f4f6e6c792070726f636573736f722063616e2063616c6c20746869732066756e60008201527f6374696f6e2e0000000000000000000000000000000000000000000000000000602082015250565b6000613297602683612500565b91506132a28261323b565b604082019050919050565b600060208201905081810360008301526132c68161328a565b9050919050565b7f536f796265616e73206d7573742062652068617276657374656420666972737460008201527f2e00000000000000000000000000000000000000000000000000000000000000602082015250565b6000613329602183612500565b9150613334826132cd565b604082019050919050565b600060208201905081810360008301526133588161331c565b9050919050565b60006020601f8301049050919050565b600082821b905092915050565b6000600883026133ac7fffffffffffffffffffffffffffffffffffffffffffffffffffffffffffffffff8261336f565b6133b6868361336f565b95508019841693508086168417925050509392505050565b6000819050919050565b60006133f36133ee6133e9846123f4565b6133ce565b6123f4565b9050919050565b6000819050919050565b61340d836133d8565b613421613419826133fa565b84845461337c565b825550505050565b600090565b613436613429565b613441818484613404565b505050565b5b818110156134655761345a60008261342e565b600181019050613447565b5050565b601f8211156134aa5761347b81612ec5565b6134848461335f565b81016020851015613493578190505b6134a761349f8561335f565b830182613446565b50505b505050565b600082821c905092915050565b60006134cd600019846008026134af565b1980831691505092915050565b60006134e683836134bc565b9150826002028217905092915050565b6134ff826124f5565b67ffffffffffffffff81111561351857613517612619565b5b6135228254612e94565b61352d828285613469565b600060209050601f831160018114613560576000841561354e578287015190505b61355885826134da565b8655506135c0565b601f19841661356e86612ec5565b60005b8281101561359657848901518255600182019150602085019450602081019050613571565b868310156135b357848901516135af601f8916826134bc565b8355505b6001600288020188555050505b505050505050565b7f4e487b7100000000000000000000000000000000000000000000000000000000600052601160045260246000fd5b6000613602826123f4565b91507fffffffffffffffffffffffffffffffffffffffffffffffffffffffffffffffff8203613634576136336135c8565b5b600182019050919050565b7f536f796265616e73206d7573742062652070726f63657373656420666972737460008201527f2e00000000000000000000000000000000000000000000000000000000000000602082015250565b600061369b602183612500565b91506136a68261363f565b604082019050919050565b600060208201905081810360008301526136ca8161368e565b9050919050565b7f496e646578206f7574206f662072616e67650000000000000000000000000000600082015250565b6000613707601283612500565b9150613712826136d1565b602082019050919050565b60006020820190508181036000830152613736816136fa565b9050919050565b7f52657461696c6572000000000000000000000000000000000000000000000000600082015250565b6000613773600883612df9565b915061377e8261373d565b600882019050919050565b600061379482613766565b9150819050919050565b7f4f6e6c792072657461696c65722063616e2063616c6c20746869732066756e6360008201527f74696f6e2e000000000000000000000000000000000000000000000000000000602082015250565b60006137fa602583612500565b91506138058261379e565b604082019050919050565b60006020820190508181036000830152613829816137ed565b9050919050565b7f536f796265616e73206d75737420626520666f722073616c652066697273742e600082015250565b6000613866602083612500565b915061387182613830565b602082019050919050565b6000602082019050818103600083015261389581613859565b9050919050565b7f496e636f72726563742070726963652e00000000000000000000000000000000600082015250565b60006138d2601083612500565b91506138dd8261389c565b602082019050919050565b60006020820190508181036000830152613901816138c5565b9050919050565b6000613913826123f4565b915061391e836123f4565b9250828203905081811115613936576139356135c8565b5b9291505056fea2646970667358221220853fb01f33a2d52645d745b092f34038bb120dcaff2648a35e3ce2c5b0854f3c64736f6c63430008130033",
  "immutableReferences": {},
  "source": "// SPDX-License-Identifier: MIT\npragma solidity ^0.8.0;\n\ncontract SoybeanSupplyChain {\n    // Define the possible states of a soybean\n    enum State {\n        Planted, // Soybean has been planted\n        Harvested, // Soybean has been harvested\n        Processed, // Soybean has been processed\n        Packed, // Soybean has been packed\n        ForSale, // Soybean is ready to be sold\n        Sold // Soybean has been sold\n    }\n\n    // Define the properties of a soybean\n    struct Soybean {\n        uint id; // Unique ID of the soybean\n        address payable farmer; // Address of the farmer who planted the soybean\n        address payable processor; // Address of the processor who processed the soybean\n        address payable distributor; // Address of the distributor who will distribute the soybean\n        address retailer; // Address of the retailer who will sell the soybean\n        address consumer; // Address of the consumer who will buy the soybean\n        uint256 quantity; // Quantity of soybeans\n        uint256[3] prices; // Price of the soybean\n        string product; // Final product of the soybean\n        State state; // Current state of the soybean\n        uint256[6] timestamps; // Timestamps of various events in the lifecycle of the soybean\n        // 0 - planting\n        // 1 - harvesting\n        // 2 - processing\n        // 3 - packing\n        // 4 - for sale\n        // 5 - sold\n    }\n\n    // Define the address of the admin\n    address public admin;\n\n    // Define the counter for the soybean IDs\n    uint256 public soybeanCounter;\n\n    // Define a mapping of soybeans by ID\n    mapping(uint256 => Soybean) public soybeans;\n\n    // Define a mapping of roles by address\n    mapping(address => string) public roles;\n\n    // Define a mapping of names by address\n    mapping(address => string) public names;\n\n    // Define an array of addresses\n    address[] private addresses;\n\n    // Define events that will be emitted during various actions in the lifecycle of a soybean\n    event Planting(address indexed farmer, uint256 soybeanId);\n    event Harvesting(address indexed farmer, uint256 soybeanId);\n    event Processing(address indexed processor, uint256 soybeanId);\n    event Packing(address indexed processor, uint256 soybeanId);\n    event ForSale(address indexed distributor, uint256 soybeanId);\n    event Sold(\n        address indexed retailer,\n        address indexed consumer,\n        uint256 soybeanId\n    );\n\n    // Define the constructor\n    constructor() {}\n\n    // Define a modifier that ensures that the caller is a farmer\n    modifier onlyFarmer() {\n        require(\n            keccak256(abi.encodePacked(roles[msg.sender])) ==\n                keccak256(abi.encodePacked(\"Farmer\")),\n            \"Only farmers can plant soybean.\"\n        );\n        _;\n    }\n\n    // Define a modifier that ensures that the caller is a processor\n    modifier onlyProcessor() {\n        require(\n            keccak256(abi.encodePacked(roles[msg.sender])) ==\n                keccak256(abi.encodePacked(\"Processor\")),\n            \"Only processor can call this function.\"\n        );\n        _;\n    }\n\n    // Define a modifier that ensures that the caller is a distributor\n    modifier onlyDistributor() {\n        require(\n            keccak256(abi.encodePacked(roles[msg.sender])) ==\n                keccak256(abi.encodePacked(\"Distributor\")),\n            \"Only distributor can call this function.\"\n        );\n        _;\n    }\n\n    // Modifier for retailer\n    modifier onlyRetailer() {\n        require(\n            keccak256(abi.encodePacked(roles[msg.sender])) ==\n                keccak256(abi.encodePacked(\"Retailer\")),\n            \"Only retailer can call this function.\" // error message for invalid access\n        );\n        _;\n    }\n\n    // Modifier for consumer\n    modifier onlyConsumer() {\n        require(\n            keccak256(abi.encodePacked(roles[msg.sender])) ==\n                keccak256(abi.encodePacked(\"Consumer\")),\n            \"Only consumer can call this function.\" // error message for invalid access\n        );\n        _;\n    }\n\n    /* Function to assign roles */\n    function assignRole(\n        address _address,\n        string memory _role,\n        string memory _name\n    ) public {\n        roles[_address] = _role;\n        names[_address] = _name;\n        addresses.push(_address);\n    }\n\n    // Function to get role of an address\n    function getRole(address _addr) public view returns (string memory) {\n        return roles[_addr];\n    }\n\n    // Function to get name of an address\n    function getName(address _addr) public view returns (string memory) {\n        return names[_addr];\n    }\n\n    // Function to add an address\n    function addAddress(address _address) public {\n        addresses.push(_address);\n    }\n\n    // Function to get an address by index\n    function getAddress(uint index) public view returns (address) {\n        require(index < addresses.length, \"Index out of range\"); // error message for index out of range\n        return addresses[index];\n    }\n\n    // Function to get all addresses\n    function getAllAddresses() public view returns (address[] memory) {\n        return addresses;\n    }\n\n    /* Function to plant soybeans */\n    function plantSoybeans(uint _quantity) public onlyFarmer {\n        soybeanCounter++;\n        soybeans[soybeanCounter] = Soybean({\n            id: soybeanCounter,\n            farmer: payable(msg.sender),\n            processor: payable(address(0)),\n            distributor: payable(address(0)),\n            retailer: address(0),\n            consumer: address(0),\n            quantity: _quantity,\n            prices: [block.timestamp, 0, 0],\n            product: \"\",\n            state: State.Planted,\n            timestamps: [block.timestamp, 0, 0, 0, 0, 0] // set the first timestamp\n        });\n        emit Planting(msg.sender, soybeanCounter);\n    }\n\n    /* Function to harvest soybeans */\n    function harvestSoybeans(\n        uint256 _soybeanId,\n        uint256 _price\n    ) public payable onlyFarmer {\n        require(\n            soybeans[_soybeanId].state == State.Planted,\n            \"Soybeans must be planted first.\"\n        );\n        soybeans[_soybeanId].state = State.Harvested;\n        soybeans[_soybeanId].prices[0] = _price;\n        soybeans[_soybeanId].timestamps[1] = block.timestamp;\n\n        emit Harvesting(msg.sender, _soybeanId);\n    }\n\n    /* Function to process soybeans */\n    function processSoybeans(\n        uint256 _soybeanId,\n        address payable _processor,\n        string memory _product\n    ) public payable onlyProcessor {\n        require(\n            soybeans[_soybeanId].state == State.Harvested,\n            \"Soybeans must be harvested first.\" // error message for invalid state\n        );\n        soybeans[_soybeanId].processor = _processor;\n        soybeans[_soybeanId].state = State.Processed;\n        soybeans[_soybeanId].product = _product;\n        soybeans[_soybeanId].farmer.transfer(msg.value);\n        soybeans[_soybeanId].timestamps[2] = block.timestamp;\n\n        emit Processing(_processor, _soybeanId);\n    }\n\n    /* Function to pack soybeans */\n    function packSoybeans(\n        uint256 _soybeanId,\n        uint256 _price\n    ) public payable onlyProcessor {\n        require(\n            soybeans[_soybeanId].state == State.Processed,\n            \"Soybeans must be processed first.\"\n        );\n        soybeans[_soybeanId].state = State.Packed;\n        soybeans[_soybeanId].prices[1] = _price;\n        soybeans[_soybeanId].timestamps[3] = block.timestamp;\n        emit Packing(msg.sender, _soybeanId);\n    }\n\n    // This function is used by the distributor to sell soybeans to a retailer.\n    function sellSoybeans(\n        uint256 _soybeanId,\n        uint256 _price\n    ) public payable onlyDistributor {\n        // Check if the soybeans are in the correct state before selling them.\n        require(\n            soybeans[_soybeanId].state == State.Packed,\n            \"Soybeans must be packed first.\"\n        );\n        // Set the price of the soybeans and update their state to ForSale.\n        soybeans[_soybeanId].distributor = payable(msg.sender);\n        soybeans[_soybeanId].prices[2] = _price;\n        soybeans[_soybeanId].processor.transfer(msg.value);\n        soybeans[_soybeanId].state = State.ForSale;\n        // Record the timestamp and emit an event indicating that the soybeans are now for sale.\n        soybeans[_soybeanId].timestamps[4] = block.timestamp;\n        emit ForSale(msg.sender, _soybeanId);\n    }\n\n    // This function is used by a retailer to buy soybeans from a distributor.\n    function buySoybeans(uint256 _soybeanId) public payable onlyRetailer {\n        // Check if the soybeans are in the correct state before allowing the retailer to buy them.\n        require(\n            soybeans[_soybeanId].state == State.ForSale,\n            \"Soybeans must be for sale first.\"\n        );\n        // Check that the amount of Ether sent by the retailer is equal to the price of the soybeans.\n        require(\n            msg.value == soybeans[_soybeanId].prices[2],\n            \"Incorrect price.\"\n        );\n        // Record the retailer's address as the new owner of the soybeans and transfer the Ether to the distributor.\n        soybeans[_soybeanId].retailer = msg.sender;\n        soybeans[_soybeanId].distributor.transfer(msg.value);\n        // Update the state of the soybeans to Sold and record the timestamp.\n        soybeans[_soybeanId].state = State.Sold;\n        soybeans[_soybeanId].timestamps[5] = block.timestamp;\n        // Emit an event indicating that the soybeans have been sold.\n        emit Sold(\n            soybeans[_soybeanId].retailer,\n            soybeans[_soybeanId].consumer,\n            _soybeanId\n        );\n    }\n\n    // This function returns all soybeans in the system\n    function getAllSoybeans() public view returns (Soybean[] memory) {\n        // Create a new array of Soybean type with length of the current number of soybeans\n        Soybean[] memory allSoybeans = new Soybean[](soybeanCounter);\n        // Loop through all soybeans and add them to the array\n        for (uint256 i = 1; i <= soybeanCounter; i++) {\n            allSoybeans[i - 1] = soybeans[i];\n        }\n        // Return the array of all soybeans\n        return allSoybeans;\n    }\n}\n",
  "sourcePath": "/Users/vidipkhattar/Desktop/my-app/contracts/SoybeanSupplyChain.sol",
  "compiler": {
    "name": "solc",
    "version": "0.8.19+commit.7dd6d404.Emscripten.clang"
  },
  "schemaVersion": "3.4.13",
  "updatedAt": "2023-04-22T09:47:05.326Z",
  "networkType": "ethereum",
  "devdoc": {
    "kind": "dev",
    "methods": {},
    "version": 1
  },
  "userdoc": {
    "kind": "user",
    "methods": {},
    "version": 1
  }
}